:020000040800F2
:10000000400A002085700008AB700008AD70000841
:1000100000000000000000000000000000000000E0
:10002000000000000000000000000000AF700008A9
:100030000000000000000000B1700008B37000086C
:10004000B5700008000000004D6F0008B570000892
:10005000B57000088D6B0008B5700008B570000819
:1000600000000000B5700008B5700008B570000809
:10007000B5700008B5700008B570000800000000F9
:10008000651A00080000000000000000B5700008BC
:10009000B5700008B5700008B5700008B5700008AC
:1000A000B5700008B5700008B5700008B57000089C
:1000B000B570000800F002F800F047F80CA030C856
:1000C000083824182D18A246671EAB4654465D46D4
:1000D000AC4201D100F039F87E460F3E0FCCB64657
:1000E0000126334200D0FB1AA246AB4633431847E1
:1000F00098970000B89700000023002400250026F0
:10010000103A01D378C1FBD8520700D330C100D5D3
:100110000B60704710B5662902D109F003FA10BDD3
:10012000642902D107F0D0F810BD002010BD1FB522
:10013000C046C04608F012FC04000020002109F06F
:100140007FF8E0601FBD10B510BD08F069FF1146D3
:10015000FFF7EDFF01F07AFB08F081FF03B4FFF732
:10016000F2FF03BC08F0F6FFF8B5FF4F044601218B
:10017000384602F0E6FBA04225D0FC4D0020FF21CE
:1001800068640131384602F0EEFBFF26913600200C
:10019000401CC0B26428FBD30121384602F0D1FBD9
:1001A000686CB04205D00121384602F0CAFBA0427B
:1001B000EDD1FF210131384602F0D7FB686CB04227
:1001C00001D10120F8BD0020F8BDE848E749406AA8
:1001D00080390002000C962801D2642002E0FA283F
:1001E00003D2C8208885C8857047FF225F329042BD
:1001F00002D2FF202D30F5E7FF22C332904202D217
:10020000FF209130EEE7FF20F530EBE7D7480021E3
:10021000803801720173012242738175C175C17406
:1002200005238373072343728272C173017441747F
:10023000CE4A41659160116104220277427741857F
:100240008177C177704708B504226946782006F0A7
:1002500097FD0020401CC0B2C828FBD36846C349A4
:10026000C0788039AA2809D16B465A7818789B78CB
:1002700012189A4202D18007800F00E000204870D7
:1002800004226946F02006F07BFD0020401CC0B22D
:10029000C828FBD36846C178B4486038AA2906D17B
:1002A0006B465A7819789B7852189A4200D00121EF
:1002B000017208BD704770B5AC48AC4C603800792D
:1002C0008500AB4840596063A9480C304059A06391
:1002D000606A0002000C08F055F8A5490646183976
:1002E000495908F0C3FFE6632064A1480C3840591F
:1002F00008F048F8314609F029F807F0FFFF12210D
:1003000041434908E162A06236214843206370BD41
:100310001FB508226946602006F032FD00207D21CD
:10032000C900401C8842FCD3684601788F480122EE
:10033000603800290BD06B46DB78AA2B07D16C46BE
:100340006378A4785B18A34201D1C17100E0C27147
:1003500069460979002910D06B46DB79AA2B0CD1AC
:100360006C466379A4795B18A34206D18171022996
:1003700001D10421C17104B010BD8271FBE77FB5CA
:1003800010226946502006F0FBFC00207D21C900A8
:10039000401C8842FCD368467449C07980390123E7
:1003A000AA2808D16C4662792079A4791218A24251
:1003B00001D1887200E08B726846C27A6B480024D3
:1003C0006038AA2A08D16E46757A327AB67AAD18A4
:1003D000B54201D1027000E004700079002804D019
:1003E0006846C07BAA2803D00BE0CB7204B070BD76
:1003F0006B465A7B187B9B7B12189A4201D1C872BC
:10040000F4E7CC72F2E7F0B585B0584C594D1022A4
:1004100069467020656206F0B3FC00207D21C900AA
:10042000401C8842FCD36846C078AA280DD16B4690
:10043000587819789B7842189A4206D1A28C000409
:100440000902D2B24018104360626846C079AA28F7
:100450000CD16A465179107992790918914205D1E7
:10046000444A616AFF3A114008436062606AA842E8
:1004700001D141486062FFF7A8FE68463B4CC07B53
:10048000803C0025AA280AD16A46517B107B927BCA
:100490000918914203D1C007C00FA07000E0A570F9
:1004A000364E0020401CB042FCD300206F463D5425
:1004B000401C1028FBD310223946802006F060FC37
:1004C0006846C1780120AA2908D16A465178137874
:1004D0009278C918914201D1E37000E0E07069465A
:1004E000C979AA2908D16A46517913799279C9182C
:1004F000914201D1237100E020716946C97AAA298D
:1005000008D16A46517A137A927AC918914201D178
:10051000637100E060716846C07BAA2808D16A4612
:10052000517B107B927B0918914201D1A07100E0B0
:10053000A5710020401CB042FCD300203D54401C5B
:100540001028FBD308226946942006F019FC6A465D
:10055000D17810780906401891785278090412026F
:100560008918401801490BE0000400488000002071
:100570004C950008FFFFFF0001C8000040E20100A9
:100580004439FC4A08608018FB4A904201D3FB487A
:1005900008606846C079AA2808D16A46517910795E
:1005A00092790918914201D1E07100E0E571FFF7FD
:1005B00082FE05B0F0BDFEB508226946102006F0A7
:1005C000DFFB00207D21C900401C8842FCD36A4625
:1005D0001178D078090640185178927809041202EF
:1005E0008918E74F45186A46BD641179D079090624
:1005F0004018517992790904120289184418384632
:1006000012268030A5421CD1C16A8D4219D9DD491C
:100610008D4216D2816A284606F059FFC4B27C7614
:10062000284607F0AFFE014638468030C06B07F021
:10063000B5FDB8670120641F38762E2C1FD37E7657
:100640001DE0C16A8C421CD9016B8C4219D2CC4886
:10065000BC648030816A204606F039FFC5B27D76E1
:10066000204607F08FFE0146C5488030C06B07F07A
:1006700095FDB86701206D1F38762E2DDFD2012041
:10068000FEBDC148B8647E76C048B86700203876A1
:10069000FEBD1FB510226946002006F071FB002048
:1006A0007D21C900401C8842FCD36B461978D8785C
:1006B0000906411858789A78000412028018081820
:1006C0001A79D979120689185A799B7912041B0272
:1006D000D2188918AA4A884207D1AD4B984204D94A
:1006E0009B00984201D2106407E0A948A94BC0437F
:1006F0000818984205D208461164002803D001204A
:1007000039E600201064002035E61FB51022694646
:10071000082006F035FB00207D21C900401C8842DE
:10072000FCD36C462178E078090640186178A278FD
:1007300009041202891840182279E17912068A18F0
:1007400061790B04A17909025918511800238C4AC8
:10075000884207D18E4CA04204D9A400A04201D205
:10076000506407E08A488B4CC0430818A04206D268
:1007700008465164002803D001201076FBE553643D
:1007800013760020F7E5F8B57D4C834E617D012995
:1007900009D000210846A1658200401CC0B2B150BA
:1007A0000A28F9D3F8BD0A2106F091FE07F0EAFD08
:1007B000A065794F0024303F0090A500E8194068FB
:1007C0007959401A07F0DEFD0146009807F0E6FC73
:1007D000641CE4B270510A2CEFD3F8BDF8B5684937
:1007E0000D6CA8424CD36C49654B30398A6A401B6A
:1007F0009E6D824218D2801A07F0C4FD6649496A8C
:1008000008F0A4FD07F07AFD07F0BCFD044663493B
:10081000304608F09BFD0646284607F0B3FD3146FA
:1008200008F024FD214627E00124A2008A588242D4
:1008300002D8641C0B2CF8D3A70079188039C96F33
:10084000401A07F09FFD544979188039C96F08F0A4
:100850007DFD07F053FD07F095FD0746601E07F08C
:1008600091FD314608F072FD0446284607F08AFDE6
:10087000214608F0FBFC394608F0F8FC07F03EFD85
:10088000F8BDF0B5444F3E4E303F38690022430872
:100890005908F366480831677067B868984201D212
:1008A000F26501E00124F465181A00D54042706633
:1008B0007C68F56D8C4203D2002D0AD10C1B02E03E
:1008C000012D06D1641A4508A54202D2641B346684
:1008D00000E032665918FB68F46D8B4208D2002C98
:1008E00004D1C91A07E0081AB066F0BDB266F0BDBF
:1008F000012CFBD1591A40088842F7D2F3E7F1B531
:100900001F4890B01099006C814202D2084611B085
:10091000F0BD0F1A20481A4930380069CA6D0E928E
:100920004D6E096F0091B84241D23F1A084607F058
:10093000D4FA1B4A1B4B07F035F804460E462846EE
:1009400007F0CBFA2246334607F058F804460D4626
:10095000384607F0C2FA22462B4607F0C1FA06F0E5
:1009600067FE0E9900291FD007F0C8FC10994018A7
:10097000CDE7000000004CBD010028000000D84277
:100980000000002080F0FA0200512502DC69BA362E
:10099000C0C62D003F5489002402002000002041E1
:1009A000295C8FC2F528F03F07F0A8FCBBE00020CF
:1009B000019004460290F748416F0D91816E0C91B1
:1009C000016E0991C66E284607F087FA0546F01BAE
:1009D00004900391304607F080FAEF4AEF4B06F09F
:1009E000E1FF0B4602462846039907F007F80791F6
:1009F000069006E0002C04D0012C18D0022C4CD11B
:100A00004CE00498002800DA4042321A00D55242E5
:100A10000799069D1046039107F05FFA2A46039B4B
:100A200007F05EFA06F004FE0590049D32E000989F
:100A3000451B01D4284600E068420099081A00D5F9
:100A400040420390B742084609D907F046FAD24A15
:100A5000D24B06F0A7FF0A900B910C9808E007F024
:100A60003CFACD4ACD4B06F09DFF0A900B910998B8
:100A700007F033FA0B9B0A9A06F0C0FF0A900B911D
:100A8000039807F02AFA0B9B0A9A07F029FA06F056
:100A9000CFFD0190002D36DA6D4234E00D98401BF9
:100AA00000D540420D99081A00D5404203900098A5
:100AB000B74209D907F011FAB74AB84B06F072FFEE
:100AC0000A900B910C9808E007F007FAB24AB34B72
:100AD00006F068FF0A900B91099807F0FEF90B9B4E
:100AE0000A9A06F08BFF0A900B91039807F0F5F92C
:100AF0000B9B0A9A07F0F4F906F09AFD0021C9430E
:100B000007F044FC0290641C032C00D272E70199A8
:100B1000059808F0ABFB029908F0A8FB07F0EEFB84
:100B20000E99002902D01099081AF0E610990818B9
:100B3000EDE6F0B59A4D85B000242001203080B25A
:100B40001022694606F01CF900207D21C900401CD6
:100B50008842FCD300206E46A70082009119B25C47
:100B6000CB7812069A184B7889781B040902591819
:100B700051183A189200401CA9500428EDD3641C67
:100B8000022CDAD3002108468200AA58401C5118D2
:100B90000528F9D36A697F488A4205D10121417548
:100BA000FFF76FFE012004E500214175084600E5CE
:100BB000F0B57B4D85B000242001203080B210229A
:100BC000694606F0DDF800207D21C900401C8842FE
:100BD000FCD300206E46A70082009119B25CCB784E
:100BE00012069A184B7889781B0409025918511873
:100BF0003A189200401CA9500428EDD3641C032C21
:100C0000DAD3002108468200AA58401C51180B284C
:100C1000F9D3EA6A5F488A4206D101214175A86A80
:100C2000FFF7B1FD0120C4E4002141750846C0E48E
:100C30001CB50020044669460C54401CC0B208286C
:100C4000FAD30822500106F0D4F80020401CC0B2AC
:100C5000C828FBD34F482030447084701CBD1CB59D
:100C600008226946500106F08BF800207D21C9005A
:100C7000401C8842FCD36B461978D8780906411885
:100C800058789A7800041202801808181A79D979CD
:100C9000120689185A799B7912041B02D2188918F6
:100CA000421C01D14A1C01D0884202D0FFF7C0FF8C
:100CB0001CBD384C64212034607006F008FCA17023
:100CC0001CBD70B5FFF7A2FAFFF7C9FFFFF79BFB4A
:100CD00000207D24E400401C80B2A042FBD3FFF73B
:100CE0004EFB0020401C80B2A042FBD3FFF760FF08
:100CF0000020401C80B2A042FBD3FFF7CAFC0020BA
:100D0000401C80B2A042FBD3FFF755FC0020401CE2
:100D100080B2A042FBD3FFF7F8FC0020401C80B259
:100D2000A042FBD305F0A2F8FF24C3341D4D0026DA
:100D30002878002806D02E70641EA4B205F022F890
:100D4000882802D0002CF3D103E0002C01D0012030
:100D500070BD002070BD0F490120C87370470D4958
:100D60000120087470470B490120487470470948F6
:100D70000021817507214172704710B50548002197
:100D80008175072141720120FFF7EEF901492031F9
:100D9000487110BD00000020295C8FC2F528F03F8B
:100DA000F401002009010020F0B5FF4A85B0516C24
:100DB000411A00D54942FC4AFC4F127D130008F04D
:100DC00013FA0C072323232323232323232335343C
:100DD0000025F54C3D6020642563030E6E4660647B
:100DE0003370020C7270010AB170F070337172715D
:100DF000B171F07108226946002005F0FAFF207DEC
:100E0000401C2075A5760EE0E74B186B81420CD98B
:100E1000E74C081AA04208D9900019633950521CB7
:100E20001A750020987601F0AFF9BCE60020810029
:100E3000DE4A401C5C3A7B58C0B253500B28F6D3B4
:100E4000002108468200BA58401C5118C0B20B2835
:100E5000F8D300246D46F9620020A60031188900FD
:100E6000795882000B0EAB540B0C521953700B0ABD
:100E70009370401CD1700428F0D3200110226946E1
:100E8000203005F0B6FFCB490020401C8842FCD33F
:100E9000641CE4B2032CDFD3C34C0020E0740120B7
:100EA0006075C2485C38806AFFF76DFC207D401C8D
:100EB000207578E6F0B5BC4C85B0616C411A00D560
:100EC0004942227D0025B94F130008F08DF9060430
:100ED0001D1D1D1D2D2C3D6020646563030E6E4697
:100EE00060643370020C7270010AB170F07033717B
:100EF0007271B171F07108226946002005F079FF26
:100F0000207D401C20750BE0606B81420BD9AA4B01
:100F1000081A984207D9900061633950521C227513
:100F2000A57601F031F93EE6A04A00205C3A810046
:100F3000401C7B58C0B253500528F8D30021084606
:100F40008200BA58401C5118C0B20528F8D30025B9
:100F500028466B46AE0079613118890079588200C5
:100F60000C0E9C540C0CD21854700C0A401C94703B
:100F7000C0B2D1700428EFD32801102219462030C6
:100F800005F037FFFEE7FEB5874C0025E17D2246E0
:100F9000137B012910D0526C02292DD0032932D0A5
:100FA000042908D0052906D1A575072060722046BE
:100FB0008030C1690162FEBD012BFCD17F498842AE
:100FC000F9D989008842F6D26565030E60646D46E2
:100FD0002B70020C6A70010AA970E8702B716A719B
:100FE000A971E87108226946104605F002FF01F078
:100FF000CBF8E07D401C04E0714951188842DAD9F1
:101000000320E075FEBD012BFCD16E498842F9D961
:1010100089008842F6D2801AA06306F05EFF0022A3
:10102000694B06F0BFFC06460F46E08D06F055FF03
:1010300032463B4606F0E2FC06F0FAFA5A4F014609
:101040008037A067F86B07F0A9F807F057F9A0649C
:101050000646B96A06F03BFA6076330E6F463B707F
:10106000320C7A70310AB970FE703B717A71B971C5
:10107000FE7108226946102005F0BBFEE07D401C91
:10108000E075A563FEBDFEB5474C2546E17D2B7B93
:101090002035012913D02246494E526C022927D00F
:1010A00027468037032928D0042962D0052905D195
:1010B0000020A07507206072F8693862FEBD012B20
:1010C000FCD13E498842F9D989008842F6D2606451
:1010D00000206065FFF748F86871012805D0E07DC1
:1010E000401CE07501F050F8FEBDFFF740FEFEBD6C
:1010F00091198842FBD9032039E0012BF7D1B04286
:10110000F5D932498842F2D2801A06F0E6FE002272
:101110002D4B06F047FC054623480E463C30006840
:1011200007F012F82A46334606F068FC06F080FA0B
:101130000146A067F86B07F031F807F0DFF8A0640C
:101140000546B96A06F0C3F960762B0E6E46337019
:101150002A0C7270290AB170F57033717271B17115
:10116000F57108226946102005F043FE07E0E0759E
:10117000FEBD0120FEF7F8FF68710128B5D0E07DC3
:10118000401CF4E7F1B5084820300079012857D118
:1011900005480079012853D10D49009808F0D6F888
:1011A00007F0ACF80B4917E00000002050020020C7
:1011B000804F1200801A060070383900C0C62D001A
:1011C00080969800C0E1E4000000E03F00879303B0
:1011D00000401C461027000006F079F9FE4A881EE0
:1011E00090422DD2FD4CFE4D042905D2009806F008
:1011F000ABFF22462B4608E0FA4EFB4F062907D2EA
:10120000009806F0A1FF32463B4606F0D6FB14E0FC
:10121000F148401E814205D9009806F095FF22460C
:101220002B4608E0EC48C01E814209D9009806F020
:101230008BFF32463B4606F0B5FB06F0F9F9F8BDE8
:101240000098F8BDFEB501F0B7F9E84D0446E87C1A
:10125000012805D1287B012802D12046FFF7A4FDF3
:10126000687D012806D16879012803D12046FFF75F
:10127000B5FA0446A87D012805D1687A04282046DD
:1012800007D0FFF780FEDA482C650078012803D0EC
:1012900008E0FFF7F8FEF6E7686D002802D1204667
:1012A00001F074F8D148D14F407B002580370128E8
:1012B0001DD1CE49087B012819D1887B401E00062C
:1012C000000E887313D108464573416C806C661A12
:1012D0000A214843642106F0FAF8002E00DA76422B
:1012E000B04201D9C1484464C048406CB864BF48AA
:1012F000C07B012810D1BD48C573B96C806C661ADB
:101300004000642106F0E3F8002E00DA7642B04295
:1013100002D9B64845654464B44E307C012805D1F5
:10132000706C844202D93574F06C7065706C201A50
:1013300000D5404201F044F8F064317E012904D028
:1013400007F020F838607860FEBD07F01BF8B16F39
:10135000019107F0FBFF38600090706D07F012F804
:10136000019907F0F3FFF06701462046726C0124F3
:10137000904204D2B574009807F078FF0CE0009812
:1013800007F0BAFF03D2B5743968F06F02E0B474A5
:10139000F16F386808F05EF8944920310979002926
:1013A0001BD006F0D1FE8D4A924B06F0FBFA06F0F8
:1013B0003FF9FFF7E7FE7860B96B07F09DFF00D2B9
:1013C0007D60396C786808F019F804D3396C386896
:1013D00008F014F806D23470FEBD06F0B5FE864A59
:1013E000864BE2E73570FEBDF0B5804985B0887C5C
:1013F00000287DD0087B00287AD0AA206A46107089
:10140000507000279770D770177157719771487A8D
:10141000D071897A117275498031082803D00B2860
:1014200003D0486802E0C86800E048691546010E2C
:101430005172010C9172010AD1721073577300211D
:10144000977308462A5C401C511880B2C9B20F2815
:10145000F8D3664CE9732034A07810220001FF30E5
:101460002946113005F0C5FC654E0020401C80B2B5
:10147000B042FBD300202F54401C80B21028FAD376
:10148000A07810220001FF306946113005F078FC89
:1014900000207D21C900401C80B28842FBD300217E
:1014A00008462A5C401C511880B2C9B20F28F8D3F4
:1014B0006846C07B88421BD16078401CC1B2617015
:1014C000A078401CC0B2A070642800D1A770684604
:1014D000077047708770C170077147718771C1715C
:1014E00008226946500105F084FC0020401C00E001
:1014F00004E080B2B042F9D30120E07095E47FB5FA
:101500003A4907204872012600200C468E7220348A
:101510002070C87269460E714871421C8A71AA25F2
:10152000CD71087248728872CD72087348738873DF
:10153000CD731022502005F05CFC32490020401C85
:10154000E6718842FBD369460E704D70AB208870FF
:10155000CD70A6710E714D718871CD710822602019
:1015600005F047FC00F01CFBFFF762FB7FBDF3B505
:101570001E491C4DC87E0C46234F803481B0012883
:1015800004D0022855D02148A061FEBD487F8100CB
:101590001F48405806F0D8FD124A3B4606F00DFAA7
:1015A00006460D460299019807F054FF0146009047
:1015B000019806F0F3FD06F0C7FD32462B4606F013
:1015C0008FFC084A3B4606F0EDF906F031F8294653
:1015D00035460E46A0611DE00D2700002D431CEB93
:1015E000E2362A3F613255302AA9333F00000020FD
:1015F00031010020E2360A3FFCA9F1D24D62403FA2
:10160000204E000087D612002AA9533F719CAD4797
:1016100088950008009806F097FD2A46334606F0A4
:10162000EDF9124A124B06F05BFC06F001F8E0649B
:10163000FEBD087F0F4980000958019806F0AEFDF5
:1016400006460299019807F005FF314606F0A6FD0F
:1016500006F07AFD054A064B06F042FC2A463B4658
:1016600006F0A0F905F0E4FF8EE70000ADFA5C6D2E
:10167000C5FEEF3F6495000810B5CA48FD2200780A
:10168000C949C007002802D1087810400870C7482F
:101690000078830703D40B7BBF2423400B734307DD
:1016A00003D40B7BDF2423400B73030703D40B7B92
:1016B000F72423400B73C30603D40B7BFB24234086
:1016C0000B73800602D4087B1040087310BDB84825
:1016D0000025B84EB84F05703078012804D1357018
:1016E00000F0EBFDFFF7AEFD3878002804D03D7028
:1016F00004F048FB05F023F9B0480178002904D034
:10170000057004F086FA03F0A3F9AD4801780029CA
:1017100002D0057004F098FAAA4801780029DBD0BD
:101720000570641CE00702D001F07CF8D4E701F0FA
:1017300063F8D1E7A44F00249E480178012904D121
:10174000047000F0BAFDFFF77DFD9B480178002989
:1017500004D0047004F016FB04F012FE97480178E0
:10176000002908D0047099480078002803D103F0BC
:1017700045FF03F06DF99248017800290FD00470FD
:1017800000F0E9FF80B200F082FE914908608F48C6
:101790000078002803D103F09DFF04F023F8894866
:1017A0000178002908D004706D1CE80702D001F010
:1017B00039F801E001F020F8864801780029BBD013
:1017C00004703E688248761C3E600168824800686A
:1017D00007F040FE06F0B8FC05F048FE052803DDE2
:1017E0007E480078012806D07D4804707D48017845
:1017F000012904D006E07A4901200870F6E7282E76
:1018000000D9047078480078012811D17748007811
:1018100001280DD176480078092802D2052802D384
:1018200004E00D2802D200F05BFA01E000F087FA34
:10183000E1213868C900884200D87DE76749012066
:101840000870634801686448016075E708B5C820FE
:1018500000F0EEF805F0ECFB03F0CCF800F088FFA8
:1018600000F09FFF00F0B0FF04F05CFA05F027FAEB
:10187000FEF74EFD00F094F905F0CCF8042269461D
:10188000742005F07DFA0020401CC0B2C828FBD3AC
:101890006846C078574DAA2806D16A465178107814
:1018A00092780918914200D00120287000206946E2
:1018B00004460C54401CC0B20428FAD304229020E1
:1018C00005F05EFA0020401CC0B2C828FBD3684671
:1018D000C0784949AA2808D16B465A7818789B786D
:1018E00012189A4201D1087001E020460C70C0B273
:1018F0000C2148434149401829788900405A404901
:10190000088000F0BFFE3F490020401C8842FCD305
:1019100000F07AFFE1203C4DC00007262880360207
:1019200003F0F9F92888B04201D100F083FF04F0F8
:1019300029FA2988002902D08128F1D105E004F094
:1019400021FA012828D08128F9D100F05DFF03F0A9
:10195000AFF8FEF778FCFFF78FFE03F079F8FFF79A
:10196000B0F9C5B203F09BF8012D19D00D480078ED
:10197000800703D503F0BEF803F06AF80F4914207E
:101980000A78002A02D00C70401EC0B20028F7D19D
:1019900003F085F8FFF7CEFE1C490A200870D4E753
:1019A000FFF795FE01000020E40100202800002040
:1019B00001010020D7000020090100200A010020B9
:1019C0000B0100200E01002004010020080000206F
:1019D0009C0000200F010020A00000201E0000201D
:1019E0001F0000200D000020260000200C00002019
:1019F0002700002024000020D1000020AC95000822
:101A0000F400002039300000D2000020D000002077
:101A100008B50121022001F087F9102069460870FD
:101A20000020487001208870684602F01BFE08BD47
:101A30003EB50446FFF7ECFF01942F216A46118062
:101A4000002010814C4C50806946204601F01CFB60
:101A500001221146204601F087FE0121204601F0B7
:101A600084FB3EBD70B5444C0121204601F090FE40
:101A7000012803D10121204601F096FE3F4CA068C9
:101A8000401CA060052868D300260125A6602571AA
:101A9000E068401CE060E0683949884200D9E660AF
:101AA0002069411C2161052801D3266125706069E8
:101AB000401C606160690A284FD3666165703148D7
:101AC0000168491C016004F04FF904F05EF9A06957
:101AD000401CA061A0690A283FD3A661A570E069F7
:101AE000401CE061E069032801D1E661E570206AED
:101AF000401C2062206A05282FD32662A571606AE7
:101B0000401C6062606A022827D36662E5711E4845
:101B100000780C2809D11D480078012805D11C49FE
:101B20000878002801D0401E08701A490888401E15
:101B3000088019490888401C80B20880E121C9004A
:101B400088420AD1154C2078002806D102F0A7FF60
:101B500002F07EFF257000F06DFE70BD0748C06882
:101B600070470649002204E04B79002B01D04A71EE
:101B7000401E0028F8D170470004004008010020F2
:101B800060EA0000C400002009000020EE000020F0
:101B9000ED000020D20000202A00002008000020D4
:101BA00030B5012189B0480401F0ACF80121880367
:101BB00001F0B1F80921CD060122284600F0DFFE30
:101BC00001220A21284600F0DAFE03204002069096
:101BD00002206A461077002494770121D1770320F0
:101BE000507706A9284600F05EFEF74800780128E5
:101BF00007D0022808D003281AD04B21C901009130
:101C000005E04B20000101E04B20400100900194D1
:101C10000294039405940C20EC4C049069462046F1
:101C200001F093FE0121204601F0EEFE09B030BD27
:101C30004B208001EAE7E549CA691206FCD5E34971
:101C400020310881704730B50D460446002305E079
:101C50002078641CFFF7EFFF5B1CDBB2AB42F7D3CD
:101C600030BD00B5034602E05B1CFFF7E4FF1878C7
:101C70000028F9D100BDD548C1698906FCD5D348F3
:101C800020308088C0B2704730B58DB06B467E2062
:101C900018707F2058700120987002210022D9709E
:101CA0001A715A719A71DA7119725A721C469A72C3
:101CB000EA20E072EB2020730D2102208C1E03E04D
:101CC0001D5CAA1892B2401CA042F9D35A54100AC3
:101CD000491C58541846491CFFF7B5FF0DB030BDDC
:101CE0001FB5BB480078002801D02B2000E02D2034
:101CF000694608702024684644708470C47004717A
:101D00002E2141718471C47104724472B14800681B
:101D100006F01AFA02460B4600A8AFA1023005F001
:101D200097FA684684726721C172047344730D2167
:101D300081730A21C1731021FFF785FF1FBD1FB5F5
:101D400041206946087020244C70A1488C700078AE
:101D5000002801D02B2000E02D20C8700C714C71A0
:101D600008468C712E21C171047244728472C4724F
:101D70009848006806F0E8F902460B4696A101A8CB
:101D800005F066FA68460473672141730D2181737B
:101D90000A21C1731021FFF756FF1FBD00B51B209C
:101DA000FFF749FF3620FFF746FF00BD00B51B20B7
:101DB000FFF741FF3720FFF73EFF00BD10B5884811
:101DC000884C007886B000280BD087A0FFF749FF29
:101DD00020780838030007F007FA0527292B2D2F54
:101DE000390000F0E1F883A0FFF73BFF00F0E4F8D2
:101DF0003A20694608702020487000F0D5F8207815
:101E00000838030007F0F0F9050406080A0C0E0074
:101E10007BA012E07CA010E07DA00EE07EA00CE094
:101E20007FA00AE07FA008E080A006E082A004E096
:101E300085A002E087A000E08AA0FFF712FF0A2039
:101E4000FFF7F9FE00F0B8F806B010BD88A0F4E77F
:101E500030B585B000F0B0F887A0FFF702FF5C480E
:101E60006C46007800280CD020205E4D2070287829
:101E700058490838030007F0B7F905060D3A28312C
:101E80003A002D20F1E77F49601C0A687EA105F029
:101E9000DFF903E07D4822E005F0DAF90020694629
:101EA00048726846FFF7DDFE2878082827D0092801
:101EB00027D00B2827D076480078022825D0032881
:101EC00027D0042823D073A024E07348006806F0CC
:101ED0003BF902460B46601C70A1DDE771480068C3
:101EE00006F032F902460B46601C6FA1D4E7086881
:101EF00006F02AF902460B46601C37A1CCE76CA01D
:101F000008E06DA006E06EA004E06EA002E06EA006
:101F100000E06EA0FFF7A5FE0A20FFF78CFE05B0DB
:101F200030BD00B51B20FFF786FE4020FFF783FE83
:101F30001B20FFF780FE6320FFF77DFE0020FFF7E8
:101F40007AFEFFF72BFF00BD10B586B0FFF7E9FF63
:101F500000F0CAF8FFF732FFFFF77AFF2048007859
:101F600000281DD05AA0FFF77CFE00F025F80120C4
:101F70006A465F211154401CC0B21428FAD30024D1
:101F80001046D473FFF76DFE0A20FFF754FE0A20B7
:101F9000FFF751FE0A20FFF74EFE5048047053E74A
:101FA00000F002F84EA0DEE700B51C20FFF743FE6C
:101FB0002620FFF740FE00BD00B51C20FFF73BFECA
:101FC0002E20FFF738FE00BD27000020003801401A
:101FD000120000208400002025382E346600000006
:101FE0000200002009000020435552525F4D4F442B
:101FF000453A2000B5B1C7B0C4A3CABD0000000077
:10200000BCC6CAFD00000000C3DCB6C8000000006A
:10201000BCECD6D800000000B0D9B7D6B1C80000DB
:10202000B6AFCEEFB3C6D6D800000000434F554E32
:10203000545F4D4F4445000044454E534954595F49
:102040004D4F444500000000434845434B5F4D4F12
:102050004445000050455243454E544147455F4D6D
:102060004F444500414E494D414C5F4D4F44450062
:102070005745494748540000435552525F44415424
:10208000413A20008C000020253864009800002090
:102090000A000020206720009400002025382E32FE
:1020A00066000000E800002025382E3166000000A0
:1020B000207063730000000020672F6D3300000064
:1020C00020252000206D6700206F7A0020637400B7
:1020D0005369676E61747572653A000002010020F1
:1020E000C7A9C3FB0000000010B51B20FFF7A3FD2C
:1020F0005620FFF7A0FD0220FFF79DFDFFF75CFFD4
:102100001648642100680002000C05F0E0F9303048
:102110000B46C0B2FFF78FFD18460A2105F0D7F92C
:102120003030FFF788FD3020FFF785FD0C48007840
:102130003330C0B2FFF77FFD0A480078002808D08E
:1021400009A0FFF78EFD0A20FFF775FDFFF734FFAA
:1021500010BDFFF729FF09A0F3E70000A40000204D
:102160002400002002000020454C454354524F4EAD
:1021700049432042414C414E43450000B7D6CEF67C
:10218000CCECC6BD00000000F64900204863F649CB
:102190000870704730B5F54B00201C4640341D4692
:1021A0008035024681005A506250401C6A50102807
:1021B000F8D3EE490020C0318300401CCA501028DB
:1021C000FAD3EB4900208300401CCA501028FAD3F0
:1021D000E4488263C2630264426430BDF0B5E14802
:1021E000E34BC06B403B91B0012804D0DD49002097
:1021F0000246896B2EE000206E468100401C5A5832
:10220000C0B272501028F8D3002100200F22571AB4
:1022100009E08400A51932596B689A4201D93351FB
:102220006A60401CC0B28742F3DC491CC9B20F2966
:10223000EBD3002104208200B258401C5118C0B2D8
:102240000C28F8D3C80811B0F0BD94001C59201810
:10225000521CD2B28A42F8D305F039F9F3E7F0B54F
:10226000C24A90B0002080326E468100401C535814
:10227000C0B273501028F8D3002100200F22571A43
:1022800009E08400A51932596B689A4201D933518B
:102290006A60401CC0B28742F3DC491CC9B20F29F6
:1022A000EBD3002104208200B258401C5118C0B268
:1022B0000C28F8D3C80810B0F0BDF8B504F085FCC0
:1022C000A84DE969091A00D54942AA4AA64E002438
:1022D000914209DD34706C632C626C626C642C6416
:1022E0006C70AC70EC702C71E86100F08FF9296AA9
:1022F000491C29620F2903D9696A491C696200E0F7
:102300006C62286500F0A3F9696A9B4F0F290AD80F
:102310006A6DA96C891A00D549423A780A235A4352
:10232000914200DB286D686500F049F9A96C091A33
:1023300000D549423B78012299420DDA696B8F4BF7
:10234000491C69631B78042B03D00A2905D9327014
:1023500003E01429FBD800E06C63A86430780128FE
:1023600002D06C70AC700CE085486A70007801286F
:1023700007D184480078002803D1834800780128D9
:1023800002D0EC702C71F8BDEA70F8BD10B5754A3A
:102390009178491CC9B29170032910D100217B4B5F
:1023A00091701968411A00D54942734A1278D400D5
:1023B000A21A8A4203D9764A01211170186010BD11
:1023C00070B504466848674D007801280DD16A4809
:1023D000067864207043A04207D26948007801283B
:1023E00003D168480078002802D00020A8620AE0E3
:1023F000A86A401CA862012805D0062105F067F8EC
:10240000002902D014E0EC6212E0EA6AA01A00D5BA
:102410004042B100814208D95C4B9442196801D90D
:10242000081800E0081A186002E0EC62FFF7ACFE42
:10243000E86A70BD70B550494A4C0A78642151432E
:10244000814202D22179002901D0206370BD236B23
:10245000C11A00D5494255005219914207DC590072
:10246000C2005918101A08180A2105F030F8206324
:1024700001202071206B70BD00203D490246403193
:102480004300401CC0B2CA521028F9D37047F8B5B7
:10249000344B374A197840324C001053491CC8B2AB
:1024A0001870102802D03B480068F8BD0020187052
:1024B00001464300D35A401C5918C0B21028F8D323
:1024C0000C09204605F009FD334A344B05F080FA2B
:1024D00005460A200E46604305F0FFFC2A463346B7
:1024E00005F08CFA05F0A4F82D492E4A05468842DD
:1024F00002DA2D48854201DC1046F8BD2B4E01243E
:10250000A0003158284606F079FF02D3641CE4B2DB
:10251000F6E7A000375880198038C06F394606F0BA
:1025200099FF06463946284606F094FF314605F0E5
:1025300035FE1F4906F00AFF05461C486030005D65
:1025400005F020FF294606F085FF1A4906F082FFB4
:10255000F8BD0448C06C70470248006D70470148E0
:10256000406D7047300100200C00002080020020E8
:102570008003002050C30000190000200900002043
:102580001500002016000020030000204400002059
:102590001A0000209C000020ACC5A7000000B0403D
:1025A000CB212442CDCCC7428195033FDC95000866
:1025B0000000A0400000E0402F48806C704710B53C
:1025C0002D4A2E4B116C8C00491C18511164102996
:1025D00005D0506C012806D00020024611E00120F1
:1025E0005064002010640021084682009A58401C64
:1025F00051181028F9D3080910BD94001C5920184F
:10260000521C8A42F9D304F062FF10BD70B51A4A19
:10261000916809189160814202D2D3685B1CD36033
:102620001369174D9C002E598E1B96608E4202D95D
:10263000D168491ED1605B1C28511361102B01D158
:1026400000201061107B0006310A084370BD70B590
:10265000094B0B4D596940350C1899698A00AE58E1
:10266000491CA41B5C61A8509961102901D100206C
:102670009861200970BD0000300100208003002017
:102680008002002070B5012194B0C80400F03AFB2C
:102690000121480200F03FFB0121084600F032FB17
:1026A0001020069003206946087706A92B4800F001
:1026B000FAF82B4D284602F0CFF82A4808902A480D
:1026C0000024042609A951C180200D9040000E90DD
:1026D00080000F90202010900C940002119008A907
:1026E0001294284602F0EAF80121284602F00FF978
:1026F0001C4D0221403D284600F047FC01212846A0
:1027000000F039FC684600F082FB01206946009425
:102710000871029428460596049400F065FB052292
:102720003103284600F0E0FB284600F000FC0121C0
:10273000284600F020FC0121284600F070FB0B4CDD
:102740002846214600F031FC0028F9D0284600F048
:102750000AFC14B070BD04480088704700080048A7
:1027600008000240402401408801002001000001CF
:102770007CB50121480400F0C5FA0124240301209E
:10278000694600940871002088710320092548716A
:10279000ED06284600F087F82146284600F0E3F8C9
:1027A0007CBD1CB50121880400F0ACFA0120400278
:1027B000009001206946087100208871032048714B
:1027C000234800F070F81CBD7CB50121C80400F05E
:1027D00099FA0124640301206946009408710020DD
:1027E000887103201B4D4871284600F05CF8214693
:1027F000284600F0BAF87CBD10B501210920090374
:10280000C00600F0B2F810BD10B501214902104811
:1028100000F0A9F810BD10B5012149030D4800F0E2
:10282000A2F810BD10B5012109200903C00600F06F
:102830009AF810BD10B501214902054800F095F83D
:1028400010BD10B501214903024800F08EF810BDFB
:102850000004004800080048092110B5C906884254
:1028600002D101214C0404E04D49884209D10121E3
:102870000402204600F061FA0021204600F05DFAD3
:1028800010BD4849884202D101210402F1E74649BE
:10289000884202D101210C05EBE744498842EFD17F
:1028A00001218C05E5E7F0B50022032501230C6822
:1028B00093401C409C422AD10C79012C01D0022C5F
:1028C00012D1876854002E46A640B74387604E79E0
:1028D000A64084682643866084889C4384808488DC
:1028E0008B7993401C438480066853002C469C409F
:1028F000A64306600E7907689E403E430660C668A0
:10290000A643C660CC799C40C3681C43C460521C7B
:10291000102ACBD3F0BD26490160002101710122AC
:1029200042718171C1717047012208B512040A43D6
:102930000092C261C1610099C161C169C069009022
:1029400008BD0246128A00200A4200D001207047CA
:10295000008A70470246928A00200A4200D0012075
:102960007047808A70478161704701857047002AEF
:1029700001D08161704701857047818270474B07A4
:10298000DB0E9A40C90810B589000818016A0F24A7
:102990009C40A1430162016A1143016210BD000025
:1029A0000004004800080048000C004800140048DB
:1029B000FFFF0000F64801680122114301604168F1
:1029C000F44A114041600168F34A11400160016816
:1029D000012292049143016041683F221204914315
:1029E0004160C16A09090901C162016BFF225432C9
:1029F00091430163416B49084900416300218160B3
:102A00007047E34900228A708870704703460020AF
:102A1000DF4A59090CD001290CD002290CD0516B86
:102A2000DA06D20E012393400B4200D001207047FA
:102A30001168F5E7116AF3E7516AF1E718B500206C
:102A40000524240300901120FFF7E0FF0099491CA2
:102A50000091A14201D00028F5D01120FFF7D6FF48
:102A6000002800D0012018BDC94A1168F8239943F5
:102A7000C000084310607047C5490028086802D0AC
:102A80000122104301E04008400008607047C04A3E
:102A9000516BF8239943C000084350637047BC4909
:102AA0000028486B02D00122104301E0400840009A
:102AB00048637047B64904220028486B01D0904310
:102AC00000E0104348637047B1490A6A5208520057
:102AD0000A620A6A04239A430A620A6A02430A6281
:102AE0007047AB490A6A18239A430A620A6A02438A
:102AF0000A627047A6490028486A02D001221043A2
:102B000001E0400840004862704710B5A04A536891
:102B10007B24E403A3435360536808430343536097
:102B200010BD01229A4912060028086801D01043FE
:102B300000E0904308607047954AD16A090909018D
:102B40000143D162704701229149D20400280868EC
:102B500001D0104300E09043086070478C4B5A68E6
:102B60001202120A00060843104358607047884A50
:102B70005168890889000143516070478448406862
:102B80000C2108407047824A5168F0239943014361
:102B9000516070477E4A516807231B0299430143E5
:102BA000516070477A494A6801239B039A434A60FF
:102BB0004A6883B21A434A600A6B8B159A430A63C8
:102BC0000A6B000C02430A63704771490A6B402389
:102BD0009A430A630A6B02430A6370476C490A6BA3
:102BE00010239A430A630A6B02430A6370476849D9
:102BF0000A6B920892000A630A6B02430A637047E9
:102C0000F8B5634E044670680C21644D084003D04B
:102C1000042801D0082801D0256012E0716870688E
:102C200003228902D2030F0F1040BF1C00281CD0C2
:102C3000F06A0107090F2846491C04F048FC784354
:102C400020607068564B0006000F1A5C2068014631
:102C5000D140616072685205520F9A5CD140A16008
:102C6000326BD20505D44F4A09E04F4847432760ED
:102C7000E7E77268520401D44A0800E08A08E2607B
:102C8000326B4A4B520603D4484A1232226100E0AA
:102C90002361326BD20601D4656100E06061326B62
:102CA00092070FD0316B8907890F01290CD0306B47
:102CB0008007800F022809D0306BC043800700D105
:102CC000A561F8BDA161F8BDA061F8BDA361F8BD23
:102CD0002F490A6A02430A6270472D490028334A85
:102CE000086A01D0104300E0904308627047012257
:102CF000274912040028086A01D0104300E09043DD
:102D000008627047224A0029516901D0014300E05E
:102D10008143516170471E4A0029916901D00143E6
:102D200000E0814391617047194A0029D16901D0BF
:102D3000014300E08143D1617047154A0029916A3F
:102D400001D0014300E0814391627047104A00299D
:102D5000D16801D0014300E08143D16070470C4A43
:102D60000029116901D0014300E0814311617047DE
:102D7000074A0029517A01D0014300E08143517292
:102D800070470348416A01221206114341627047AD
:102D9000001002400CB8FF08FFFFF6FE00127A0098
:102DA0008A010020809FD50000093D0000800000BE
:102DB000054A0146926800200A4200D0012070476F
:102DC000014988727047000000100240854910B523
:102DD000884208D1441501212046FFF7B7FF0021A2
:102DE0002046FFF7B3FF10BD30B5C2687E4B8C683C
:102DF0001A400B680D792343CC686D032C432343A1
:102E00000C69496923430B431343C36030BD002160
:102E1000016001718160C1600161416170470029F9
:102E2000816801D0012200E00222114381607047D5
:102E3000002A026901D00A4300E08A430261704718
:102E40000122D2030029C16801D0114300E091435F
:102E5000C1607047012292030029C16801D011436B
:102E600000E09143C16070470122D2050029C1688A
:102E700001D0114300E09143C16070470904114340
:102E800001627047C2681F239B069A430A43C260CF
:102E90007047012292050029C16801D0114300E06A
:102EA0009143C160704701225049D20500288868CB
:102EB00001D0104300E090438860704701224B49E5
:102EC00092050028886801D0104300E09043886094
:102ED00070470122454912060028886801D0104336
:102EE00000E0904388607047836A0B4383624261CD
:102EF0007047012252030029C16801D0114300E04C
:102F00009143C1607047012212040029C16801D0B9
:102F1000114300E09143C160704701221203002970
:102F2000C16801D0114300E09143C16070478268DD
:102F300000210123DB071A4382600F231B038268F1
:102F4000491CD20FD207994201D0002AF7D18168DB
:102F5000002901DB006C7047002070478168102257
:102F6000114381607047816804221143816070477A
:102F7000006C80B270470029C16802D00122114361
:102F800001E049084900C1607047C26802239A43C2
:102F9000C260C2680A43C2607047002A426801D01A
:102FA0000A4300E08A434260704702460020CB019A
:102FB00004D5926801231B069A4300E012680A4276
:102FC00000D001207047016070470246536800201E
:102FD00012680B400A4202D0002B00D0012070473B
:102FE000016070470024014003D2FFFF0027014029
:102FF000F64910B5884202D10121C41430E0012104
:103000008907884206D101210846FFF7A8FE002162
:10301000012008E0EE49884208D101210220FFF793
:103020009EFE00210220FFF79AFE10BDE94988426A
:1030300006D101211020FFF792FE00211020F2E7B7
:10304000E549884207D1841501212046FFF787FE14
:1030500000212046E7E7E149884209D101210C041B
:103060002046FFF773FE00212046FFF76FFE10BDDC
:10307000DB49884202D101214C04F1E7D949884259
:10308000F5D101218C04EBE710B50288CF4B9842B3
:1030900006D00124A407A04202D0CD4CA04203D107
:1030A0007024A2434C882243CA4CA04203D0CE4C89
:1030B00022400C89224302804A68C2620A88028543
:1030C000984208D0C54A904205D0C54A904202D0E5
:1030D000C44A904201D1897A01860121818210BDC2
:1030E0000021C9434160002101800181418081723A
:1030F0007047018582827047028870239A430A4391
:103100000280704741627047C1627047406A7047F1
:10311000008D704702220029018801D0114300E090
:1031200091430180704704220029018801D0114396
:1031300000E091430180704780220029018801D07E
:10314000114300E0914301807047028808239A43AD
:10315000028002880A43028070470288A24B1A400C
:10316000028002880A43028070470029018802D049
:103170000122114301E0490849000180704710B560
:103180000A884B88CC881A438B8823431A430B89BF
:103190001A434B8989891A430A434030828010BD03
:1031A0000021018041808180C18001814181818134
:1031B000704740300029818803D00122D203114397
:1031C00001E04904490C8180704770B5028C5208B7
:1031D00052000284048C8288038B7025AB439B08C9
:1031E0000D889B001D4302239C438E894B882643F8
:1031F000764C3343A04208D0784CA04205D0784C9E
:10320000A04202D0774CA0420DD10824A343CC8920
:103210001C4304239C438B882343734C22400C8A19
:1032200014434A8A22438280058389684163038468
:1032300070BD70B5028C10239A430284048C82887E
:10324000038B6A4D2B400D782D062D0C1D4320233A
:103250009C438B891B051E0C4B8826431B051B0CAE
:103260005A4C3343A04202D05C4EB04219D1604E5A
:1032700032400E8AB604360C3243A04211D180246B
:10328000A343CC892405240C1C4340239C438B88F6
:103290001B051B0C2343574C22404C8AA404240CCE
:1032A00022438280058389688163038470BD30B5C1
:1032B000028C514B1A400284038C8288848B7025C7
:1032C000AC43A4080D88A40025434C4C23400C7B40
:1032D0002406240C1C438B781B061B0C23433B4CFD
:1032E000A04215D1434C23408C7B2406240C1C4364
:1032F0003F4B1C400B791B061B0C2343404C2240C8
:103300000C8A2405240C14434A8A1205120C224309
:10331000828085838968C163038430BD30B5028CA7
:10332000384B1A400284058C8288838B2F4C2340B3
:103330000C782406240C1C43334B1D400B7B1B07CD
:103340001B0C2B438D782D072D0C1D431F4B9842D2
:1033500005D12E4B13400A8A9205120C1A43828023
:10336000848389680164058430BD00210180418027
:10337000818081608181C18101824182704730B545
:10338000034618330124058C8C40A543058400298D
:1033900010D008290ED0091F0804400CC01801687D
:1033A00007231B039943016001681206120C1143A5
:1033B000016030BD4808C01801687023994301605E
:1033C0000168F4E74163704781637047002C014056
:1033D0000004004000100040002000400040014078
:1033E0000044014000480140FFFC0000FF8C000049
:1033F000FFFB0000FFF70000FFFE0000FFFD0000E4
:10340000FFCF0000FFEF0000FFDF0000FFBF000064
:10341000C163704701647047028B70239A430A436B
:1034200002837047028BF64B09021A401143018355
:103430007047828B70239A430A4382837047828B42
:10344000EF4B09021A40114381837047002981889C
:1034500002D00122114301E04908490081807047F0
:10346000028B08239A430A4302837047028BE54B81
:1034700009021A40114301837047828B08239A4343
:103480000A4382837047828BDE4B09021A40114344
:1034900081837047028B04239A430A430283704757
:1034A000028BD94B09021A40114301837047828B6A
:1034B00004239A430A4382837047828BD24B0902CA
:1034C0001A40114381837047028B80239A430A4339
:1034D00002837047028B5204520C0902114301838C
:1034E0007047828B80239A430A4382837047828B82
:1034F0005204520C0902114381837047028C02234B
:103500009A430A4302847047028C08239A430A4371
:1035100002847047028C20239A43090111430184DD
:103520007047028C80239A4309011143018470473C
:10353000028CB64B09021A40114301847047028C79
:10354000B04B09021A40114301847047028CB04B02
:1035500009031A40114301847047028908239A43E2
:10356000028102890A430281704710B50123048C4D
:103570008B409C430484038C8A401343038410BD16
:1035800010B50423048C8B409C430484038C8A4034
:103590001343038410BD04220029818801D0114304
:1035A00000E0914381807047828B9A4B1A4082835E
:1035B000828B09020A4382837047828B0C239A43D1
:1035C0008283828B0A4382837047028B914B1A401D
:1035D0000283028B09020A4302837047F0B5048C10
:1035E0001026B4430484058B048C8B4F1B03090104
:1035F0003D402B4312021A43A0239C430C43344307
:1036000002830484F0BD028B0C239A430283028B55
:103610000A430283704770B5048C64086400048414
:10362000058B048C1B011343F3260A22B5439443F4
:103630002B430C4301210C430383048470BDF8B574
:10364000054608884E888A880B890C4600281DD0BC
:10365000042824D00828288C2AD0704908402884BF
:10366000A88B2F8C31036C4E12023040024318039A
:1036700010436B4AA88317400F43012109030F43EE
:103680002F84E1882846FFF78FFFF8BD3146284692
:10369000FFF7C1FFE1882846FFF7B5FFF8BD3146C7
:1036A0002846FFF79BFFE1882846FFF78EFFF8BD0D
:1036B0005C4908402884A98B288C3702F3261B011B
:1036C000B14313430B435849AB830840FF213843B0
:1036D000013108432884E1882846FFF76EFFF8BDD2
:1036E00000210180418001228280C18001817047D8
:1036F000F8B50C464988002601250746002900D167
:103700000226A288012A00D10225208823890028C8
:10371000384610D0FFF762FFE1883846FFF755FFC3
:1037200023892A4631463846FFF775FFE188384637
:10373000FFF769FFF8BDFFF76EFFE1883846FFF736
:1037400062FF23892A4631463846FFF747FFE18862
:103750003846FFF73AFFF8BD406B7047806B704703
:10376000C06B7047006C7047002A828901D00A4301
:1037700000E08A4382817047818270470246128A44
:1037800000200A4200D001207047C94301827047DF
:103790000246138A002092890B400A40002B02D077
:1037A000002A00D001207047C943018270471143AD
:1037B000403001817047002A828901D00A4300E02D
:1037C0008A438281704708220029818801D01143F1
:1037D00000E09143818070470189C908C9000181D7
:1037E0007047028970239A430A430281704710B5DB
:1037F0000446FFF7F6FF208907210843208110BD0A
:10380000FF8F0000FFF70000FFFB0000FFFD00003E
:10381000FFDF0000FFF30000FF0C0000FFEF0000DF
:10382000FF5F0000FFFE0000FFF5000070B51646C8
:103830000D46044660290CD001223146FFF7EBFE0D
:1038400029462046FFF7CDFF208907210843208124
:1038500070BD01223146FFF7C1FEF1E710B50489C2
:103860001B021343E4B20B432343038110BD10B585
:103870000446FFF7F3FF2089C108C9000720014370
:10388000702081430143218110BD10B50446FFF72C
:10389000E5FF2089012189030843208110BD82882A
:1038A00070239A43828082880A438280704702890B
:1038B000D208D200028102890A430281704702893C
:1038C00080239A43028102890A430281704770B5BE
:1038D0000589048B068CED08ED000D430C4905812C
:1038E0000C40FF2102310C43AA218E4319011143E0
:1038F00031430483018470BD80220029818801D076
:10390000114300E09143818070474030018270474D
:10391000FCFC0000F74910B5884209D101218C0355
:103920002046FFF713FA00212046FFF70FFA10BDDB
:10393000F1498842FBD101214C042046FFF70FFAE0
:1039400000212046FFF70BFA10BD30B50446006891
:1039500087B00D46400840002060606803210903DD
:103960008843A968014361602068E449EA68084027
:10397000696811432A69024311432160A068032149
:103980000902884369690143A1606846FFF738F975
:10399000D848844201D1069800E0029821680904C1
:1039A000296800D5400003F092FD2A6852088A4237
:1039B00000D8401C2168090404D50107D04A490FEA
:1039C00010400843A08107B030BD4B21C901016000
:1039D0000021416081600C22C16002614161704739
:1039E00010B543680F221202934314C922430C6896
:1039F00049680C4322431A43426010BD0021016014
:103A000041608160C16070470029016802D00122D5
:103A1000114301E04908490001607047002A02682B
:103A200001D00A4300E08A43026070470122D203BA
:103A30000029016801D0114300E091430160704703
:103A40000122D2020029816801D0114300E0914394
:103A5000816070470122D2040029416801D01143DE
:103A600000E09143416070470122920400294168BF
:103A700001D0114300E0914341607047002A426841
:103A800001D00A4300E08A43426070470122D2031A
:103A90000029416801D0114300E091434160704723
:103AA0000122D2050029416801D0114300E0914371
:103AB000416070474269120E1206426142690A4330
:103AC00042617047028A120A12020282028A0A4383
:103AD0000282704702220029016801D0114300E0F0
:103AE000914301607047826803231B059A438260FB
:103AF00082680A43826070470122120500294168EA
:103B000001D0114300E091434160704742680323B4
:103B10005B059A43426042680A4342607047C905A8
:103B2000C90D01857047808CC005C00D7047426883
:103B30001202120A4260426809060A434260704754
:103B4000012252030029016801D0114300E0914392
:103B50000160704702680123DB029A430260026839
:103B60000A4302607047426810239A4342604268E9
:103B70000A4342607047426820239A434260426889
:103B80000A4342607047012292030029416801D034
:103B9000114300E091434160704708220029816889
:103BA00001D0114300E0914381607047028AD2B294
:103BB0000282028A09020A430282704720220029F7
:103BC000816801D0114300E0914381607047102269
:103BD0000029816801D0114300E091438160704762
:103BE000826807235B049A438260826849040A431F
:103BF0008260704742691202120A426142690906F4
:103C00000A4342617047826804239A438260826853
:103C10000A438260704702220029816801D0114363
:103C200000E091438160704701229203002981687E
:103C300001D0114300E09143816070478268012305
:103C4000DB039A43826082680A438260704702689D
:103C50001F235B059A430260026849050A4302601C
:103C6000704702681F231B049A430260026809041C
:103C70000A4302607047002A826801D00A4300E0CC
:103C80008A4382607047826801235B039A438260A3
:103C900082680A438260704710B50B041C0E012332
:103CA0008B40022C02D0032C02D002E0001D00E069
:103CB00008300168002A01D0194300E099430160EF
:103CC00010BD002A028B01D00A4300E08A43028320
:103CD0007047826801231B039A43826082680A430B
:103CE000826070470246D26900200A4200D001205B
:103CF000704700000038014000440040F3E9FFFF36
:103D0000F0FF00000162F3E730B50A04130E01254D
:103D10002A4600248A40012B0ED0022B0ED0836845
:103D2000090C1340C0698D402840002B02D00028A8
:103D300000D00124204630BD0368F1E74368EFE777
:103D4000090C01228A400262D2E7000030482F4964
:103D50000160002141608160C1602E49416170476E
:103D600010B583792A490268002B26D00B6893434B
:103D70000B604A6803689A434A60027952181368D4
:103D80000468234313608A6803689A438A60CA6898
:103D900003689A43CA604279102A05D051180A680C
:103DA000006802430A6010BD8A6803681A438A608B
:103DB000CA6800680243CA6010BD007940180168F3
:103DC0009143016010BD0021016001710C2242711C
:103DD000817170470E490A6902430A6170470C4AB3
:103DE0000146526900200A4200D00120704708496C
:103DF00048617047064A0146526900200A4200D0D5
:103E00000120704702494861704700000000940F8C
:103E100000040140FFFF6B0018B50020F94B009033
:103E20009868800601D5012018BDCA205862532029
:103E30005862D868A0218843D86020218C02D868B5
:103E4000009A0840521C0092A24201D00028F6D0ED
:103E5000D868800601D5012000E00020FF215962CA
:103E600018BD18B50020E74B0090D868400612D462
:103E70000020C043D86040210C02D868009A084056
:103E8000521C0092A24201D00028F6D0D868400609
:103E900001D4002018BD012018BD30B50025D94C33
:103EA000CA20606253206062FFF7DBFF002814D055
:103EB00000212160D4486060A068A160D3482061DF
:103EC000E161E162E163CF4840304160E16001605F
:103ED000FFF7A2FF002800D00125FF2060622846DE
:103EE00030BDC848C16880229143C160704770B539
:103EF00005460026C34CCA20606253206062FFF76B
:103F0000B0FF002811D0A06840218843A060A068BD
:103F100029680843A060A86820612069A98809046D
:103F200008432061FFF7DDFF0126FF206062304675
:103F300070BD002101607F214160FF2181607047D9
:103F4000B049002801D0FF2002E0CA204862532077
:103F50004862704770B506460025AA4CCA206062C8
:103F600053206062FFF77DFF00280AD01021A0686F
:103F7000002E01D0084300E08843A060FFF7B1FFA6
:103F80000125FF206062284670BD9E49CA224A6210
:103F900053224A620028886802D02022104301E0A0
:103FA000DF2210408860FF2048627047F8B50C4659
:103FB00000260100934F2078B968324604D04906A4
:103FC0002DD500F044FB2BE0490600D4E27000F050
:103FD00032FB0504607800F02EFB00020543A07858
:103FE00000F029FB0543E07800040543CA2078620D
:103FF00053207862FFF735FF00280CD08448054035
:104000003D60FFF76EFFB868800603D4FFF704FF3A
:10401000002800D00126FF2078623046F8BDE2700B
:104020002078A578000405436078E178000209044F
:104030000843DAE70021C170017041708170704758
:1040400070B503466F480C4602687148114601403E
:1040500088024D04800E20706D0E49066570490E71
:10406000A1705102490E40221140E170002B0AD18B
:1040700000F0EDFA2070607800F0E9FA6070A07846
:1040800000F0E5FAA07070BD5E49886A4968704723
:1040900070B50C460026010060780ED000F0D7FA0B
:1040A000A07800F0D4FAE078A578000405436078A1
:1040B000217800024903084314E0C10603D5EF212B
:1040C00008400A306070E07800F0B5FA05046078C6
:1040D00000F0B1FA00020543A07800F0ACFA054305
:1040E000207840030543474CCA2060625320606239
:1040F000FFF7B7FE00280CD0464805406560FFF783
:10410000F0FEA068800603D4FFF786FE002800D0EA
:104110000126FF206062304670BD01210170817070
:1041200041700021C1707047024610B535480C46F9
:104130004068C021C94301400002000ECB04E0707A
:10414000DB0E63708B069B0E0904490FA370217070
:10415000002A0AD100F07BFAE070607800F077FA6C
:104160006070A07800F073FAA07010BD70B50021E7
:10417000244E0028B068144620D0400635D520785B
:1041800000F065FA207B00F062FA2078A578000440
:1041900005436078E1780002090408430543207B69
:1041A00000060543A068054360680543CA207062A5
:1041B00053207062F561FF20706270BD400600D42C
:1041C000E170207800F037FA0504607800F033FAE7
:1041D00000020543A07800F02EFA0543E0780004C1
:1041E0000543207B00F027FADAE7E170CAE70021F7
:1041F000C170017041708170012281600273416061
:10420000704700000028004001210000FF007F00EF
:104210007F7F7F003FFFFF0070B514460246FB48DA
:10422000C16940258802800E4B0420705B0E6370CC
:104230004B065B0EA3700B0C2B40E3708B009B0EA8
:1042400023732B060B40A360F14B19406160002AD9
:104250000ED100F0FCF92070607800F0F8F9607081
:10426000A07800F0F4F9A070207B00F0F0F9207342
:1042700070BD18B500220092E44BCA225A62532244
:104280005A620029996802D00143996012E0814383
:104290009960000A0124A403D968009A0140521CC5
:1042A0000092A24201D00029F6D0D968014201D182
:1042B000002000E00120FF21596218BDD348CA2325
:1042C00043625323436212060A43D04940314A6095
:1042D000FF21416294E7CD48403040684004400CE3
:1042E0008EE710B5C94ACA235362532353629368B9
:1042F0000124A404A3439360936808430343936099
:10430000FF20506210BDC148806801218904084027
:1043100076E710B5BD4ACA235362532353629368AC
:1043200007242405A34393609368084303439360E1
:10433000FF20506210BDB549CA224A6253224A6228
:104340000122D2050028886801D0104300E0904384
:104350008860FF20486253E7AC49CA224A62532270
:104360004A628A680123DB049A438A608A680243AE
:104370008A60FF20486243E770B50023A34CCA253A
:10438000656253256562E568ED0307D5A514E66807
:10439000F60303D5AB4201D05B1CF8E7E368DB030F
:1043A00004D408431043E063012000E00020FF2113
:1043B000616270BD10B5954B9A68964C22400029F9
:1043C00001D00243D8140243CA20586253205862D5
:1043D0009A60FF20586210BD70B50D468B49144697
:1043E0000B6B8D4A496B1A40C026F643314096024A
:1043F000B60E2E705604760E52066E70520EAA70CD
:104400005A02520E40231A40EA700022E270CA0497
:10441000D20E62708A06920E0904490FA2702170B2
:10442000002817D1287800F012F92870687800F079
:104430000EF96870A87800F00AF9A870607800F0AA
:1044400006F96070A07800F002F9A070207800F002
:10445000FEF8207070BD6D48806BD1E66B4A40005D
:1044600040320029116802D001431160C8E681433F
:10447000FBE7664A40320029116801D0014300E0A1
:1044800081431160BCE6614940310A680323DB02C5
:104490009A430A600A6802430A60B1E65B49403108
:1044A0000A6807231B029A430A600A6802430A60EB
:1044B000A6E6564940310A6803235B039A430A6023
:1044C0000A6802430A609BE6504980224031002876
:1044D000086801D0104300E09043086090E64B4923
:1044E0004031CA130028086801D0904300E010430F
:1044F000086085E6454A08B5503280008018009073
:10450000016008BD414908B5503180004018009055
:10451000006808BD3D4940310A6801239B049A4365
:104520000A600A6802430A606AE630B50022374C26
:10453000CA23636253236362E3681B0707D5A3148E
:10454000E5682D0703D59A4201D0521CF8E7E268CE
:1045500012070AD4A268D20607D40143E162FFF72A
:104560005BFC002802D0012000E00020FF216162F6
:1045700030BD30B5254BCA225A6253225A620425F7
:104580000246224CAA43403428400029996804D0AE
:10459000114399602168014303E0914399602168C8
:1045A00081432160FF20586230BD18490246C96826
:1045B00000201A4B1940114200D0012020E6802132
:1045C0000843C003C00BC3431048C2680A401343EA
:1045D000C36015E670B50D4A00214032126804230D
:1045E0000A4C1A40A368860C0546F540ED0B1540B1
:1045F0000340E2682B4300090240002B03D0100463
:10460000000C00D00121084670BD000000280040C9
:1046100080808080F7F7FFFF7F7F7F00787901003F
:1046200000098021084380B20D4AC343D068084086
:104630000343D360E4E5002103E0491C0A38C9B212
:10464000C0B20A28F9D20907090E0843D8E50109C2
:104650000A2200075143000F4018C0B2D0E5000005
:104660000028004030B5827801240178002A15D056
:104670008B08174A9B009A1813688907C90EFF25F3
:104680008D40AB434578AD072D0E8D401D43156021
:104690000078C006C00E84400E4804E0C806C00E74
:1046A00084400C488030046030BD0B4A00291169F9
:1046B00001D0014300E081431161704704220749A2
:1046C0000428086902D09043086170471043FBE753
:1046D00000E400E000E100E000ED00E000E000E0C8
:1046E00010B501210C072046FEF739FB00212046BA
:1046F000FEF735FB10BD30498A150028086801D047
:10470000104300E09043086070472B4A1168E02393
:104710009943014311607047274910220028086817
:1047200001D0104300E0904308607047224A0029FE
:10473000516801D0014300E08143516070471F4937
:104740000A6904239A430A61012801D020BF7047F7
:1047500030BF7047184B1A689208920002431A60E3
:104760001648026904231A430261012904D020BFBC
:10477000016999430161704730BFF9E70E4802684B
:1047800004210A430260026802231A4302600B48B4
:1047900002690A43026130BF7047074A0146526806
:1047A00000200A4200D00120704703490A688000B7
:1047B00002430A60704700000070004000ED00E016
:1047C000244801688907890F016000218160C16068
:1047D00001614161816982151143816170471D4A00
:1047E000116889088900014311607047194A00293E
:1047F000116801D0014300E0814311607047154A00
:104800000029116801D0014300E081431160704725
:104810008A0710B5120F0F2393408C080D49A4008E
:1048200061188C689C438C608B68904003438B605C
:1048300010BD08498A6902438A6170470549002012
:104840008969C90500D50120704702498A69024378
:104850008A617047000001400168454A11400160CB
:104860000021016041608160C1604249414A0839CC
:10487000904202D148680F2205E03E4A143290422D
:1048800004D14868F022104348607047394A283202
:10489000904203D148680F221202F4E7354A3C32B5
:1048A000904203D148680F221203ECE7314A50329C
:1048B0009042EAD148680F221204E4E730B5036859
:1048C0002D4A0C6A13408A684D6922430C692C43B7
:1048D00022438C692243CC6922434C6A22438C6A6E
:1048E00022431A430260CA6842600A6882604968CB
:1048F000C16030BD0021016041608160C160016123
:1049000041618161C1610162416281627047002938
:10491000016802D00122114301E0154A11400160F3
:10492000704741607047406880B27047002A026853
:1049300001D00A4300E08A430260704701460D4AF5
:104940000020083A12680A4200D001207047094945
:104950000839486070470146064A0020083A126844
:104960000A4200D001207047024908394860704768
:10497000FEFF0000080002400F80FFFF70B50C46EC
:104980000546FB4E17E040213046FDF7EEFF2806B6
:1049900004D580213046FDF7E6FF03E08021304654
:1049A000FDF7E3FF6806050E40213046FDF7DBFF0B
:1049B0000122521EFDD12046641EE4B20028E2D13D
:1049C00070BD70B5EA4C0E46054620212046FDF725
:1049D000CCFF03212846FFF7D1FF08213046FFF71F
:1049E000CDFF02210020FFF7C9FF20212046FDF75F
:1049F000BAFF70BD7CB501218804FEF783F9E02081
:104A0000009001206946087100248C710320D84D64
:104A100048712846FDF747FFE0212846FDF7A3FF30
:104A200001218020FFF7CDFF18218020FFF7C9FF6B
:104A300029218020FFF7C5FF03218020FFF7C1FF58
:104A4000CC4900200C54401CC0B20628FAD37CBDCF
:104A500070B5C74E20213046FDF787FF0321A02007
:104A6000FFF78CFF06210020FFF788FFC14D0024CF
:104A7000E0070FD06008285C0007000E0421FFF754
:104A80007DFF641CE4B21C2CF2D320213046FDF7DC
:104A90006AFF70BD6008285C00090001EEE7002095
:104AA000B44A01461154401CC0B20E28FAD37047D4
:104AB0000020B04AFF211154401CC0B20E28FAD386
:104AC0007047AD4A10B501201346AA493133141876
:104AD000203CE47F1C5D0C54401CC0B20828F6D377
:104AE000042001220B5C13430B54401CC0B2072866
:104AF000F8D310BD70B5A1489F490068C91D0002D8
:104B0000020C01200C469B4D2A340B18203BDB7F06
:104B1000E35C2B54401CC0B20828F6D36421104635
:104B200002F0D5FC205CE87008460A2102F0CFFCB8
:104B3000205C2871924800782018C078A87170BD58
:104B400030B58D4C01228B4B641C0578401C2D5DCB
:104B50009D54521CD2B2082AF7D30120002205E04E
:104B60001C5CFA2C04D11A54401CC0B28842F7D302
:104B70000124072902D0585C20435854814800780A
:104B800005280FD080490978C9070AD0072808D11D
:104B90007E48DA710078022803D1987940084000F5
:104BA000987130BD7A4800780128FAD179480078A8
:104BB0000228F6D1784800780828F2D00B28F0D0E7
:104BC000D8792043D87130BD3EB5022907D06C4654
:104BD000042914D005292CD0032944D046E06F497C
:104BE00004F0B4FB03F0B0FA02460B466CA1684631
:104BF00002F02EFB6A46D0790621907147E003F05F
:104C0000A3FA694A694B03F06BF902F011FD03F056
:104C10009BFA02460B4666A1684602F019FB012189
:104C20000846221852782254401CC0B20728F8D3F4
:104C30002DE003F089FA604A604B03F051F902F06D
:104C4000F7FC03F081FA02460B4659A1684602F0D0
:104C5000FFFA01210846221852782254401CC0B2A3
:104C60000728F8D313E0564904F070FB03F06CFA00
:104C700002460B4653A1684602F0EAFA03210846B1
:104C8000221852782254401CC0B20728F8D3684634
:104C9000FFF756FF3EBD3EB530256C4601291FD0BB
:104CA000022919D13D4904F051FB03F04DFA0246A7
:104CB0000B463BA1684602F0CBFA6946C879887179
:104CC000072106202218203AD27F2254401E0006D7
:104CD000000EF7D1684605706846FFF731FF3EBD0C
:104CE00003F032FA02460B4636A1684602F0B0FAEB
:104CF0000320211849782154401CC0B20728F8D35A
:104D0000042106202218203AD27F2254401E000699
:104D1000000EF7D1DEE7F8B5164C002666702B487A
:104D2000A67000884B21C900074602F0D0FB124D47
:104D30003C213135285CE070384602F0C8FB0F4654
:104D40000A2102F0C4FB685C012108432071384647
:104D50000A2102F0BCFB285C607138460A2102F08F
:104D6000B6FB685CA071E671FFF772FEF8BD00004B
:104D700000040048E40100208B960008A4000020F5
:104D800024000020090000200B0000200A00002061
:104D9000F0000020F2000020F100002000007A4422
:104DA0002530382E31660000217561C26D0FA23F9B
:104DB0002530382E36660000635ED00D1076A03F99
:104DC0000000A0402530382E34660000D2000020BC
:104DD0003EB5FDF7F1FBF84C0021E172A172617262
:104DE000F649884205D90A2102F071FBF44A515C68
:104DF00061720246F3A1684602F02AFA072168466A
:104E0000FFF79EFE3EBD30B5F049ED4A0B780D32FE
:104E10001446D9000120273CE74DC91A89180A1801
:104E2000203A127EA25C2A54401CC0B20828F6D355
:104E3000032B06D0042B03D1E5480078205CE871F1
:104E400030BDE448F9E7DE4910B5283901200C46A9
:104E5000D94B0E340A18203AD27FA25C1A54401C57
:104E6000C0B20828F6D3DC480A220078FA210128CB
:104E700009D0022809D003280BD0042802D19E2093
:104E80009871D97110BD9A71FBE79A71D620D871CB
:104E900010BDBC20F4E770B5C94CCC482934CF49CB
:104EA000007823460978433BC34A01280ED00228E4
:104EB0001BD101201D46153D2E18203EF67F9E5D1C
:104EC0001654401CC0B20828F6D30BE0BC4D01209C
:104ED000363D2E18203EF67F9E5D1654401CC0B213
:104EE0000828F6D3605C185CD07170BDFEB5BC4874
:104EF00001250078002812D0BA48BC4E0278BA4882
:104F0000BB4907683078D21F401CC0B20978002422
:104F1000130004F069F9060724EB86C9F906FFF7C8
:104F200057FF2EE1B3480078C00714D0B04C0229D7
:104F300001D001290FD1B0480021C943006803F016
:104F400025FAA94E394604F0D7F904D22178306801
:104F5000FFF7A1FE15E1A6480178A3488CE1A74818
:104F60000078012829D0A648A64A0068A64E8318D2
:104F7000A64AB34250D201461570384603F00EF9E6
:104F800003F0E2F80022A24B02F00CFD02F05AFFFF
:104F9000A0490860A049884237D9894B01201A3BB3
:104FA0001946854C69390A18203AD27F9A5C2254F6
:104FB000401CC0B20828F6D3E3E0814A01203D3A04
:104FC00014467D4923341318203BDB7FE35C0B54EC
:104FD000401CC0B20828F6D39048D6220478FA20A4
:104FE000230004F001F9060406080A0B0DCECA716D
:104FF000C7E08871FBE70A2200E0BC228A7102E068
:105000000A224A718871C871BBE002466DA16846E8
:1050100002F01EF9072165E01470CBE0FFF7D4FD24
:10502000AFE07F4F06283D70307000D934707D4866
:105030007D4A00687D4B904201DC984200DC3C7068
:105040007B490968914201DC994200DC3C7004F024
:10505000D5F900D23C70734801686348006804F0D9
:105060004BF906D3724801685F48006804F0C6F93E
:1050700005D27048704905700A20087001E06D483B
:1050800004703878012800D065E76A480078012864
:10509000FAD130780328F7D9474901200C54401C35
:1050A000C0B20828FAD36CE06448654B0068654AD2
:1050B0009842B1DB01461570384603F06FF862493B
:1050C00004F044F96149086003F03EF802460B46DB
:1050D0005FA1684602F0BCF8694688794871C879D2
:1050E000887105216846FFF72BFD4AE0374A13789F
:1050F000002B5FD0394A052B127806D2002A06D140
:105100003470FFF780FE3CE028E0002A25D0334BC6
:10511000062A06D0012A17D0032A15D0052A13D053
:1051200048E04D48006803F00FF802460B464BA1DB
:10513000684602F08DF869464879087188794871A7
:10514000C87988710421CDE73070142802D0FFF7A8
:10515000A2FE16E03470521C1A70FEBD1E48007884
:10516000002827D03F480078002807D00128F4D134
:105170003D4802783D48002A12D018E0FFF763FE50
:10518000747018480078012801D00728E5D1184824
:1051900000780228E1D10848C1792943C171FEBDD8
:1051A000334A1278012A02D17278002A62D07278CA
:1051B000012A61D0384631E7E40100207F9698004B
:1051C000D696000825303764000000001B00002040
:1051D0001D0000201C000020EC000020EF0000203B
:1051E0001800002009000020840000209A010020FF
:1051F0000A00002007000020BC000020D80000208A
:105200008800002091ED7CC591ED4408DA00002073
:105210000000E03F8C0000209F860100D9000020A4
:10522000DD000020E0000020000048430AD7233CB6
:10523000E4000020DC000020D000002090000020CE
:10524000CDCCCC3DDB0000200000C8429400002003
:105250002530382E32660000980000202530382E88
:1052600033660000EE000020ED000020E800002082
:105270000C000020076075700068CFE670B5FF492C
:1052800001200D46FE4C4D350A18203AD27FAA5C0B
:105290002254401CC0B20828F6D3FA4800780B28E4
:1052A0001BD00C281BD0F8490A880A21504302F071
:1052B0000EF986B26421304602F009F9285C60716B
:1052C00008460A2102F003F9285CA0710A21304641
:1052D00002F0FDF8685CE07170BDFE2000E0DE20A9
:1052E0006071A071F7E7F8B5E84FE44D3878002217
:1052F0004D35E34CE649012813D0E64E2B465B3B87
:10530000368802282ED003285DD0042808D1487999
:10531000401CC0B24871142802D14A71052038706F
:1053200024E50A71C878401CC0B2C8700528F7D1BE
:10533000CA708878401C8870C0070CD0CF49012003
:1053400015390A18203AD27FAA5C2254401CC0B2F8
:105350000828F6D30AE501202254401CC0B20828D0
:10536000FAD303E5CA700879401CC0B20871052859
:10537000D6D10A718878401C8870C0071CD00120E3
:1053800019182039C97F695C2154401CC0B2082813
:10539000F6D36421304602F09AF8285C6071084622
:1053A0000A2102F094F8285CA0710A21304602F02C
:1053B0008EF8685CE071D9E401202254401CC0B230
:1053C0000828FAD3D2E40A714A7101201918203949
:1053D000C97F695C2154401CC0B20828F6D3D8E7C5
:1053E00010B5AB49C879401CC0B2C871052815D9A1
:1053F0000022CA718879401C8871A149C0070ED06B
:105400009E4A0120D21F134654331418203CE47FD7
:105410001C5D0C54401CC0B20828F6D310BD0120FE
:105420000A54401CC0B20828FAD310BD7FB59A4870
:1054300001789748027A914243D0017200200546D4
:105440006C462554401CC0B21028FAD30801FF3026
:1054500010222146013001F093FC0020401CC0B214
:10546000C828FBD300210846225C401C5118C0B25A
:10547000C9B20F28F8D3684602788848AA2A3BD1D7
:105480006A465278AA2A37D16A46D27B8A4233D1F9
:10549000012101706C468248E27902708148217ACC
:1054A0000170637A207B1B06C018A37AE47A1B0480
:1054B00024021B19C0180B2A04D0082A11D0FFF7A8
:1054C00083FB7FBD02F040FE02460B4676496846EC
:1054D00001F0BEFE694688794871C8798871052156
:1054E00006E0714902468C39684601F0B1FE072199
:1054F0006846FFF725FB7FBD6049057001204631F6
:105500005F4BCC1D0A18203AD27FA25C1A54401C73
:10551000C0B20828F6D37FBDF8B558490120C91D8F
:105520000D46574C46350A18203AD27FAA5C2254C1
:10553000401CC0B20828F6D35C48FA260778BC2283
:105540004E200A213B0003F04FFE091306182E33AC
:105550003A464A501300E670554B21711D78ED1FF5
:105560002B0003F041FE06040618491A081CE171DD
:10557000D6E6E271D4E6F6203EE0E67022714D4AAE
:105580001278130003F030FE060B04050738090BF0
:10559000EDE7BD2030E09E202EE0D6202CE0E42078
:1055A000A0717A2028E0E6709E202071424802E037
:1055B000E670207141480078C007DAD1D7E7E6707D
:1055C000D62020713E480A21007801F080FF285C37
:1055D000A071685C10E0E670F621217103E0E670CE
:1055E0008A202071F620A07106E0E670FE2020716E
:1055F0003448A6710078285CE07191E610B5324815
:105600000078030003F0F0FD061304070A0D1013E1
:10561000FFF782FF10BDFFF731FE10BDFFF763FEFD
:1056200010BDFFF7DDFE10BDFFF700FF10BD2748DE
:105630000078012806D026480078012805D0FFF719
:1056400055FC10BDFFF73DFA10BD0C4901201C3977
:105650000C460B4B69340A18203AD27FA25C1A54CC
:10566000401CC0B20828F6D3124800780228EBD1BB
:10567000D87901210843D87110BD00006F96000849
:10568000E4010020140000202C000020170000205E
:105690009A0100202E000020F3000020F0000020DE
:1056A000F1000020F200002050520008D500002038
:1056B000D60000200A000020200000200B0000205F
:1056C0002700002026000020090000200D000020F7
:1056D00000000020FEB5FF480224007801286CD0AD
:1056E000FD480078022868D0FC4900270978FC4E64
:1056F000FC4D012926D0052826D0FB48A1050068CD
:10570000FA4B421AFA499A422ED20F70F949097897
:10571000C9070BD0F84903F019FEF84902F03EFD25
:10572000F74903F0A3FDF749884210DA02F00CFDB7
:1057300002460B46F4A1684601F08AFD6946C87826
:1057400088700CE0F24800E0F248027802E002F0D3
:10575000D5FD0246F0A1684601F07AFD00246846B6
:105760000078202818D008E0012008703A20694607
:1057700008703B2048708870002468460078405DBF
:10578000F072694648788023405DB0728978022CB7
:10579000495D717202D003E0F772F2E71843B0720C
:1057A000D448CE4A00781278C007104305D1CA48C1
:1057B0000078052801D019437172FEBD00B5C84AB2
:1057C0000300117A03F010FD060D040406080A0D0B
:1057D000102004E0042002E0082000E088200143BB
:1057E000117200BDF0B5BB48007801281DD0BC4D3A
:1057F00001202870CA480078C00701D00320287013
:10580000C84880260078012802D1287830432870C3
:10581000B14A10241178022904D0B5480078012833
:1058200004D007E0287A20432872F0BD28780423AA
:10583000184328704027042902D0032903D006E02A
:105840002878384302E02878202210432870B64890
:105850000378042B02D1287820432870B34801290B
:10586000027805D1B248062A007804D0072A02D06F
:10587000062B06D009E00128FAD1287820432870A9
:10588000F6E728780823184328700020994B2872DF
:105890001B78DB0703D0914B1B78002B02D0052926
:1058A00005D008E0052902D00120287203E0A14BB1
:1058B0001B78012B0CD0A0480B00007803F094FC5F
:1058C0000D2A1B2A2A2A2A2A281E282824282A00A8
:1058D0009A490978C91F0B0003F086FC0604071CCF
:1058E0000409041C9648007812E0384301E00221C4
:1058F000084328720EE0022A0AD00BE09149097889
:10590000012905D1287AF0E78F49097801290AD0C1
:10591000FFF754FF0021704829730078052804D050
:10592000012808D00BE0287AE1E7824A1278012AA0
:1059300005D1824A0DE07D4A1278012A08D002463C
:10594000D21F130003F050FC0607090B0D12140FB1
:105950007E4A1278F4E72E7305E02F7303E02022CD
:1059600000E008222A73052804D007E00422F9E7A2
:105970000222F7E72A7B01231A432A73574F3A780A
:10598000012A0BD12A7B724B22432A735A7A521C6A
:10599000D2B25A72062A01D15972397069736D49AF
:1059A00003281DD004281BD00A78002A01D1202208
:1059B0006A730A2814D168480078012806D00228A2
:1059C00007D066480078012806D009E0687B2043AC
:1059D00005E0687B304302E0687B902210436873E7
:1059E0005F480078012800D01FE70878012805D01B
:1059F0000028F9D1687B20436873F0BD687B304391
:105A0000FAE7FEB53749012029390D46344C3F35B8
:105A10000A18203AD27FAA5C2254401C80B208287F
:105A2000F6D3FA20414FE07038782918497821716F
:105A30000B2801D17620207100F0E1FC86B2387885
:105A400000280AD00B281BD009282BD0207AEF2160
:105A500008402072A85DE071FEBD6421304601F06F
:105A600036FD285C607108460A2101F030FD285C93
:105A7000A071FA20E071207A102108432072FEBD47
:105A80006421304601F023FD285C607108460A213C
:105A900001F01DFD285CA0710A21304601F017FDC0
:105AA000685CD8E72F48006802F04EFB02460B46C0
:105AB0002DA1684601F0CCFB69460A4809781A38DE
:105AC000095C617069464978095CA170694689780A
:105AD000095C4DE00D00002009000020230000209B
