:020000040800F2
:10000000380A0020556B00087B6B00087D6B0008E8
:1000100000000000000000000000000000000000E0
:100020000000000000000000000000007F6B0008DE
:100030000000000000000000816B0008836B0008D6
:10004000856B0008000000001D6A0008856B000831
:10005000856B00085D660008856B0008856B0008ED
:1000600000000000856B0008856B0008856B0008A8
:10007000856B0008856B0008856B00080000000098
:10008000891900080000000000000000856B0008CE
:10009000856B0008856B0008856B0008856B000880
:1000A000856B0008856B0008856B0008856B000870
:1000B000856B000800F002F800F047F80CA030C88B
:1000C000083824182D18A246671EAB4654465D46D4
:1000D000AC4201D100F039F87E460F3E0FCCB64657
:1000E0000126334200D0FB1AA246AB4633431847E1
:1000F0001094000030940000002300240025002606
:10010000103A01D378C1FBD8520700D330C100D5D3
:100110000B60704710B5662902D108F06BFF10BD67
:10012000642902D106F038FE10BD002010BD1FB5B5
:10013000C046C04608F07AF904000020002108F00B
:10014000E7FDE0601FBD10B510BD08F0D1FC114601
:10015000FFF7EDFF01F009FB08F0E9FC03B4FFF73E
:10016000F2FF03BC08F05EFDF8B5FF4F0446012125
:10017000384602F0EAFAA04225D0FC4D0020FF21CB
:1001800028640131384602F0F2FAFF269136002049
:10019000401CC0B26428FBD30121384602F0D5FAD6
:1001A000286CB04205D00121384602F0CEFAA042B8
:1001B000EDD1FF210131384602F0DBFA286CB04264
:1001C00001D10120F8BD0020F8BDE848E749006AE8
:1001D00080390002000C962801D2642002E0FA283F
:1001E00003D2C820088548857047FF225F329042BD
:1001F00002D2FF202D30F5E7FF22C332904202D217
:10020000FF209130EEE7FF20F530EBE7D7480021E3
:100210008038C171C1720122027341758175817488
:10022000052343730723037242728173C173017400
:10023000CE4A01655160D1600422C2760277C18442
:1002400041778177704708B504226946782006F027
:10025000FFFA0020401CC0B2C828FBD36846C3493F
:10026000C0788039AA2809D16B465A7818789B78CB
:1002700012189A4202D1C007C00F00E00020487057
:1002800008BD704770B5B948B84C6038C078850073
:10029000B74840592063B6480C3040596063206A23
:1002A0000002000C07F0D6FDB1490646183949593D
:1002B00008F044FDA663E063AD480C38405907F0F0
:1002C000C9FD314608F0AAFD07F080FD1221414327
:1002D0004908A162606236214843E06270BD1FB5E3
:1002E00008226946602006F0B3FA00207D21C9008B
:1002F000401C8842FCD3684601789C48603800293D
:1003000009D06A46D278AA2A05D16B465A789B78DA
:1003100052189A4200D00121417104B010BD7FB53E
:1003200010226946502006F093FA00207D21C90072
:10033000401C8842FCD36846C1798C480122803831
:10034000AA2908D16C4663792179A4795B18A34264
:1003500001D1417200E042726946C97A0023AA299C
:1003600008D16D466C7A297AAD7A6418AC4201D115
:10037000C17700E0C3777D496039C978002904D08E
:100380006946C97BAA2903D00BE0827204B070BD14
:100390006C46627B217BA47B5218A24201D1817200
:1003A000F4E78372F2E7F0B585B0704C714D10221E
:1003B00069467020256206F04BFA00207D21C900B5
:1003C000401C8842FCD36846C078AA280DD16B46F1
:1003D000597818789B780A189A4206D1228C090419
:1003E0000002D2B20818104320626846C079AA28D9
:1003F0000CD16A465179107992790918914205D148
:100400005C4A216AFF3A114008432062206AA842F0
:1004100001D159482062FFF7D8FE6846534CC07B93
:10042000803C0025AA280AD16A46517B107B927B2A
:100430000918914203D1C007C00FA07000E0A57059
:100440004E4E0020401CB042FCD300206F463D546D
:10045000401C1028FBD310223946802006F0F8F902
:100460006846C1780120AA2908D16A4651781378D4
:100470009278C918914201D1E37000E0E0706946BA
:10048000C979AA2908D16A46517913799279C9188C
:10049000914201D1237100E020716946C97AAA29ED
:1004A00008D16A46517A137A927AC918914201D1D9
:1004B000637100E060716846C07BAA2808D16A4673
:1004C000517B107B927B0918914201D1A07100E011
:1004D000A5710020401CB042FCD300203D54401CBC
:1004E0001028FBD304226946942006F0B1F96A462D
:1004F000D1781078090640189178527809041202D0
:100500008918401819491E4A4839086080181D4A40
:10051000904201D31C480860FFF7B4FE05B0F0BD5F
:10052000FEB508226946102006F092F900207D21D0
:10053000C900401C8842FCD36A461178D07809066D
:10054000401851789278090412028918074F45180B
:10055000803F6A467D641179D07909064018517947
:1005600092790904120211E0000400488000002082
:100570001C900008FFFFFF0001C8000040E20100DE
:1005800000004CBD010028000000D8428918441822
:10059000384612268030A5421CD1816A8D4219D975
:1005A000FD498D4216D2416A284606F0F8FCC4B2D5
:1005B0003C76284607F04EFC014638468030806B7A
:1005C00007F054FB78670120641FF8752E2C1DD3AB
:1005D0003E761BE0816A8C421AD9C16A8C4217D2DE
:1005E000EE487C64416A204606F0D9FCC5B23D76EF
:1005F000204607F02FFC0146E848806B07F036FBE9
:10060000786701206D1FF8752E2DE1D20120FEBD07
:10061000E34878643E76E34878670020F875FEBDCD
:100620001FB510226946002006F012F900207D2136
:10063000C900401C8842FCD36B461978D87809065B
:10064000411858789A7800041202801808181A790C
:10065000D979120689185A799B7912041B02D2188B
:100660008918CE4A803A884207D1CF4B984204D9A4
:100670009B00984201D2D06307E0CB48CB4BC043EC
:100680000818984205D20846D163002803D00120FB
:1006900043E60020D06300203FE61FB510226946E4
:1006A000082006F0D5F800207D21C900401C8842B2
:1006B000FCD36C462178E078090640186178A2786E
:1006C00009041202891840182279E17912068A1861
:1006D00061790B04A179090259185118AF4A002316
:1006E000803A884207D1B04CA04204D9A400A0426D
:1006F00001D2106407E0AC48AC4CC0430818A042DB
:1007000006D208461164002803D00120D07504E603
:100710001364D375002000E6F8B5A04CA44E803CCD
:10072000217D012909D00021084661658200401C15
:10073000C0B2B1500A28F9D3F8BD0A2106F02FFC47
:1007400007F088FB60659A4F0024303F0090A500B9
:10075000E81940687959401A07F07CFB0146009877
:1007600007F084FA641CE4B270510A2CEFD3F8BD90
:10077000F8B58A498039CD6BA8424DD38C49874B57
:100780003039803B8A6A401B5E6D824218D2801AE3
:1007900007F060FB8649496A08F040FB07F016FB4A
:1007A00007F058FB04468349304608F037FB0646FD
:1007B000284607F04FFB314608F0C0FA214627E0F3
:1007C0000124A2008A58824202D8641C0B2CF8D360
:1007D000A70079188039C96F401A07F03BFB7449AC
:1007E00079188039C96F08F019FB07F0EFFA07F0A4
:1007F00031FB0746601E07F02DFB314608F00EFB6B
:100800000446284607F026FB214608F097FA3946A9
:1008100008F094FA07F0DAFAF8BDF0B5644F5F4ECD
:10082000303F3869803E43085908B3664808F1668E
:100830003067B8680022984201D2B26501E0012415
:10084000B465181A00D5404230667C68B56D8C429C
:1008500003D2002D0AD10C1B02E0012D06D1641A2F
:100860004508A54202D2641BF46500E0F265591800
:10087000FB68B46D8B4208D2002C04D1C91A07E082
:10088000081A7066F0BD7266F0BD012CFBD1591AD2
:1008900040088842F7D2F3E7F1B5404890B080387D
:1008A0001099C06B814202D2084611B0F0BD0F1AF8
:1008B0003F483A493038803900698A6D0E920D6E92
:1008C000C96E0091B84226D23F1A084607F06DF86B
:1008D000394A3A4B06F0CEFD04460E46284607F04C
:1008E00064F82246334606F0F1FD04460D463846CC
:1008F00007F05BF822462B4607F05AF806F000FC9A
:100900000E99002904D007F061FA10994018CCE73D
:1009100007F05CFAD0E000200190044602901F48E6
:100920008038016F0D91416E0C91C16D0991866EF9
:10093000284607F03AF80546F01B0490039130462C
:1009400007F033F81C4A1D4B06F094FD0B46024697
:100950002846039906F0BAFD0791069006E0002CA0
:1009600004D0012C2CD0022C60D160E00498002827
:1009700000DA4042321A00D552420799069D1046CD
:10098000039107F012F82A46039B07F011F806F0CE
:10099000B7FB0590049D46E080F0FA02800000203D
:1009A00000512502DC69BA36C0C62D003F548900CB
:1009B0001802002000002041295C8FC2F528F03F7A
:1009C0000098451B01D4284600E068420099081AA7
:1009D00000D540420390B742084609D906F0E5FF2A
:1009E000FD4AFE4B06F046FD0A900B910C9808E07C
:1009F00006F0DBFFF84AF94B06F03CFD0A900B913C
:100A0000099806F0D2FF0B9B0A9A06F05FFD0A9048
:100A10000B91039806F0C9FF0B9B0A9A06F0C8FFDA
:100A200006F06EFB0190002D36DA6D4234E00D9831
:100A3000401B00D540420D99081A00D54042039052
:100A40000098B74209D906F0B0FFE34AE34B06F03D
:100A500011FD0A900B910C9808E006F0A6FFDE4A03
:100A6000DE4B06F007FD0A900B91099806F09DFFFA
:100A70000B9B0A9A06F02AFD0A900B91039806F048
:100A800094FF0B9B0A9A06F093FF06F039FB0021B6
:100A9000C94307F0E3F90290641C032C00D25EE71F
:100AA0000199059808F04AF9029908F047F907F00A
:100AB0008DF90E99002902D01099081AF5E61099BF
:100AC0000818F2E6F0B5C64D85B0002420012030AC
:100AD00080B21022694605F0BBFE00207D21C900CE
:100AE000401C8842FCD300206E46A700820091196A
:100AF000B25CCB7812069A184B7889781B040902ED
:100B0000591851183A189200401CA9500428EDD3E6
:100B1000641C022CDAD3002108468200AA58401C2B
:100B200051180528F9D36A69AE488A4205D10121D6
:100B30000175FFF772FE0120F0E4002101750846FF
:100B4000ECE4F0B5A64D85B000242001203080B241
:100B50001022694605F07CFE00207D21C900401C62
:100B60008842FCD300206E46A70082009119B25C37
:100B7000CB7812069A184B7889781B040902591809
:100B800051183A189200401CA9500428EDD3641C57
:100B9000032CDAD3002108468200AA58401C5118C1
:100BA0000B28F9D3EA6A8F488A4206D101210175E0
:100BB000A86AFFF7B1FD0120B0E4002101750846E5
:100BC000ACE41CB50020044669460C54401CC0B27D
:100BD0000828FAD30822500105F073FE0020401CBB
:100BE000C0B2C828FBD37F482030047044701CBDBD
:100BF0001CB508226946500105F02AFE00207D211F
:100C0000C900401C8842FCD36B461978D878090685
:100C1000411858789A7800041202801808181A7936
:100C2000D979120689185A799B7912041B02D218B5
:100C30008918421C01D14A1C01D0884202D0FFF71A
:100C4000C0FF1CBD674C64212034207006F0A7F95A
:100C500061701CBD70B5FFF7D9FAFFF7C9FFFFF748
:100C6000A2FB00207D24E400401C80B2A042FBD304
:100C7000FFF755FB0020401C80B2A042FBD3FFF7DA
:100C800060FF0020401C80B2A042FBD3FFF7C8FCED
:100C90000020401C80B2A042FBD3FFF741FC0020A3
:100CA000401C80B2A042FBD3FFF7F7FC0020401CA1
:100CB00080B2A042FBD304F0F6FEFF24C3344A4DB9
:100CC00000262878002806D02E70641EA4B204F0F6
:100CD00077FE882802D0002CF3D103E0002C01D04D
:100CE000012070BD002070BD3E490120887370470F
:100CF0003C490120C87370473A4901200874704785
:100D000038480021417507210172704710B53548F8
:100D100000214175072101720120FFF725FA3149B1
:100D20002031087110BDF0B52E4A85B0116C411A02
:100D300000D549422B4A2A4FD27C5C37130007F07A
:100D4000BBFF0C072323232323232323232335340F
:100D50000025244C3D60E063E562030E6E4620648E
:100D60003370020C7270010AB170F07033717271DD
:100D7000B171F07108226946002005F0A2FDE07C07
:100D8000401CE07465760EE0164BD86A81420CD99F
:100D9000164C081AA04208D99000D9623950521C4A
:100DA000DA740020587601F01BF9C5E600208100B6
:100DB0000B4A401C7B58C0B253500B28F7D300217C
:100DC00008468200BA58401C5118C0B20B28F8D30C
:100DD00000246D46F9620BE0295C8FC2F528F03FD4
:100DE000E80100200000002005010020804F1200D3
:100DF0000020A60031188900795882000B0EAB54F0
:100E00000B0C521953700B0A9370401CD1700428BC
:100E1000F0D3200110226946203005F052FDF84938
:100E20000020401C8842FCD3641CE4B2032CD2D3C3
:100E3000F44C0020A07401202075F348806AFFF76D
:100E40006BFCE07C401CE07476E6F0B5ED4C85B0C0
:100E5000216C411A00D54942E27CEB4F00255C37FA
:100E6000130007F029FF06041D1D1D1D2D2C3D60DC
:100E7000E0632563030E6E4620643370020C7270CB
:100E8000010AB170F07033717271B171F0710822A2
:100E90006946002005F015FDE07C401CE0740BE085
:100EA000206B81420BD9D94B081A984207D9900080
:100EB00021633950521CE274657601F091F83BE6EB
:100EC000D14A00208100401C7B58C0B253500528F5
:100ED000F8D3002108468200BA58401C5118C0B20D
:100EE0000528F8D3002528466B46AE0079613118F5
:100EF0008900795882000C0E9C540C0CD218547046
:100F00000C0A401C9470C0B2D1700428EFD32801A1
:100F100010221946203005F0D4FCFEE7FEB5B94C8E
:100F20000025A17D2246D37A012910D0126C022916
:100F30002DD0032932D0042908D0052906D16575A2
:100F400007202072204680308169C161FEBD012BDF
:100F5000FCD1AF498842F9D989008842F6D225658B
:100F6000030E20646D462B70020C6A70010AA97092
:100F7000E8702B716A71A971E87108226946104600
:100F800005F09FFC01F02CF8A07D401C04E0A14975
:100F900051188842DAD90320A075FEBD012BFCD17F
:100FA0009D498842F9D989008842F6D2801A606347
:100FB00006F0FBFC0022994B06F05CFA06460F4651
:100FC000608D06F0F2FC32463B4606F07FFA06F0F2
:100FD00097F88C4F014680376067B86B06F046FE85
:100FE00006F0F4FE60640646796A05F0D8FF2076C4
:100FF000330E6F463B70320C7A70310AB970FE7056
:101000003B717A71B971FE7108226946102005F0B2
:1010100058FCA07D401CA0756563FEBDFEB5794CF3
:101020002546A17DEB7A2035012913D02246794E41
:10103000126C022927D027468037032928D004299B
:1010400062D0052905D10020607507202072B8699B
:10105000F861FEBD012BFCD16D498842F9D98900A8
:101060008842F6D2206400202065FFF77DF82871C1
:10107000012805D0A07D401CA07500F0B1FFFEBD89
:10108000FFF73EFEFEBD91198842FBD9032039E0EF
:10109000012BF7D1B042F5D961498842F2D2801ACA
:1010A00006F083FC00225D4B06F0E4F90546554846
:1010B0000E463830006806F0AFFD2A46334606F08B
:1010C00005FA06F01DF801466067B86B06F0CEFD24
:1010D00006F07CFE60640546796A05F060FF2076C4
:1010E0002B0E6E4633702A0C7270290AB170F5709F
:1010F00033717271B171F57108226946102005F0E3
:10110000E0FB07E0A075FEBD0120FFF72DF8287178
:101110000128B5D0A07D401CF4E7F1B53948203056
:10112000C07801283FD13748007901283BD13D499B
:10113000009807F073FE06F049FE3B4905F02FFFCB
:10114000394A881ED21E90422DD2384C384D04297F
:1011500005D2009806F060FD22462B4608E0354E89
:10116000354F062907D2009806F056FD32463B4619
:1011700006F08BF914E02C48001F814205D9009835
:1011800006F04AFD22462B4608E02748801F814290
:1011900009D9009806F040FD32463B4606F06AF950
:1011A00005F0AEFFF8BD0098F8BDFEB501F0E4F81B
:1011B000144D0446A87C012805D1E87A012802D103
:1011C0002046FFF7B0FD287D012806D16879012867
:1011D00003D12046FFF7CCFA0446687D012805D1EB
:1011E000287A0428204607D0FFF798FE1348EC64BD
:1011F0000078012824D029E0FFF710FFF6E700006F
:10120000801A060000000020E80100207038390034
:10121000C0C62D0080969800C0E1E4000000E03FC9
:101220000087930300401C46102700002D431CEB51
:10123000E2362A3F613255302AA9333F2D01002082
:10124000286D002802D1204600F0CCFFE048E04F96
:10125000007B0025803701281BD1DD49C87A012891
:1012600017D1487B401E0006000E487311D1084676
:101270000573016C406C661A052105F090FE002E86
:1012800000DA7642B04201D9D1480464D048006CFB
:101290007864CF48807B012810D1CD488573796C64
:1012A000406C661A8000642105F079FE002E00DA99
:1012B0007642B04202D9C64805650464C44EF07B4C
:1012C000012805D1306C844202D9F573B06C3065C9
:1012D000306C201A00D54042BE490978012901D15D
:1012E00000F09AFFB064F07D0128B06C04D006F0E5
:1012F000B1FDF0673860FEBD06F0ACFD716F019185
:1013000007F08CFDF0670090306D06F0A3FD0199A9
:1013100007F084FDB06701462046326C01249042FC
:1013200004D27574009807F009FD0CE0009807F0EE
:101330004BFD03D27574F16FB06F02E07474B16F3E
:10134000F06F07F0EFFDA2492031C97800291BD0CA
:1013500006F062FCA04AA14B06F08CF805F0D0FE26
:10136000FFF7DBFE3860796B07F02EFD00D23D60A1
:10137000F96B386807F0AAFD04D3F96BF06F07F03A
:10138000A5FD06D23470FEBD06F046FC944A954B8E
:10139000E2E73570FEBDF0B58D4985B0487C002888
:1013A0007ED0C87A00287BD0AA206A461070507080
:1013B00000279770D770177157719771087AD0719D
:1013C000497A117282498031082803D00B2803D052
:1013D000086802E0886800E008691546010E51724D
:1013E000010C9172010AD172107357730021977327
:1013F00008462A5C401C511880B2C9B20F28F8D3A5
:10140000734CE9732034607810220001FF302946C4
:10141000113005F056FA744E0020401C80B2B042E4
:10142000FBD300202F54401C80B21028FAD36078E0
:1014300010220001FF306946113005F009FA002042
:101440007D21C900401C80B28842FBD300210846A0
:101450002A5C401C511880B2C9B20F28F8D36846E4
:10146000C07B88421CD12078401CC1B221706078BA
:10147000401CC0B26070642800D167706846077075
:1014800047708770C170077147718771C1710822F9
:101490006946500105F015FA0020401C80B200E0BA
:1014A00003E0B042F9D30120A0707EE47FB5484943
:1014B00007200872012500204D72C877887269469E
:1014C0000D714871421C8A71AA24CC71087248724D
:1014D0008872CC72087348738873CC7310225020C2
:1014E00005F0EFF93A490020404A2031401C4D7187
:1014F0009042FBD369460D704C70AB208870CC7065
:101500000422602005F0DDF9FFF75BFB7FBDF3B53A
:101510002F49374D887E0C46364F803481B00128E4
:1015200004D0022836D034486061FEBD087F8100B7
:101530003248405806F070FB2D4A3B4605F0A5FFA7
:1015400006460D460299019807F0ECFC0146009012
:10155000019806F08BFB06F05FFB32462B4606F047
:1015600027FA234A3B4605F085FF05F0C9FD2946C9
:10157000354660610E46009806F04EFB2A4633461B
:1015800005F0A4FF1E4A1F4B06F012FA05F0B8FD45
:10159000A064FEBDC87E194980002439095801980D
:1015A00006F064FB06460299019807F0BBFC314641
:1015B00006F05CFB06F030FB114A124B06F0F8F91E
:1015C0002A463B4605F056FF05F09AFDACE70000C1
:1015D000000000202F0100202D431CEBE2360A3FC3
:1015E000FCA9F1D24D62403F204E000087D6120088
:1015F000613255302AA9533F719CAD47589000087D
:10160000ADFA5C6DC5FEEF3FB1480025B14EB24F5B
:1016100005703078012804D1357000F07AFDFFF7AD
:10162000C4FD3878002804D03D7004F0C9F904F0F6
:10163000F7FEAA480178002904D0057004F01EF9CD
:1016400003F00AF9A6480178002902D0057004F0D9
:101650002BF9A44801780029DBD00570641CE00751
:1016600002D000F0E3FFD4E700F0CAFFD1E79E4FBD
:10167000002498480178012904D1047000F049FD44
:10168000FFF793FD94480178002904D0047004F01A
:1016900097F904F072FC91480178002908D0047091
:1016A00092480078002803D103F055FE03F0D4F8E7
:1016B0008B480178002912D0047000F050FF80B2EE
:1016C00000F0F4FD8A4907F02DFC8A49086087483C
:1016D0000078002803D103F075FE03F03BFF81483A
:1016E0000178002908D004706D1CE80702D000F0D2
:1016F0009DFF01E000F084FF7F4801780029B8D009
:1017000004703E687B48761C3E6001687B48006838
:1017100007F008FC06F080FA05F010FC052803DD50
:1017200077480078012806D076480470764801781A
:10173000012904D006E0734901200870F6E7282E3D
:1017400000D9047071480078012801D100F08EFAA8
:10175000E1213868C90088428BD9694901200870A5
:10176000644801686548016083E708B5C82000F057
:10177000F1F805F0C5F903F041F800F0FDFE00F0C6
:1017800014FF00F025FF04F0EBF805F000F8FEF779
:10179000A6FD00F097F900F036FB04F0A3FE04224A
:1017A0006946742005F054F80020401CC0B2C828D7
:1017B000FBD36846C078564DAA2806D16A465178B0
:1017C000107892780918914200D0012028700020EA
:1017D000694604460C54401CC0B20428FAD30422C3
:1017E000902005F035F80020401CC0B2C828FBD37B
:1017F0006846C0784749AA2808D16B465A781878B5
:101800009B7812189A4201D1087001E020460C70B2
:10181000C0B20C2148434049401829788900405AF9
:101820003E49088000F032FE3D490020401C8842BD
:10183000FCD300F0EDFEE1203A4DC00007262880E1
:10184000360203F02CF92888B04201D100F0F6FEF0
:1018500004F0B6F82988002902D08128F1D105E0EA
:1018600004F0AEF801280CD08128F9D100F0D0FEA8
:1018700003F022F8FEF7E7FC2B480078002804D09C
:1018800008E02A490A200870F0E72949FD22087873
:101890001040087002F0E0FFFFF7DCF9C5B203F07A
:1018A00002F8012D11D003F029F802F0D5FF0B4901
:1018B00014200A78002A02D00C70401EC0B2002802
:1018C000F7D102F0F0FFFFF7D2FEFFF79DFE000018
:1018D000FD000020D30000200501002006010020AB
:1018E000070100200A01002000010020070000205D
:1018F0000000E040980000200B0100209C00002028
:101900001D0000201E0000200C0000200B00002005
:1019100023000020CD0000207C900008F000002073
:1019200039300000CE00002001000020CC00002053
:10193000D801002008B50121022001F0F9F810209B
:10194000694608700020487001208870684602F0DF
:101950008DFD08BD3EB50446FFF7ECFF01942F2135
:101960006A461180002010814C4C50806946204608
:1019700001F08EFA01221146204601F0F9FD012105
:10198000204601F0F6FA3EBD70B5444C01212046D8
:1019900001F002FE012803D10121204601F008FEDA
:1019A0003F4CA068401CA060052868D30026012594
:1019B000A6602571E068401CE060E0683949884213
:1019C00000D9E6602069411C2161052801D3266108
:1019D00025706069401C606160690A284FD36661A8
:1019E000657031480168491C016003F0DBFF03F0BA
:1019F000EAFFA069401CA061A0690A283FD3A66144
:101A0000A570E069401CE061E069032801D1E6614E
:101A1000E570206A401C2062206A05282FD32662C8
:101A2000A571606A401C6062606A022827D3666202
:101A3000E5711E4800780C2809D11D48007801285E
:101A400005D11C490878002801D0401E08701A49A9
:101A50000888401E088019490888401C80B2088008
:101A6000E121C90088420AD1154C2078002806D10E
:101A700002F019FF02F0F0FE257000F0DFFD70BDEE
:101A80000748C06870470649002204E04B79002BE4
:101A900001D04A71401E0028F8D170470004004070
:101AA0000401002060EA0000C000002008000020BF
:101AB000EA000020E9000020CE00002026000020DF
:101AC0000700002070B5012188B0480401F01EF81D
:101AD0000121880301F023F80921CE0601223046B6
:101AE00000F051FE01220A21304600F04CFE032591
:101AF0006D02022069460695087700248C77012044
:101B0000C8770320487706A9304600F0D0FDF24898
:101B10000078012808D0022809D003281CD0042806
:101B20001DD0E120400204E04B20000101E04B20E9
:101B3000400100900120000301A931C105940C204F
:101B4000E64C04906946204601F003FE0121204640
:101B500001F05EFE08B070BD4B208001E9E74B202C
:101B6000C001E6E7DD49CA691206FCD5DB49203130
:101B70000881704730B50D460446002305E0207803
:101B8000641CFFF7EFFF5B1CDBB2AB42F7D330BD49
:101B900000B5034602E05B1CFFF7E4FF187800285D
:101BA000F9D100BDCD48C1698906FCD5CB482030AC
:101BB0008088C0B2704730B58DB06B467E201870FB
:101BC0007F2058700120987002210022D9701A716C
:101BD0005A719A71DA7119725A721C469A72EA2015
:101BE000E072EB2020730D2102208C1E03E01D5CAF
:101BF000AA1892B2401CA042F9D35A54100A491CA8
:101C000058541846491CFFF7B5FF0DB030BD1FB53D
:101C1000B3480078002801D02B2000E02D20694631
:101C200008702024684644708470C47004712E21AA
:101C300041718471C47104724472AA48006805F04D
:101C4000EBFF02460B4600A8A7A1023005F068F89A
:101C5000684684726721C172047344730D218173D5
:101C60000A21C1731021FFF785FF1FBD1FB5412059
:101C70006946087020244C7099488C7000780028C0
:101C800001D02B2000E02D20C8700C714C7108464B
:101C90008C712E21C171047244728472C472914895
:101CA000006805F0B9FF02460B468FA101A805F0B8
:101CB00037F868460473672141730D2181730A2147
:101CC000C1731021FFF756FF1FBD00B51B20FFF7A2
:101CD00049FF3620FFF746FF00BD00B51B20FFF788
:101CE00041FF3720FFF73EFF00BD30B585B000F063
:101CF0009DF87FA0FFF74CFF79486C4600780028DC
:101D00000CD020207D4D20702878764908380300BB
:101D100006F0D2FF05060D3A28313A002D20F1E7F2
:101D20007749601C0A6877A104F0FAFF03E076485F
:101D300022E004F0F5FF0020694648726846FFF78C
:101D400027FF2878082827D0092827D00B2827D054
:101D50006E480078022825D0032827D0042823D0F5
:101D60006BA024E06B48006805F056FF02460B4666
:101D7000601C69A1DDE76A48006805F04DFF024676
:101D80000B46601C67A1D4E7086805F045FF0246D2
:101D90000B46601C54A1CCE764A008E065A006E0F7
:101DA00066A004E066A002E066A000E066A0FFF77F
:101DB000EFFE0A20FFF7D6FE05B030BD10B586B0A5
:101DC00000F03CF800F068F8FFF78FFF5FA0FFF726
:101DD000DFFE01206A465F211154401CC0B2142866
:101DE000FAD300241046D473FFF7D2FE0A20FFF77F
:101DF000B9FE0A20FFF7B6FE0A20FFF7B3FE5648E9
:101E0000047006B010BD00B51B20FFF7ABFE4020EC
:101E1000FFF7A8FE1B20FFF7A5FE6320FFF7A2FE39
:101E20000020FFF79FFEFFF750FF00BD00B51C200C
:101E3000FFF798FE2E20FFF795FE00BD10B51B2082
:101E4000FFF790FE5620FFF78DFE0220FFF78AFE77
:101E5000FFF7ECFF414830220088C1B25143404AAD
:101E60000004000E891880000858FFF791FE3D48D5
:101E70000078002808D03CA0FFF78AFE0A20FFF770
:101E800071FEFFF7D3FF10BD1C20FFF76BFE26206D
:101E9000FFF768FE39A0EFE700B53BA0FFF778FE3B
:101EA000164800780838030006F006FF0504060807
:101EB0000A0C0E0037A008E039A006E03CA004E0C0
:101EC0003EA002E041A000E043A0FFF761FE0A202F
:101ED000FFF748FE00BD000025000020003801404B
:101EE000110000208000002025382E3466000000FC
:101EF000435552525F444154413A200008000020AB
:101F0000880000202538640094000020090000208B
:101F1000206720009000002025382E326600000047
:101F2000E400002025382E31660000002070637325
:101F30000000000020672F6D3300000020252000E6
:101F4000206D6700206F7A00206374005369676E0C
:101F500061747572653A0000FE000020A000002048
:101F6000AC90000802000020454C454354524F4EAF
:101F700049432042414C414E43450000B7D6CEF67E
:101F8000CCECC6BD00000000435552525F4D4F449B
:101F9000453A2000434F554E545F4D4F4445000095
:101FA00044454E534954595F4D4F4445000000008D
:101FB000434845434B5F4D4F444500005045524315
:101FC000454E544147455F4D4F444500414E494DB4
:101FD000414C5F4D4F444500574549474854000028
:101FE000FA490020C862FA490870704730B5F94BC9
:101FF00000201C4640341D468035024681005A5060
:102000006250401C6A501028F8D3F2490020C031B9
:102010008300401CCA501028FAD3EF4900208300E7
:10202000401CCA501028FAD3E84802634263826316
:10203000C26330BDF0B5E548E74B406B403B91B023
:10204000012804D0E14900200246096B2EE000205F
:102050006E468100401C5A58C0B272501028F8D306
:10206000002100200F22571A09E08400A5193259D7
:102070006B689A4201D933516A60401CC0B28742F2
:10208000F3DC491CC9B20F29EBD3002104208200E4
:10209000B258401C5118C0B20C28F8D3C80811B06F
:1020A000F0BD94001C592018521CD2B28A42F8D3B9
:1020B00004F075FFF3E7F0B5C64A90B00020803217
:1020C0006E468100401C5358C0B273501028F8D39C
:1020D000002100200F22571A09E08400A519325967
:1020E0006B689A4201D933516A60401CC0B2874282
:1020F000F3DC491CC9B20F29EBD300210420820074
:10210000B258401C5118C0B20C28F8D3C80810B0FF
:10211000F0BDF8B504F0C1FAAC4DE969091A00D573
:102120004942AE4AAA4E0024914209DD3470EC6265
:102130002C626C62EC63AC636C70AC70EC702C71F4
:10214000E86100F069F9296A491C29620F2903D95D
:10215000696A491C696200E06C62A86400F07DF95C
:10216000696A9F4F0F290AD8EA6C296C891A00D531
:1021700049423A780A235A43914200DBA86CE8644A
:1021800000F0FDF8296C091A00D549423B7801227C
:1021900099420DDAE96A934B491CE9621B78042BDA
:1021A00003D00A2905D9327003E01429FBD800E0D6
:1021B000EC6228643078012802D06C70AC700CE0BE
:1021C00089486A700078012807D18848007800287B
:1021D00003D187480078012802D0EC702C71F8BD3B
:1021E000EA70F8BD10B5794A9178491CC9B291706E
:1021F000022910D100217F4B91701968411A00D536
:102200004942774A1278D400A21A8A4203D97A4AFC
:1022100001211170186010BDF8B571496B4C0A7836
:1022200064215143814202D90021A162F8BD67496E
:1022300026798D6A0127411B4B42002E0FD0761C58
:10224000F6B226710C2E24D92771002900DA19461E
:10225000530052089A188A4213D2A06219E000294A
:1022600000DA19465300D218914207DC6900C20017
:102270006918101A08180A2104F091FEA06227714B
:1022800007E05C4BA8421A6801D9501800E0501AC8
:102290001860A06AF8BD00204F4902464031430053
:1022A000401CC0B2CA521028F9D37047F8B5474B4A
:1022B000494A197840324C001053491CC8B2187072
:1022C000042801D100201870002108464300D35A89
:1022D000401C5918C0B20428F8D38C08204605F0D9
:1022E00064FB464A464B05F0DBF805460A200E46DD
:1022F000604305F05AFB2A46334605F0E7F804F040
:10230000FFFE4049404A0546884202DA3F4885427E
:1023100001DC1046F8BD3E4E0124A000315828468D
:1023200006F0D4FD02D3641CE4B2F6E7A0003758EF
:1023300080198038C06F394606F0F4FD06463946EC
:10234000284606F0EFFD314605F090FC314906F0D5
:1023500065FD05462E486030005D05F07BFD294691
:1023600006F0E0FDF8BD1948406C70471748806CD6
:1023700070471648C06C70471448006C704710B521
:10238000124A154B916B8C00491C1851916310290E
:1023900005D0D06B012806D00020024611E00120B4
:1023A000D063002090630021084682009A58401CA8
:1023B00051181028F9D3080910BD94001C59201891
:1023C000521C8A42F9D304F0EAFD10BD2C01002012
:1023D0000B000020740200207403002050C3000092
:1023E0001800002008000020140000201500002024
:1023F000030000204000002019000020ACC5A70009
:102400000000B040CB212442CDCCC7428195033F90
:102410003C9100080000A04070B51A4A9168091864
:102420009160814202D2D3685B1CD3601369164D60
:102430009C002E598E1B96608E4202D9D168491E8F
:10244000D1605B1C28511361102B01D10020106159
:10245000107B0006310A084370BD70B5094B0A4D68
:10246000596940350C1899698A00AE58491CA41B5B
:102470005C61A8509961102901D100209861200960
:1024800070BD00002C0100207402002070B50121F5
:1024900094B0C80400F03AFB0121480200F03FFB71
:1024A0000121084600F032FB102006900320694607
:1024B000087706A92B4800F0FAF82B4D284602F0C1
:1024C000CFF82A4808902A480024042609A951C1B7
:1024D00080200D9040000E9080000F9020201090E2
:1024E0000C940002119008A91294284602F0EAF810
:1024F0000121284602F00FF91C4D0221403D2846DB
:1025000000F047FC0121284600F039FC684600F045
:1025100082FB0120694600940871029428460596C2
:10252000049400F065FB05223103284600F0E0FB2F
:10253000284600F000FC0121284600F020FC012183
:10254000284600F070FB0B4C2846214600F031FC79
:102550000028F9D0284600F00AFC14B070BD0448E9
:1025600000887047000800480800024040240140ED
:102570007C010020010000017CB50121480400F02D
:10258000C5FA012424030120694600940871002043
:102590008871032009254871ED06284600F087F868
:1025A0002146284600F0E3F87CBD1CB501218804D3
:1025B00000F0ACFA01204002009001206946087149
:1025C0000020887103204871234800F070F81CBD7A
:1025D0007CB50121C80400F099FA012464030120AC
:1025E0006946009408710020887103201B4D4871D2
:1025F000284600F05CF82146284600F0BAF87CBD79
:1026000010B5012109200903C00600F0B2F810BD81
:1026100010B501214902104800F0A9F810BD10B50D
:10262000012149030D4800F0A2F810BD10B50121A9
:1026300009200903C00600F09AF810BD10B5012169
:102640004902054800F095F810BD10B50121490375
:10265000024800F08EF810BD000400480008004851
:10266000092110B5C906884202D101214C0404E0B9
:102670004D49884209D101210402204600F061FA47
:102680000021204600F05DFA10BD4849884202D181
:1026900001210402F1E74649884202D101210C05DB
:1026A000EBE744498842EFD101218C05E5E7F0B51D
:1026B0000022032501230C6893401C409C422AD130
:1026C0000C79012C01D0022C12D1876854002E46BF
:1026D000A640B74387604E79A6408468264386604B
:1026E00084889C43848084888B7993401C438480B5
:1026F000066853002C469C40A64306600E79076886
:102700009E403E430660C668A643C660CC799C40A6
:10271000C3681C43C460521C102ACBD3F0BD2649A9
:10272000016000210171012242718171C171704704
:10273000012208B512040A430092C261C1610099E6
:10274000C161C169C069009008BD0246128A0020BB
:102750000A4200D001207047008A70470246928AE0
:1027600000200A4200D001207047808A70478161B2
:10277000704701857047002A01D08161704701854B
:102780007047818270474B07DB0E9A40C90810B52D
:1027900089000818016A0F249C40A1430162016A64
:1027A0001143016210BD0000000400480008004809
:1027B000000C004800140048FFFF0000F6480168C4
:1027C0000122114301604168F44A114041600168EF
:1027D000F34A1140016001680122920491430160B3
:1027E00041683F22120491434160C16A090909010D
:1027F000C162016BFF22543291430163416B49086E
:1028000049004163002181607047E34900228A70DA
:102810008870704703460020DF4A59090CD001290F
:102820000CD002290CD0516BDA06D20E0123934052
:102830000B4200D0012070471168F5E7116AF3E7F9
:10284000516AF1E718B500200524240300901120F7
:10285000FFF7E0FF0099491C0091A14201D0002838
:10286000F5D01120FFF7D6FF002800D0012018BDB9
:10287000C94A1168F8239943C000084310607047A3
:10288000C5490028086802D00122104301E0400831
:10289000400008607047C04A516BF8239943C0005C
:1028A000084350637047BC490028486B02D001229E
:1028B000104301E04008400048637047B6490422D5
:1028C0000028486B01D0904300E0104348637047F4
:1028D000B1490A6A520852000A620A6A04239A43FA
:1028E0000A620A6A02430A627047AB490A6A1823FD
:1028F0009A430A620A6A02430A627047A64900289C
:10290000486A02D00122104301E0400840004862BA
:10291000704710B5A04A53687B24E403A343536077
:10292000536808430343536010BD01229A491206BD
:102930000028086801D0104300E090430860704709
:10294000954AD16A090909010143D1627047012200
:102950009149D2040028086801D0104300E0904358
:10296000086070478C4B5A681202120A000608432E
:10297000104358607047884A5168890889000143AC
:1029800051607047844840680C2108407047824A73
:102990005168F02399430143516070477E4A516862
:1029A00007231B0299430143516070477A494A68E3
:1029B00001239B039A434A604A6883B21A434A60E0
:1029C0000A6B8B159A430A630A6B000C02430A6375
:1029D000704771490A6B40239A430A630A6B0243AA
:1029E0000A6370476C490A6B10239A430A630A6BA7
:1029F00002430A63704768490A6B920892000A63AF
:102A00000A6B02430A637047F8B5634E0446706868
:102A10000C21644D084003D0042801D0082801D0BF
:102A2000256012E07168706803228902D2030F0FDB
:102A30001040BF1C00281CD0F06A0107090F28466F
:102A4000491C04F0ACFA784320607068564B0006CD
:102A5000000F1A5C20680146D1406160726852051F
:102A6000520F9A5CD140A160326BD20505D44F4A17
:102A700009E04F4847432760E7E77268520401D4F2
:102A80004A0800E08A08E260326B4A4B520603D4DF
:102A9000484A1232226100E02361326BD20601D42F
:102AA000656100E06061326B92070FD0316B89077E
:102AB000890F01290CD0306B8007800F022809D0C4
:102AC000306BC043800700D1A561F8BDA161F8BD9E
:102AD000A061F8BDA361F8BD2F490A6A02430A62EA
:102AE00070472D490028334A086A01D0104300E09E
:102AF0009043086270470122274912040028086A9F
:102B000001D0104300E0904308627047224A002938
:102B1000516901D0014300E08143516170471E4A71
:102B20000029916901D0014300E081439161704720
:102B3000194A0029D16901D0014300E08143D161E4
:102B40007047154A0029916A01D0014300E0814392
:102B500091627047104A0029D16801D0014300E01A
:102B60008143D16070470C4A0029116901D00143AB
:102B700000E0814311617047074A0029517A01D072
:102B8000014300E08143517270470348416A0122CA
:102B90001206114341627047001002400CB8FF0852
:102BA000FFFFF6FE00127A007E010020809FD50014
:102BB00000093D0000800000054A0146926800209F
:102BC0000A4200D001207047014988727047000016
:102BD00000100240854910B5884208D144150121F2
:102BE0002046FFF7B7FF00212046FFF7B3FF10BDD7
:102BF00030B5C2687E4B8C681A400B680D79234350
:102C0000CC686D032C4323430C69496923430B4370
:102C10001343C36030BD0021016001718160C16058
:102C20000161416170470029816801D0012200E003
:102C30000222114381607047002A026901D00A43D1
:102C400000E08A43026170470122D2030029C16873
:102C500001D0114300E09143C1607047012292030B
:102C60000029C16801D0114300E09143C160704761
:102C70000122D2050029C16801D0114300E091432F
:102C8000C16070470904114301627047C2681F2385
:102C90009B069A430A43C2607047012292050029AD
:102CA000C16801D0114300E09143C1607047012227
:102CB0005049D2050028886801D0104300E09043B5
:102CC0008860704701224B4992050028886801D02E
:102CD000104300E090438860704701224549120686
:102CE0000028886801D0104300E090438860704756
:102CF000836A0B43836242617047012252030029B9
:102D0000C16801D0114300E09143C16070470122C6
:102D100012040029C16801D0114300E09143C16051
:102D20007047012212030029C16801D0114300E05D
:102D30009143C1607047826800210123DB071A4379
:102D400082600F231B038268491CD20FD20799426D
:102D500001D0002AF7D18168002901DB006C70479F
:102D6000002070478168102211438160704781689C
:102D70000422114381607047006C80B270470029C3
:102D8000C16802D00122114301E049084900C16035
:102D90007047C26802239A43C260C2680A43C26095
:102DA0007047002A426801D00A4300E08A4342602B
:102DB000704702460020CB0104D5926801231B0610
:102DC0009A4300E012680A4200D001207047016077
:102DD000704702465368002012680B400A4202D036
:102DE000002B00D001207047016070470024014093
:102DF00003D2FFFF00270140F64910B5884202D1F7
:102E00000121C41430E001218907884206D1012143
:102E10000846FFF7A8FE0021012008E0EE4988429D
:102E200008D101210220FFF79EFE00210220FFF7BA
:102E30009AFE10BDE949884206D101211020FFF712
:102E400092FE00211020F2E7E549884207D184155F
:102E500001212046FFF787FE00212046E7E7E149F0
:102E6000884209D101210C042046FFF773FE00219E
:102E70002046FFF76FFE10BDDB49884202D10121D9
:102E80004C04F1E7D9498842F5D101218C04EBE7E4
:102E900010B50288CF4B984206D00124A407A04267
:102EA00002D0CD4CA04203D17024A2434C882243CF
:102EB000CA4CA04203D0CE4C22400C89224302804F
:102EC0004A68C2620A880285984208D0C54A904280
:102ED00005D0C54A904202D0C44A904201D1897AB5
:102EE00001860121818210BD0021C943416000217A
:102EF0000180018141808172704701858282704723
:102F0000028870239A430A430280704741627047E7
:102F1000C1627047406A7047008D704702220029E5
:102F2000018801D0114300E09143018070470422E1
:102F30000029018801D0114300E0914301807047CE
:102F400080220029018801D0114300E091430180D3
:102F50007047028808239A43028002880A4302804D
:102F600070470288A24B1A40028002880A430280FE
:102F700070470029018802D00122114301E049086D
:102F800049000180704710B50A884B88CC881A43E5
:102F90008B8823431A430B891A434B8989891A4327
:102FA0000A434030828010BD002101804180818031
:102FB000C180018141818181704740300029818831
:102FC00003D00122D203114301E04904490C81805E
:102FD000704770B5028C520852000284048C8288BB
:102FE000038B7025AB439B080D889B001D43022378
:102FF0009C438E894B882643764C3343A04208D0AD
:10300000784CA04205D0784CA04202D0774CA04228
:103010000DD10824A343CC891C4304239C438B88F3
:103020002343734C22400C8A14434A8A22438280F1
:10303000058389684163038470BD70B5028C1023D9
:103040009A430284048C8288038B6A4D2B400D784E
:103050002D062D0C1D4320239C438B891B051E0C24
:103060004B8826431B051B0C5A4C3343A04202D00D
:103070005C4EB04219D1604E32400E8AB604360C16
:103080003243A04211D18024A343CC892405240CCF
:103090001C4340239C438B881B051B0C2343574C2C
:1030A00022404C8AA404240C224382800583896830
:1030B0008163038470BD30B5028C514B1A40028489
:1030C000038C8288848B7025AC43A4080D88A400EF
:1030D00025434C4C23400C7B2406240C1C438B784A
:1030E0001B061B0C23433B4CA04215D1434C2340F1
:1030F0008C7B2406240C1C433F4B1C400B791B0685
:103100001B0C2343404C22400C8A2405240C1443FE
:103110004A8A1205120C2243828085838968C16322
:10312000038430BD30B5028C384B1A400284058CC4
:103130008288838B2F4C23400C782406240C1C435C
:10314000334B1D400B7B1B071B0C2B438D782D072E
:103150002D0C1D431F4B984205D12E4B13400A8A5C
:103160009205120C1A438280848389680164058465
:1031700030BD002101804180818081608181C181D9
:1031800001824182704730B5034618330124058C13
:103190008C40A5430584002910D008290ED0091FB2
:1031A0000804400CC018016807231B039943016001
:1031B00001681206120C1143016030BD4808C018A6
:1031C00001687023994301600168F4E74163704727
:1031D00081637047002C0140000400400010004053
:1031E00000200040004001400044014000480140F0
:1031F000FFFC0000FF8C0000FFFB0000FFF7000059
:10320000FFFE0000FFFD0000FFCF0000FFEF000009
:10321000FFDF0000FFBF0000C1637047016470471B
:10322000028B70239A430A4302837047028BF64B4A
:1032300009021A40114301837047828B70239A431D
:103240000A4382837047828BEF4B09021A40114375
:10325000818370470029818802D00122114301E057
:103260004908490081807047028B08239A430A432A
:1032700002837047028BE54B09021A401143018318
:103280007047828B08239A430A4382837047828B5C
:10329000DE4B09021A40114381837047028B0423DD
:1032A0009A430A4302837047028BD94B09021A40A2
:1032B000114301837047828B04239A430A4382831C
:1032C0007047828BD24B09021A40114381837047A9
:1032D000028B80239A430A4302837047028B520475
:1032E000520C0902114301837047828B80239A4359
:1032F0000A4382837047828B5204520C09021143A5
:1033000081837047028C02239A430A4302847047E8
:10331000028C08239A430A4302847047028C2023BC
:103320009A430901114301847047028C80239A4318
:103330000901114301847047028CB64B09021A40FF
:10334000114301847047028CB04B09021A401143AB
:1033500001847047028CB04B09031A401143018469
:103360007047028908239A43028102890A43028135
:10337000704710B50123048C8B409C430484038C5C
:103380008A401343038410BD10B50423048C8B4082
:103390009C430484038C8A401343038410BD04229D
:1033A0000029818801D0114300E09143818070475A
:1033B000828B9A4B1A408283828B09020A43828352
:1033C0007047828B0C239A438283828B0A438283C9
:1033D0007047028B914B1A400283028B09020A4309
:1033E00002837047F0B5048C1026B4430484058B27
:1033F000048C8B4F1B0309013D402B4312021A43DF
:10340000A0239C430C43344302830484F0BD028B0D
:103410000C239A430283028B0A430283704770B5E0
:10342000048C640864000484058B048C1B01134322
:10343000F3260A22B54394432B430C4301210C434A
:103440000383048470BDF8B5054608884E888A88D1
:103450000B890C4600281DD0042824D00828288C6D
:103460002AD0704908402884A88B2F8C31036C4ED9
:10347000120230400243180310436B4AA8831740DE
:103480000F43012109030F432F84E1882846FFF7EA
:103490008FFFF8BD31462846FFF7C1FFE188284677
:1034A000FFF7B5FFF8BD31462846FFF79BFFE188DF
:1034B0002846FFF78EFFF8BD5C4908402884A98B99
:1034C000288C3702F3261B01B14313430B435849A1
:1034D000AB830840FF213843013108432884E18849
:1034E0002846FFF76EFFF8BD0021018041800122D0
:1034F0008280C18001817047F8B50C46498800265A
:1035000001250746002900D10226A288012A00D100
:103510000225208823890028384610D0FFF762FF53
:10352000E1883846FFF755FF23892A463146384659
:10353000FFF775FFE1883846FFF769FFF8BDFFF731
:103540006EFFE1883846FFF762FF23892A4631463D
:103550003846FFF747FFE1883846FFF73AFFF8BDE6
:10356000406B7047806B7047C06B7047006C704752
:10357000002A828901D00A4300E08A438281704791
:10358000818270470246128A00200A4200D0012040
:103590007047C943018270470246138A002092890E
:1035A0000B400A40002B02D0002A00D001207047B7
:1035B000C943018270471143403001817047002A9E
:1035C000828901D00A4300E08A4382817047082241
:1035D0000029818801D0114300E091438180704728
:1035E0000189C908C90001817047028970239A4383
:1035F0000A430281704710B50446FFF7F6FF2089A1
:1036000007210843208110BDFF8F0000FFF7000055
:10361000FFFB0000FFFD0000FFDF0000FFF30000E4
:10362000FF0C0000FFEF0000FF5F0000FFFE000046
:10363000FFF5000070B516460D46044660290CD013
:1036400001223146FFF7EBFE29462046FFF7CDFF6A
:10365000208907210843208170BD01223146FFF7F0
:10366000C1FEF1E710B504891B021343E4B20B431A
:103670002343038110BD10B50446FFF7F3FF2089F3
:10368000C108C90007200143702081430143218103
:1036900010BD10B50446FFF7E5FF2089012189031D
:1036A0000843208110BD828870239A4382808288DB
:1036B0000A43828070470289D208D20002810289BF
:1036C0000A4302817047028980239A43028102895A
:1036D0000A430281704770B50589048B068CED089A
:1036E000ED000D430C4905810C40FF2102310C43D4
:1036F000AA218E431901114331430483018470BD13
:1037000080220029818801D0114300E0914381800B
:103710007047403001827047FCFC0000F74910B54B
:10372000884209D101218C032046FFF713FA0021BA
:103730002046FFF70FFA10BDF1498842FBD1012165
:103740004C042046FFF70FFA00212046FFF70BFA42
:1037500010BD30B50446006887B00D4640084000F3
:1037600020606068032109038843A9680143616000
:103770002068E449EA680840696811432A690243FD
:1037800011432160A068032109028843696901434C
:10379000A1606846FFF738F9D848844201D10698FD
:1037A00000E0029821680904296800D5400003F070
:1037B000F6FB2A6852088A4200D8401C2168090496
:1037C00004D50107D04A490F10400843A08107B033
:1037D00030BD4B21C90101600021416081600C2294
:1037E000C16002614161704710B543680F22120247
:1037F000934314C922430C6849680C4322431A437B
:10380000426010BD0021016041608160C16070476D
:103810000029016802D00122114301E04908490052
:1038200001607047002A026801D00A4300E08A4321
:10383000026070470122D2030029016801D01143C0
:1038400000E09143016070470122D20200298168A3
:1038500001D0114300E09143816070470122D204FE
:103860000029416801D0114300E091434160704755
:10387000012292040029416801D0114300E09143E4
:1038800041607047002A426801D00A4300E08A4341
:10389000426070470122D2030029416801D01143E0
:1038A00000E09143416070470122D2050029416840
:1038B00001D0114300E09143416070474269120E0C
:1038C0001206426142690A4342617047028A120A43
:1038D00012020282028A0A430282704702220029EF
:1038E000016801D0114300E0914301607047826894
:1038F00003231B059A43826082680A4382607047F3
:10390000012212050029416801D0114300E09143D2
:1039100041607047426803235B059A4342604268F6
:103920000A4342607047C905C90D01857047808C04
:10393000C005C00D704742681202120A4260426818
:1039400009060A43426070470122520300290168B8
:1039500001D0114300E091430160704702680123E8
:10396000DB029A43026002680A43026070474268C1
:1039700010239A43426042680A434260704742689B
:1039800020239A43426042680A4342607047012202
:1039900092030029416801D0114300E09143416046
:1039A000704708220029816801D0114300E091434B
:1039B00081607047028AD2B20282028A09020A43F7
:1039C0000282704720220029816801D0114300E063
:1039D00091438160704710220029816801D0114312
:1039E00000E0914381607047826807235B049A433B
:1039F0008260826849040A43826070474269120209
:103A0000120A4261426909060A43426170478268AC
:103A100004239A43826082680A43826070470222CC
:103A20000029816801D0114300E091438160704713
:103A3000012292030029816801D0114300E09143E3
:103A40008160704782680123DB039A438260826849
:103A50000A438260704702681F235B059A43026035
:103A6000026849050A430260704702681F231B046D
:103A70009A430260026809040A4302607047002A00
:103A8000826801D00A4300E08A43826070478268FE
:103A900001235B039A43826082680A438260704715
:103AA00010B50B041C0E01238B40022C02D0032CFA
:103AB00002D002E0001D00E008300168002A01D0B9
:103AC000194300E09943016010BD002A028B01D028
:103AD0000A4300E08A4302837047826801231B0384
:103AE0009A43826082680A43826070470246D269C4
:103AF00000200A4200D00120704700000038014039
:103B000000440040F3E9FFFFF0FF00000162F3E72B
:103B100030B50A04130E01252A4600248A40012BE1
:103B20000ED0022B0ED08368090C1340C0698D4063
:103B30002840002B02D0002800D00124204630BDB0
:103B40000368F1E74368EFE7090C01228A4002624B
:103B5000D2E7000030482F490160002141608160B8
:103B6000C1602E494161704710B583792A490268C6
:103B7000002B26D00B6893430B604A6803689A4376
:103B80004A600279521813680468234313608A68F4
:103B900003689A438A60CA6803689A43CA60427994
:103BA000102A05D051180A68006802430A6010BD47
:103BB0008A6803681A438A60CA6800680243CA6058
:103BC00010BD0079401801689143016010BD0021CB
:103BD000016001710C224271817170470E490A69BE
:103BE00002430A6170470C4A0146526900200A42AA
:103BF00000D001207047084948617047064A0146D5
:103C0000526900200A4200D00120704702494861F1
:103C1000704700000000940F00040140FFFF6B009C
:103C200018B50020F94B00909868800601D5012056
:103C300018BDCA20586253205862D868A021884312
:103C4000D86020218C02D868009A0840521C00924B
:103C5000A24201D00028F6D0D868800601D5012004
:103C600000E00020FF21596218BD18B50020E74B85
:103C70000090D868400612D40020C043D86040218C
:103C80000C02D868009A0840521C0092A24201D04F
:103C90000028F6D0D868400601D4002018BD0120C5
:103CA00018BD30B50025D94CCA206062532060622F
:103CB000FFF7DBFF002814D000212160D4486060AA
:103CC000A068A160D3482061E161E162E163CF486F
:103CD00040304160E1600160FFF7A2FF002800D0A2
:103CE0000125FF206062284630BDC848C168802297
:103CF0009143C160704770B505460026C34CCA2089
:103D0000606253206062FFF7B0FF002811D0A06806
:103D100040218843A060A06829680843A060A86883
:103D200020612069A988090408432061FFF7DDFFAD
:103D30000126FF206062304670BD002101607F21B6
:103D40004160FF2181607047B049002801D0FF2009
:103D500002E0CA20486253204862704770B50646A8
:103D60000025AA4CCA20606253206062FFF77DFFE5
:103D700000280AD01021A068002E01D0084300E0DE
:103D80008843A060FFF7B1FF0125FF20606228464D
:103D900070BD9E49CA224A6253224A62002888683E
:103DA00002D02022104301E0DF2210408860FF2073
:103DB00048627047F8B50C4600260100934F207802
:103DC000B968324604D049062DD500F044FB2BE0FB
:103DD000490600D4E27000F032FB0504607800F080
:103DE0002EFB00020543A07800F029FB0543E07894
:103DF00000040543CA20786253207862FFF735FF3C
:103E000000280CD0844805403D60FFF76EFFB8687D
:103E1000800603D4FFF704FF002800D00126FF200E
:103E200078623046F8BDE2702078A578000405433A
:103E30006078E178000209040843DAE70021C170E4
:103E4000017041708170704770B503466F480C4631
:103E5000026871481146014088024D04800E2070AE
:103E60006D0E49066570490EA1705102490E40223F
:103E70001140E170002B0AD100F0EDFA207060785B
:103E800000F0E9FA6070A07800F0E5FAA07070BD6B
:103E90005E49886A4968704770B50C460026010083
:103EA00060780ED000F0D7FAA07800F0D4FAE0786D
:103EB000A57800040543607821780002490308438F
:103EC00014E0C10603D5EF2108400A306070E078A5
:103ED00000F0B5FA0504607800F0B1FA000205437D
:103EE000A07800F0ACFA0543207840030543474C26
:103EF000CA20606253206062FFF7B7FE00280CD032
:103F0000464805406560FFF7F0FEA068800603D4D0
:103F1000FFF786FE002800D00126FF2060623046B1
:103F200070BD01210170817041700021C170704726
:103F3000024610B535480C464068C021C9430140CF
:103F40000002000ECB04E070DB0E63708B069B0E4C
:103F50000904490FA3702170002A0AD100F07BFAEE
:103F6000E070607800F077FA6070A07800F073FA83
:103F7000A07010BD70B50021244E0028B068144612
:103F800020D0400635D5207800F065FA207B00F07F
:103F900062FA2078A578000405436078E178000291
:103FA000090408430543207B00060543A068054338
:103FB00060680543CA20706253207062F561FF207B
:103FC000706270BD400600D4E170207800F037FACE
:103FD0000504607800F033FA00020543A07800F091
:103FE0002EFA0543E07800040543207B00F027FA11
:103FF000DAE7E170CAE70021C17001704170817099
:104000000122816002734160704700000028004077
:1040100001210000FF007F007F7F7F003FFFFF0046
:1040200070B514460246FB48C16940258802800EDF
:104030004B0420705B0E63704B065B0EA3700B0C81
:104040002B40E3708B009B0E23732B060B40A36069
:10405000F14B19406160002A0ED100F0FCF920708C
:10406000607800F0F8F96070A07800F0F4F9A070C2
:10407000207B00F0F0F9207370BD18B5002200928B
:10408000E44BCA225A6253225A620029996802D02C
:104090000143996012E081439960000A0124A4035E
:1040A000D968009A0140521C0092A24201D0002916
:1040B000F6D0D968014201D1002000E00120FF21A3
:1040C000596218BDD348CA23436253234362120680
:1040D0000A43D04940314A60FF21416294E7CD480C
:1040E000403040684004400C8EE710B5C94ACA23EE
:1040F00053625323536293680124A404A34393603F
:104100009368084303439360FF20506210BDC14889
:10411000806801218904084076E710B5BD4ACA23AA
:10412000536253235362936807242405A343936087
:104130009368084303439360FF20506210BDB54964
:10414000CA224A6253224A620122D20500288868A4
:1041500001D0104300E090438860FF20486253E79D
:10416000AC49CA224A6253224A628A680123DB04AC
:104170009A438A608A6802438A60FF20486243E764
:1041800070B50023A34CCA25656253256562E568B6
:10419000ED0307D5A514E668F60303D5AB4201D0BD
:1041A0005B1CF8E7E368DB0304D408431043E063D7
:1041B000012000E00020FF21616270BD10B5954B29
:1041C0009A68964C2240002901D00243D814024339
:1041D000CA205862532058629A60FF20586210BD6E
:1041E00070B50D468B4914460B6B8D4A496B1A40CE
:1041F000C026F64331409602B60E2E705604760E57
:1042000052066E70520EAA705A02520E40231A4085
:10421000EA700022E270CA04D20E62708A06920E20
:104220000904490FA2702170002817D1287800F0E6
:1042300012F92870687800F00EF96870A87800F01C
:104240000AF9A870607800F006F96070A07800F0B4
:1042500002F9A070207800F0FEF8207070BD6D4863
:10426000806BD1E66B4A400040320029116802D0D1
:1042700001431160C8E68143FBE7664A40320029EA
:10428000116801D0014300E081431160BCE661493F
:1042900040310A680323DB029A430A600A6802433A
:1042A0000A60B1E65B4940310A6807231B029A4362
:1042B0000A600A6802430A60A6E6564940310A6865
:1042C00003235B039A430A600A6802430A609BE681
:1042D0005049802240310028086801D0104300E096
:1042E0009043086090E64B494031CA1300280868A3
:1042F00001D0904300E01043086085E6454A08B5C8
:104300005032800080180090016008BD414908B516
:104310005031800040180090006808BD3D49403190
:104320000A6801239B049A430A600A6802430A60F0
:104330006AE630B50022374CCA23636253236362B6
:10434000E3681B0707D5A314E5682D0703D59A4238
:1043500001D0521CF8E7E26812070AD4A268D2061C
:1043600007D40143E162FFF75BFC002802D0012083
:1043700000E00020FF21616230BD30B5254BCA222C
:104380005A6253225A6204250246224CAA43403400
:1043900028400029996804D011439960216801439D
:1043A00003E091439960216881432160FF205862B6
:1043B00030BD18490246C96800201A4B1940114205
:1043C00000D0012020E680210843C003C00BC34376
:1043D0001048C2680A401343C36015E670B50D4A21
:1043E00000214032126804230A4C1A40A368860C4C
:1043F0000546F540ED0B15400340E2682B430009EC
:104400000240002B03D01004000C00D0012108460C
:1044100070BD00000028004080808080F7F7FFFF1B
:104420007F7F7F007879010000098021084380B2F6
:104430000D4AC343D06808400343D360E4E500213C
:1044400003E0491C0A38C9B2C0B20A28F9D20907E8
:10445000090E0843D8E501090A2200075143000F5D
:104460004018C0B2D0E500000028004030B5827886
:1044700001240178002A15D08B08174A9B009A184E
:1044800013688907C90EFF258D40AB434578AD07FA
:104490002D0E8D401D4315600078C006C00E84406F
:1044A0000E4804E0C806C00E84400C48803004600A
:1044B00030BD0B4A0029116901D0014300E081435E
:1044C00011617047042207490428086902D090430B
:1044D000086170471043FBE700E400E000E100E002
:1044E00000ED00E000E000E010B501210C072046DF
:1044F000FEF739FB00212046FEF735FB10BD3049A1
:104500008A150028086801D0104300E09043086035
:1045100070472B4A1168E0239943014311607047AB
:10452000274910220028086801D0104300E090437A
:1045300008607047224A0029516801D0014300E019
:104540008143516070471F490A6904239A430A61F5
:10455000012801D020BF704730BF7047184B1A6840
:104560009208920002431A601648026904231A4313
:104570000261012904D020BF01699943016170479C
:1045800030BFF9E70E48026804210A43026002685E
:1045900002231A4302600B4802690A43026130BFDA
:1045A0007047074A0146526800200A4200D00120A5
:1045B000704703490A68800002430A6070470000A0
:1045C0000070004000ED00E0244801688907890F71
:1045D000016000218160C1600161416181698215D2
:1045E0001143816170471D4A1168890889000143A0
:1045F00011607047194A0029116801D0014300E099
:10460000814311607047154A0029116801D00143A8
:1046100000E08143116070478A0710B5120F0F2325
:1046200093408C080D49A40061188C689C438C60F1
:104630008B68904003438B6010BD08498A69024330
:104640008A617047054900208969C90500D50120A4
:10465000704702498A6902438A617047000001403D
:104660000168454A1140016000210160416081609C
:10467000C1604249414A0839904202D148680F223C
:1046800005E03E4A1432904204D14868F0221043BB
:1046900048607047394A2832904203D148680F2257
:1046A0001202F4E7354A3C32904203D148680F22A7
:1046B0001203ECE7314A50329042EAD148680F22A7
:1046C0001204E4E730B503682D4A0C6A13408A6887
:1046D0004D6922430C692C4322438C692243CC69E7
:1046E00022434C6A22438C6A22431A430260CA68FE
:1046F00042600A6882604968C16030BD0021016083
:1047000041608160C160016141618161C16101629B
:104710004162816270470029016802D00122114381
:1047200001E0154A114001607047416070474068E0
:1047300080B27047002A026801D00A4300E08A4331
:104740000260704701460D4A0020083A12680A428A
:1047500000D0012070470949083948607047014678
:10476000064A0020083A12680A4200D00120704729
:104770000249083948607047FEFF00000800024007
:104780000F80FFFF70B50C460546F84E17E040213C
:104790003046FDF7EEFF280604D580213046FDF7B0
:1047A000E6FF03E080213046FDF7E3FF6806050ED3
:1047B00040213046FDF7DBFF0122521EFDD120468D
:1047C000641EE4B20028E2D170BD70B5E74C0E461D
:1047D000054620212046FDF7CCFF03212846FFF7A0
:1047E000D1FF08213046FFF7CDFF02210020FFF75F
:1047F000C9FF20212046FDF7BAFF70BD7CB501211D
:104800008804FEF783F9E0200090012069460871D2
:1048100000248C710320D54D48712846FDF747FFD1
:10482000E0212846FDF7A3FF01218020FFF7CDFFFF
:1048300018218020FFF7C9FF29218020FFF7C5FF3D
:1048400003218020FFF7C1FFC94900200C54401C00
:10485000C0B20628FAD37CBD70B5C44E20213046C4
:10486000FDF787FF0321A020FFF78CFF0621002022
:10487000FFF788FFBE4D0024E0070FD06008285CDA
:104880000007000E0421FFF77DFF641CE4B21C2C1E
:10489000F2D320213046FDF76AFF70BD6008285C26
:1048A00000090001EEE70020B14A01461154401C06
:1048B000C0B20E28FAD370470020AD4AFF21115430
:1048C000401CC0B20E28FAD37047AA4A10B5012086
:1048D0001346A74931331418203CE47F1C5D0C5467
:1048E000401CC0B20828F6D3042001220B5C1343FD
:1048F0000B54401CC0B20728F8D310BD70B59E48B9
:104900009C490068C91D0002020C01200C46984D0C
:104910002A340B18203BDB7FE35C2B54401CC0B2D5
:104920000828F6D36421104602F039FB205CE870B9
:1049300008460A2102F033FB205C28718F4800787A
:104940002018C078A87170BD30B58A4C0122884B00
:10495000641C0578401C2D5D9D54521CD2B2082A5F
:10496000F7D30120002205E01C5CFA2C04D11A5474
:10497000401CC0B28842F7D30124072902D0585CFA
:10498000204358547E48007805280FD07D49097887
:10499000C9070AD0072808D17B48DA7100780228B5
:1049A00003D1987940084000987130BD774800786D
:1049B0000128FAD1764800780228F6D175480078A7
:1049C0000828F2D00B28F0D0D8792043D87130BD18
:1049D0003EB5022907D06C46042914D005292CD0F5
:1049E000032944D046E06C4904F018FA03F014F9A6
:1049F00002460B4669A1684602F092F96A46D079F0
:104A00000621907147E003F007F9664A664B02F011
:104A1000CFFF02F075FB03F0FFF802460B4663A1DF
:104A2000684602F07DF90121084622185278225486
:104A3000401CC0B20728F8D32DE003F0EDF85D4A22
:104A40005D4B02F0B5FF02F05BFB03F0E5F80246B8
:104A50000B4656A1684602F063F901210846221868
:104A600052782254401CC0B20728F8D313E05349AF
:104A700004F0D4F903F0D0F802460B4650A1684682
:104A800002F04EF903210846221852782254401CA5
:104A9000C0B20728F8D36846FFF756FF3EBDF8B509
:104AA000334C002666704848A67000884B21C90028
:104AB000074602F074FA2F4D3C213135285CE07036
:104AC000384602F06CFA0F460A2102F068FA685C78
:104AD00001210843207138460A2102F060FA285C5F
:104AE000607138460A2102F05AFA685CA071E671DA
:104AF000FFF7B2FEF8BD3EB5FDF73EFC1C4C0021B1
:104B0000E172A17261723149884206D90A2102F02C
:104B100046FA184A4B32515C617202462CA1684633
:104B200002F0FEF807216846FFF70EFF3EBD30B5E4
:104B30002949104A0B7858321446D9000120273CE5
:104B40000B4DC91A89180A18203A127EA25C2A5401
:104B5000401CC0B20828F6D3032B41D0042B03D14C
:104B60001E480078205CE87130BD00000004004859
:104B7000D8010020E4910008A000002023000020BC
:104B8000080000200A00002009000020EC0000209E
:104B9000EE000020ED00002000007A442530382E81
:104BA00031660000217561C26D0FA23F2530382E9D
:104BB00036660000635ED00D1076A03F0000A04076
:104BC0002530382E34660000CE0000207F969800F5
:104BD00025303764000000001A0000201C0000206F
:104BE000FA48BEE710B5FA4901200C46F94B0E34DD
:104BF0000A18203AD27FA25C1A54401CC0B208287E
:104C0000F6D3F5480A220078FA21012809D00228B3
:104C100009D003280BD0042802D19E209871D971A5
:104C200010BD9A71FBE79A71D620D87110BDBC20D7
:104C3000F4E770B5E64CE9485134E9490078234679
:104C40000978433BE34A01280ED002281BD10120FA
:104C50001D46153D2E18203EF67F9E5D1654401CC5
:104C6000C0B20828F6D30BE0D94D01200E3D2E1816
:104C7000203EF67F9E5D1654401CC0B20828F6D335
:104C8000605C185CD07170BDFEB5D6480125007817
:104C9000002812D0D448D74E0778D448327801780B
:104CA000D348521CFF1F0068D2B200243B0004F01E
:104CB00003F806070AD366AEF206FFF71CFF15E1FC
:104CC000FFF786FE12E1CC4A1278012A28D0CB4A9F
:104CD000CB4B1268CB4FD618CB4BBE427DD21D704A
:104CE000114602F0C3FF02F097FF0022C74B02F00B
:104CF000C1FB02F00FFEC6490860C649884237D999
:104D0000B34B01200E331946B24C62390A18203ACF
:104D1000D27F9A5C2254401CC0B20828F6D3E5E04A
:104D2000AB4A0120153A1446AA4923341318203BF4
:104D3000DB7FE35C0B54401CC0B20828F6D3B648B6
:104D4000D6220478FA20230003F0B6FF06040608F2
:104D50000A0B0DD0CA71C9E08871FBE70A2200E096
:104D6000BC228A7102E00A224A718871C871BDE0D2
:104D70000246AA49684601F0D3FF072166E0A84F22
:104D8000062A3D70327000D93470A648A64A0068E1
:104D9000A64B904201DC984200DC3C70A4490968B3
:104DA000914201DC994200DC3C7004F08FF800D2A3
:104DB0003C709C4801688E48006804F005F806D3F2
:104DC0009B4801688A48006804F080F806D2994838
:104DD000994905700A20087002E03BE0954804708C
:104DE000387801280ED19348007801280AD130780C
:104DF000032807D9774901200C54401CC0B2082869
:104E0000FAD373E0794801787948006858E78B4A0B
:104E10008B4B12688B4FD6188B4BBE421AD21D702B
:104E2000114602F023FF894903F0F8FF8849086022
:104E300002F0F2FE02460B4686A1684601F070FFC2
:104E4000694688794871C879887105216846FFF7F5
:104E50007BFD4BE01C7033E7604B1F78002FD5D0F3
:104E60005F4B052F1B7805D2002B05D13470FFF75F
:104E70005EFE3BE0002B25D0594F062B0CD0012BBA
:104E800003D0032B01D0052BC0D13270142A16D0C9
:104E9000FFF7CFFE2AE016E07048006802F0BCFE83
:104EA00002460B466EA1684601F03AFF6946487912
:104EB000087188794871C87988710421C6E734700F
:104EC0005B1C3B70FEBD444A1278002A9ED0664AA5
:104ED0001278002A07D0012AF4D1644A1378644A70
:104EE000002B10D016E0FFF77DFE74703E4800786E
:104EF0000728E7D13D4800780228E3D13548C17939
:104F00002943C171FEBD5B4B1B78012B02D1737825
:104F1000002B04D07378012B9DD11068D0E610606F
:104F20007570FAE770B52A49012038390D46294CC9
:104F300046350A18203AD27FAA5C2254401CC0B2DF
:104F40000828F6D34C4800780B281BD00C281BD01F
:104F50004A490A880A21504302F021F886B26421A6
:104F6000304602F01CF8285C607108460A2102F005
:104F700016F8285CA0710A21304602F010F8685C2F
:104F8000E07170BDFE2000E0DE206071A071F7E7E7
:104F9000F8B53B4F0E4D387800220E350D4C1549B3
:104FA000012874D0374E2B46543B368802286CD0EB
:104FB00003286BD0042808D14879401CC0B248713E
:104FC000142802D14A7105203870F8BD1B0000205A
:104FD00007920008D8010020E80000201A000020F5
:104FE000EB0000201700002008000020090000202E
:104FF000800000208E010020D400002084000020CA
:1050000091ED7CC591ED4408D60000200000E03F02
:10501000880000209F860100D5000020D04B0008AA
:10502000D9000020DC000020000048430AD7233CC0
:10503000E0000020D8000020CC0000208C000020E0
:10504000333333C233337B05D70000200000C8421E
:10505000900000202530382E326600009400002099
:105060002530382E33660000EA000020E9000020D9
:10507000E40000200B000020130000202800002086
:10508000160000202A00002001E020E050E00A7114
:10509000C878401CC0B2C870052896D1CA708878FC
:1050A000401C8870C0070BD0F84901200A18203A2C
:1050B000D27FAA5C2254401CC0B20828F6D384E7F1
:1050C00001202254401CC0B20828FAD37DE7CA70E0
:1050D0000879401CC0B208710528F0D10A7188789F
:1050E000401C8870C0071CD0012019182039C97FC6
:1050F000695C2154401CC0B20828F6D364213046B4
:1051000001F04DFF285C607108460A2101F047FF5D
:10511000285CA0710A21304601F041FF685CE07113
:1051200053E701202254401CC0B20828FAD34CE7B0
:105130000A714A71012019182039C97F695C21540C
:10514000401CC0B20828F6D3D8E710B5D049C879BA
:10515000401CC0B2C871052815D90022CA718879CF
:10516000401C8871CB49C0070ED0C84A01200E32BE
:1051700013464D331418203CE47F1C5D0C54401C36
:10518000C0B20828F6D310BD01200A54401CC0B29A
:105190000828FAD310BD7FB5BF480178BC48027A11
:1051A000914243D00172002005466C462554401CB4
:1051B000C0B21028FAD30801FF3010222146013076
:1051C00001F046FB0020401CC0B2C828FBD30021E0
:1051D0000846225C401C5118C0B2C9B20F28F8D34F
:1051E00068460278AD48AA2A3AD16A465278AA2A75
:1051F00036D16A46D27B8A4232D1012101706C4697
:10520000A748E2790270A748217A0170637A207B6F
:105210001B06C018A37AE47A1B0424021B19C018C9
:105220000B2A04D0082A11D0FFF7D2FB7FBD02F071
:10523000F3FC02460B469C49684601F071FD694645
:1052400088794871C8798871052105E00246974937
:10525000684601F065FD07216846FFF775FB7FBDD5
:105260008A490570012054318A4BCC1D0A18203A16
:10527000D27FA25C1A54401CC0B20828F6D37FBD6E
:10528000F8B582490120834C1C310A18203AD37F9B
:105290007E4A5B32D25C2254401CC0B20828F4D350
:1052A0008348FA260778BC224E20F6250A213B00C7
:1052B00003F002FD081205172D3239474C12E67033
:1052C0007C4B21711E78F61F330003F0F5FC0604B9
:1052D00006183D1A081CE17177E6E27175E6E57182
:1052E00073E6E6702271744A1278130003F0E4FC4E
:1052F000060B0405072C090BEDE7BD2024E09E20DA
:1053000022E0D62020E0E420A0717A201CE0E670A4
:105310009E202071694802E0E6702071684800789C
:10532000C007DAD1D7E7E670D620207165480A2198
:10533000007801F034FE554A5B32105CA071505C7D
:1053400002E0E6702571A071E0713EE6E6708A2009
:105350002071A571C3E710B55B480078030003F026
:10536000ABFC061304070A0D1013FFF789FF10BDED
:10537000FFF7D8FD10BDFFF70BFE10BDFFF7E5FEF0
:1053800010BDFFF708FF10BD50480078012806D077
:105390004F480078012805D0FFF776FC10BDFFF7D5
:1053A00094FA10BD39490120C91F0C46394A6234AC
:1053B0000B18203BDB7FE35C1354401CC0B2082871
:1053C000F6D310BDFEB541480224007801285CD018
:1053D0003D480078022858D03E492C4D09780027D6
:1053E0002C4E4535012926D0052826D03A48A1055E
:1053F00000683A4B421A3A499A422ED20F702F490E
:105400000978C9070BD0374903F008FD364902F087
:105410002DFC364903F092FC3549884210DA02F03F
:10542000FBFB02460B4633A1684601F079FC694656
:10543000C87888700CE0314800E01748027802E034
:1054400002F0C4FC02462EA1684601F069FC00246B
:1054500068460078202857D008E0012008703A20DC
:10546000694608703B2048708870002468460078C0
:10547000405DF072694648788023405DB07289785B
:10548000022C495D717241D042E04EE0BA910008B1
:105490008E010020D8010020EF000020EC00002049
:1054A000ED000020EE00002054500008D04B000812
:1054B000D1000020D2000020090000201F000020A1
:1054C0000A00002025000020080000200C00002019
:1054D000000000202200002098000020000034423C
:1054E0001E000020000010410000A0400000024209
:1054F0007DFFC74225342E316600000020000020C9
:105500002530336400000000F772B3E71843B0722F
:10551000F348F44A00781278C007104305D1F248E6
:105520000078052801D019437172FEBD00B5EF4A1D
:105530000300117A03F0C0FB060D040406080A0DEF
:10554000102004E0042002E0082000E0882001434D
:10555000117200BDF0B5E648007801281DD0E34D7A
:1055600001202870E3480078012801D10320287029
:10557000E14880260078012802D12878304328703D
:10558000D94A10241178022904D0DC480078012877
:1055900004D007E0287A20432872F0BD287804233D
:1055A000184328704027042902D0032903D006E0BD
:1055B0002878384302E02878202210432870D04809
:1055C0000378042B02D1287820432870CD48012984
:1055D000027805D1CC48062A007804D0072A02D0E8
:1055E000062B06D009E00128FAD12878204328703C
:1055F000F6E728780823184328700020B84B287253
:105600001B78DB0703D0B74B1B78002B02D0052992
:1056100005D008E0052902D00120287203E0BB4B29
:105620001B78012B0CD0BA480B00007803F044FB28
:105630000D2A1B2A2A2A2A2A281E282824282A003A
:10564000B4490978C91F0B0003F036FB0604071C98
:105650000409041CB048007812E0384301E002213C
:10566000084328720EE0022A0AD00BE0AB49097801
:10567000012905D1287AF0E7A949097801290AD03A
:10568000FFF754FF0021984829730078052804D0BB
:10569000012808D00BE0287AE1E79C4A1278012A19
:1056A00005D19C4A0DE0974A1278012A08D002469B
:1056B000D21F130003F000FB0607090B0D12140F95
:1056C000984A1278F4E72E7305E02F7303E0202246
:1056D00000E008222A73052804D007E00422F9E735
:1056E0000222F7E72A7B01231A432A737D4F3A7877
:1056F000012A0BD12A7B8C4B22432A735A7A521CE3
:10570000D2B25A72062A01D1597239706973874927
:1057100003281DD004281BD00A78002A01D120229A
:105720006A730A2814D182480078012806D002281A
:1057300007D080480078012806D009E0687B204324
:1057400005E0687B304302E0687B90221043687379
:1057500079480078012800D01FE70878012805D093
:105760000028F9D1687B20436873F0BD687B304323
:10577000FAE7FEB5714901200D465C4C38350A1830
:10578000203AD27FAA5C2254401C80B20828F6D36B
:10579000FA265C4FE670387828184078207100F0BF
:1057A0002BFC397880B2002908D0092917D0217A3A
:1057B000EF2211402172285CE071FEBD642101F0EE
:1057C000EEFB285C607108460A2101F0E8FB285CCA
:1057D000A071E671207A102108432072FEBD58485E
:1057E000006802F019FA02460B4656A1684601F01D
:1057F00097FA6946514809780830095C6170694632
:1058000049780122095CA17069468978095C1143D5
:10581000E17069460979095C217169464979095C39
:10582000617169468979095CA1716946C979085C29
:10583000C2E770B54548464900680968441A00D572
:1058400064424448294D844203D97B20E872A872FF
:1058500012E06421204601F0A2FB384E5236305C43
:10586000E87208460A2101F09AFB305CA8720A210E
:10587000204601F094FB705C687270BD10B51A4848
:10588000007801280DD0072804D0102801D1FFF797
:1058900032F910BD1E4801782F480068FFF798F8CC
:1058A00010BDFFF766FF10BD104900200870087298
:1058B0000D481022007801280CD0072808D01028A5
:1058C00005D126480078002801D040200870704794
:1058D0000A7270470B4800780028F9D07047000022
:1058E0001F0000202200002008000020D801002016
:1058F0000C000020010000200B0000201E000020F2
:1059000016000020D1000020D0000020EC00002074
:1059100009000020ED000020EE000020D60000204D
:10592000D7000020D20000208E01002011000020AE
:10593000DA000020D900002000000020DD910008DE
:105940003800002025382E3466000000F4000020C6
:10595000F8000020E703000080000020FC00002089
:105960007CB501218804FDF7D1F80121C804FDF7B9
:10597000CDF80F2000030090002468460471847164
:10598000032545716946F748FCF791FE0F20800119
:10599000009068460471847145716946F248FCF7CD
:1059A00086FE7CBD10B5F14C2078002805D0FCF7B0
:1059B00036FE2078401E207010BDFCF746FE10BD5C
:1059C000EB488078704710B5E748FCF7C5FE8005C6
:1059D000040FE448FCF7C0FE000A000900010019AA
:1059E000C043C2B201240023E149002A18D08868CC
:1059F000401C8860052849D00A2800D9CC70FF22B5
:105A00002D32904249D9CB7008781422D74B4028C8
:105A10003ED002283ED0012841D0202841D03CE091
:105A20008B608878002805D0C878012802D08B7058
:105A30000B7010BD087810281ED008DC012813D088
:105A4000022813D0042813D0082808D112E02028F7
:105A500014D0402814D0602816D0802812D00B70A3
:105A6000CB700878887010BD052001E00C70F7E756
:105A70000870F5E70320FBE70220F9E70820F7E7C5
:105A80000720F5E70620F3E70F20F1E70A7004E0AE
:105A9000872000E0812088701A70002010BD8520CA
:105AA000F9E78820F7E7B2480021C170817070479C
:105AB00070B5B04CAE4D207801280DD06878401CF0
:105AC0006870C0070ED0FEF7EEFEFEF7C5FE01209F
:105AD0002070FCF7B3FD70BDFCF79AFD002020702C
