:020000040800F2
:10000000400A0020457100086B7100086D710008FE
:1000100000000000000000000000000000000000E0
:100020000000000000000000000000006F710008E8
:1000300000000000000000007171000873710008EA
:1000400075710008000000000D700008757100084F
:10005000757100084D6C0008757100087571000815
:1000600000000000757100087571000875710008C6
:1000700075710008757100087571000800000000B6
:10008000651A0008000000000000000075710008FB
:1000900075710008757100087571000875710008A8
:1000A0007571000875710008757100087571000898
:1000B0007571000800F002F800F047F80CA030C895
:1000C000083824182D18A246671EAB4654465D46D4
:1000D000AC4201D100F039F87E460F3E0FCCB64657
:1000E0000126334200D0FB1AA246AB4633431847E1
:1000F000589800007898000000230024002500266E
:10010000103A01D378C1FBD8520700D330C100D5D3
:100110000B60704710B5662902D109F063FA10BD73
:10012000642902D107F030F910BD002010BD1FB5C1
:10013000C046C04608F072FC04000020002109F00F
:10014000DFF8E0601FBD10B510BD08F0C9FF114613
:10015000FFF7EDFF01F07AFB08F0E1FF03B4FFF7D2
:10016000F2FF03BC09F056F8F8B5FF4F0446012131
:10017000384602F03CFCA04225D0FC4D0020FF2177
:1001800068640131384602F044FCFF2691360020B5
:10019000401CC0B26428FBD30121384602F027FC82
:1001A000686CB04205D00121384602F020FCA04224
:1001B000EDD1FF210131384602F02DFC686CB042D0
:1001C00001D10120F8BD0020F8BDE848E749406AA8
:1001D00080390002000C962801D2642002E0FA283F
:1001E00003D2C8208885C8857047FF225F329042BD
:1001F00002D2FF202D30F5E7FF22C332904202D217
:10020000FF209130EEE7FF20F530EBE7D7480021E3
:10021000803801720173012242738175C175C17406
:1002200005238373072343728272C173017441747F
:10023000CE4A41659160116104220277427741857F
:100240008177C177704708B504226946782006F0A7
:10025000F7FD0020401CC0B2C828FBD36846C34944
:10026000C0788039AA2809D16B465A7818789B78CB
:1002700012189A4202D18007800F00E000204870D7
:1002800004226946F02006F0DBFD0020401CC0B2CD
:10029000C828FBD36846C178B4486038AA2906D17B
:1002A0006B465A7819789B7852189A4200D00121EF
:1002B000017208BD704770B5AC48AC4C603800792D
:1002C0008500AB4840596063A9480C304059A06391
:1002D000606A0002000C08F0B5F8A5490646183916
:1002E000495909F023F8E6632064A1480C384059C5
:1002F00008F0A8F8314609F089F808F05FF81221F3
:1003000041434908E162A06236214843206370BD41
:100310001FB508226946602006F092FD00207D216D
:10032000C900401C8842FCD3684601788F480122EE
:10033000603800290BD06B46DB78AA2B07D16C46BE
:100340006378A4785B18A34201D1C17100E0C27147
:1003500069460979002910D06B46DB79AA2B0CD1AC
:100360006C466379A4795B18A34206D18171022996
:1003700001D10421C17104B010BD8271FBE77FB5CA
:1003800010226946502006F05BFD00207D21C90047
:10039000401C8842FCD368467449C07980390123E7
:1003A000AA2808D16C4662792079A4791218A24251
:1003B00001D1887200E08B726846C27A6B480024D3
:1003C0006038AA2A08D16E46757A327AB67AAD18A4
:1003D000B54201D1027000E004700079002804D019
:1003E0006846C07BAA2803D00BE0CB7204B070BD76
:1003F0006B465A7B187B9B7B12189A4201D1C872BC
:10040000F4E7CC72F2E7F0B585B0584C594D1022A4
:1004100069467020656206F013FD00207D21C90049
:10042000401C8842FCD36846C078AA280DD16B4690
:10043000587819789B7842189A4206D1A28C000409
:100440000902D2B24018104360626846C079AA28F7
:100450000CD16A465179107992790918914205D1E7
:10046000444A616AFF3A114008436062606AA842E8
:1004700001D141486062FFF7A8FE68463B4CC07B53
:10048000803C0025AA280AD16A46517B107B927BCA
:100490000918914203D1C007C00FA07000E0A570F9
:1004A000364E0020401CB042FCD300206F463D5425
:1004B000401C1028FBD310223946802006F0C0FCD7
:1004C0006846C1780120AA2908D16A465178137874
:1004D0009278C918914201D1E37000E0E07069465A
:1004E000C979AA2908D16A46517913799279C9182C
:1004F000914201D1237100E020716946C97AAA298D
:1005000008D16A46517A137A927AC918914201D178
:10051000637100E060716846C07BAA2808D16A4612
:10052000517B107B927B0918914201D1A07100E0B0
:10053000A5710020401CB042FCD300203D54401C5B
:100540001028FBD308226946942006F079FC6A46FD
:10055000D17810780906401891785278090412026F
:100560008918401801490BE0000400488000002071
:100570000C960008FFFFFF0001C8000040E20100E8
:100580004439FC4A08608018FB4A904201D3FB487A
:1005900008606846C079AA2808D16A46517910795E
:1005A00092790918914201D1E07100E0E571FFF7FD
:1005B00082FE05B0F0BDFEB508226946102006F0A7
:1005C0003FFC00207D21C900401C8842FCD36A46C4
:1005D0001178D078090640185178927809041202EF
:1005E0008918E74F45186A46BD641179D079090624
:1005F0004018517992790904120289184418384632
:1006000012268030A5421CD1C16A8D4219D9DD491C
:100610008D4216D2816A284606F0B9FFC4B27C76B4
:10062000284607F00FFF014638468030C06B07F0C0
:1006300015FEB8670120641F38762E2C1FD37E76F6
:100640001DE0C16A8C421CD9016B8C4219D2CC4886
:10065000BC648030816A204606F099FFC5B27D7681
:10066000204607F0EFFE0146C5488030C06B07F01A
:10067000F5FDB86701206D1F38762E2DDFD20120E1
:10068000FEBDC148B8647E76C048B86700203876A1
:10069000FEBD1FB510226946002006F0D1FB0020E8
:1006A0007D21C900401C8842FCD36B461978D8785C
:1006B0000906411858789A78000412028018081820
:1006C0001A79D979120689185A799B7912041B0272
:1006D000D2188918AA4A884207D1AD4B984204D94A
:1006E0009B00984201D2106407E0A948A94BC0437F
:1006F0000818984205D208461164002803D001204A
:1007000039E600201064002035E61FB51022694646
:10071000082006F095FB00207D21C900401C88427E
:10072000FCD36C462178E078090640186178A278FD
:1007300009041202891840182279E17912068A18F0
:1007400061790B04A17909025918511800238C4AC8
:10075000884207D18E4CA04204D9A400A04201D205
:10076000506407E08A488B4CC0430818A04206D268
:1007700008465164002803D001201076FBE553643D
:1007800013760020F7E5F8B57D4C834E617D012995
:1007900009D000210846A1658200401CC0B2B150BA
:1007A0000A28F9D3F8BD0A2106F0F1FE07F04AFE47
:1007B000A065794F0024303F0090A500E8194068FB
:1007C0007959401A07F03EFE0146009807F046FDB1
:1007D000641CE4B270510A2CEFD3F8BDF8B5684937
:1007E0000D6CA8424CD36C49654B30398A6A401B6A
:1007F0009E6D824218D2801A07F024FE6649496A2B
:1008000008F004FE07F0DAFD07F01CFE0446634919
:10081000304608F0FBFD0646284607F013FE314639
:1008200008F084FD214627E00124A2008A58824274
:1008300002D8641C0B2CF8D3A70079188039C96F33
:10084000401A07F0FFFD544979188039C96F08F044
:10085000DDFD07F0B3FD07F0F5FD0746601E07F06C
:10086000F1FD314608F0D2FD0446284607F0EAFDC6
:10087000214608F05BFD394608F058FD07F09EFD63
:10088000F8BDF0B5444F3E4E303F38690022430872
:100890005908F366480831677067B868984201D212
:1008A000F26501E00124F465181A00D54042706633
:1008B0007C68F56D8C4203D2002D0AD10C1B02E03E
:1008C000012D06D1641A4508A54202D2641B346684
:1008D00000E032665918FB68F46D8B4208D2002C98
:1008E00004D1C91A07E0081AB066F0BDB266F0BDBF
:1008F000012CFBD1591A40088842F7D2F3E7F1B531
:100900001F4890B01099006C814202D2084611B085
:10091000F0BD0F1A20481A4930380069CA6D0E928E
:100920004D6E096F0091B84241D23F1A084607F058
:1009300034FB1B4A1B4B07F095F804460E4628462D
:1009400007F02BFB2246334607F0B8F804460D4665
:10095000384607F022FB22462B4607F021FB06F023
:10096000C7FE0E9900291FD007F028FD10994018E6
:10097000CDE7000000004CBD010028000000D84277
:100980000000002080F0FA0200512502DC69BA362E
:10099000C0C62D003F5489002402002000002041E1
:1009A000295C8FC2F528F03F07F008FDBBE000206E
:1009B000019004460290F748416F0D91816E0C91B1
:1009C000016E0991C66E284607F0E7FA0546F01B4E
:1009D00004900391304607F0E0FAEF4AEF4B07F03E
:1009E00041F80B4602462846039907F067F807913D
:1009F000069006E0002C04D0012C18D0022C4CD11B
:100A00004CE00498002800DA4042321A00D55242E5
:100A10000799069D1046039107F0BFFA2A46039BEB
:100A200007F0BEFA06F064FE0590049D32E00098DF
:100A3000451B01D4284600E068420099081A00D5F9
:100A400040420390B742084609D907F0A6FAD24AB5
:100A5000D24B07F007F80A900B910C9808E007F0CA
:100A60009CFACD4ACD4B06F0FDFF0A900B910998F8
:100A700007F093FA0B9B0A9A07F020F80A900B9163
:100A8000039807F08AFA0B9B0A9A07F089FA06F096
:100A90002FFE0190002D36DA6D4234E00D98401B98
:100AA00000D540420D99081A00D5404203900098A5
:100AB000B74209D907F071FAB74AB84B06F0D2FF2E
:100AC0000A900B910C9808E007F067FAB24AB34B12
:100AD00006F0C8FF0A900B91099807F05EFA0B9B8D
:100AE0000A9A06F0EBFF0A900B91039807F055FA6B
:100AF0000B9B0A9A07F054FA06F0FAFD0021C9434D
:100B000007F0A4FC0290641C032C00D272E7019948
:100B1000059808F00BFC029908F008FC07F04EFC61
:100B20000E99002902D01099081AF0E610990818B9
:100B3000EDE6F0B59A4D85B000242001203080B25A
:100B40001022694606F07CF900207D21C900401C76
:100B50008842FCD300206E46A70082009119B25C47
:100B6000CB7812069A184B7889781B040902591819
:100B700051183A189200401CA9500428EDD3641C67
:100B8000022CDAD3002108468200AA58401C5118D2
:100B90000528F9D36A697F488A4205D10121417548
:100BA000FFF76FFE012004E500214175084600E5CE
:100BB000F0B57B4D85B000242001203080B210229A
:100BC000694606F03DF900207D21C900401C88429D
:100BD000FCD300206E46A70082009119B25CCB784E
:100BE00012069A184B7889781B0409025918511873
:100BF0003A189200401CA9500428EDD3641C032C21
:100C0000DAD3002108468200AA58401C51180B284C
:100C1000F9D3EA6A5F488A4206D101214175A86A80
:100C2000FFF7B1FD0120C4E4002141750846C0E48E
:100C30001CB50020044669460C54401CC0B208286C
:100C4000FAD30822500106F034F90020401CC0B24B
:100C5000C828FBD34F482030447084701CBD1CB59D
:100C600008226946500106F0EBF800207D21C900FA
:100C7000401C8842FCD36B461978D8780906411885
:100C800058789A7800041202801808181A79D979CD
:100C9000120689185A799B7912041B02D2188918F6
:100CA000421C01D14A1C01D0884202D0FFF7C0FF8C
:100CB0001CBD384C64212034607006F068FCA170C3
:100CC0001CBD70B5FFF7A2FAFFF7C9FFFFF79BFB4A
:100CD00000207D24E400401C80B2A042FBD3FFF73B
:100CE0004EFB0020401C80B2A042FBD3FFF760FF08
:100CF0000020401C80B2A042FBD3FFF7CAFC0020BA
:100D0000401C80B2A042FBD3FFF755FC0020401CE2
:100D100080B2A042FBD3FFF7F8FC0020401C80B259
:100D2000A042FBD305F002F9FF24C3341D4D002679
:100D30002878002806D02E70641EA4B205F082F830
:100D4000882802D0002CF3D103E0002C01D0012030
:100D500070BD002070BD0F490120C87370470D4958
:100D60000120087470470B490120487470470948F6
:100D70000021817507214172704710B50548002197
:100D80008175072141720120FFF7EEF901492031F9
:100D9000487110BD00000020295C8FC2F528F03F8B
:100DA000F401002009010020F0B5FF4A85B0516C24
:100DB000411A00D54942FC4AFC4F127D130008F04D
:100DC00073FA0C07232323232323232323233534DC
:100DD0000025F54C3D6020642563030E6E4660647B
:100DE0003370020C7270010AB170F070337172715D
:100DF000B171F07108226946002006F05AF8207D92
:100E0000401C2075A5760EE0E74B186B81420CD98B
:100E1000E74C081AA04208D9900019633950521CB7
:100E20001A750020987601F005FABCE600208100D2
:100E3000DE4A401C5C3A7B58C0B253500B28F6D3B4
:100E4000002108468200BA58401C5118C0B20B2835
:100E5000F8D300246D46F9620020A60031188900FD
:100E6000795882000B0EAB540B0C521953700B0ABD
:100E70009370401CD1700428F0D3200110226946E1
:100E8000203006F016F8CB490020401C8842FCD3E5
:100E9000641CE4B2032CDFD3C34C0020E0740120B7
:100EA0006075C2485C38806AFFF76DFC207D401C8D
:100EB000207578E6F0B5BC4C85B0616C411A00D560
:100EC0004942227D0025B94F130008F0EDF90604D0
:100ED0001D1D1D1D2D2C3D6020646563030E6E4697
:100EE00060643370020C7270010AB170F07033717B
:100EF0007271B171F07108226946002005F0D9FFC6
:100F0000207D401C20750BE0606B81420BD9AA4B01
:100F1000081A984207D9900061633950521C227513
:100F2000A57601F087F93EE6A04A00205C3A8100F0
:100F3000401C7B58C0B253500528F8D30021084606
:100F40008200BA58401C5118C0B20528F8D30025B9
:100F500028466B46AE0079613118890079588200C5
:100F60000C0E9C540C0CD21854700C0A401C94703B
:100F7000C0B2D1700428EFD32801102219462030C6
:100F800005F097FFFEE7FEB5874C0025E17D224680
:100F9000137B012910D0526C02292DD0032932D0A5
:100FA000042908D0052906D1A575072060722046BE
:100FB0008030C1690162FEBD012BFCD17F498842AE
:100FC000F9D989008842F6D26565030E60646D46E2
:100FD0002B70020C6A70010AA970E8702B716A719B
:100FE000A971E87108226946104605F062FF01F018
:100FF00021F9E07D401C04E0714951188842DAD99A
:101000000320E075FEBD012BFCD16E498842F9D961
:1010100089008842F6D2801AA06306F0BEFF002243
:10102000694B06F01FFD06460F46E08D06F0B5FF42
:1010300032463B4606F042FD06F05AFB5A4F014647
:101040008037A067F86B07F009F907F0B7F9A064DB
:101050000646B96A06F09BFA6076330E6F463B701F
:10106000320C7A70310AB970FE703B717A71B971C5
:10107000FE7108226946102005F01BFFE07D401C30
:10108000E075A563FEBDFEB5474C2546E17D2B7B93
:101090002035012913D02246494E526C022927D00F
:1010A00027468037032928D0042962D0052905D195
:1010B0000020A07507206072F8693862FEBD012B20
:1010C000FCD13E498842F9D989008842F6D2606451
:1010D00000206065FFF748F86871012805D0E07DC1
:1010E000401CE07501F0A6F8FEBDFFF740FEFEBD16
:1010F00091198842FBD9032039E0012BF7D1B04286
:10110000F5D932498842F2D2801A06F046FF002211
:101110002D4B06F0A7FC054623480E463C300068E0
:1011200007F072F82A46334606F0C8FC06F0E0FAEB
:101130000146A067F86B07F091F807F03FF9A0644B
:101140000546B96A06F023FA60762B0E6E463370B8
:101150002A0C7270290AB170F57033717271B17115
:10116000F57108226946102005F0A3FE07E0E0753E
:10117000FEBD0120FEF7F8FF68710128B5D0E07DC3
:10118000401CF4E7F1B5084820300079012857D118
:1011900005480079012853D10D49009808F036F927
:1011A00007F00CF90B4917E0000000205002002066
:1011B000804F1200801A060070383900C0C62D001A
:1011C00080969800C0E1E4000000E03F00879303B0
:1011D00000401C461027000006F0D9F9FE4A881E80
:1011E00090422DD2FD4CFE4D042905D2009807F007
:1011F0000BF822462B4608E0FA4EFB4F062907D291
:10120000009807F001F832463B4606F036FC14E041
:10121000F148401E814205D9009806F0F5FF2246AC
:101220002B4608E0EC48C01E814209D9009806F020
:10123000EBFF32463B4606F015FC06F059FAF8BDC6
:101240000098F8BDFEB501F00DFAE84D0446E87CC3
:10125000012805D1287B012802D12046FFF7A4FDF3
:10126000687D012806D16879012803D12046FFF75F
:10127000B5FA0446A87D012805D1687A04282046DD
:1012800007D0FFF780FEDA482C650078012803D0EC
:1012900008E0FFF7F8FEF6E7686D002802D1204667
:1012A00001F0CAF8D148D14F407B00258037012892
:1012B0001DD1CE49087B012819D1887B401E00062C
:1012C000000E887313D108464573416C806C661A12
:1012D0000A214843642106F05AF9002E00DA7642CA
:1012E000B04201D9C1484464C048406CB864BF48AA
:1012F000C07B012810D1BD48C573B96C806C661ADB
:101300004000642106F043F9002E00DA7642B04234
:1013100002D9B64845654464B44E307C012805D1F5
:10132000706C844202D93574F06C7065706C201A50
:1013300000D5404201F09AF8F064317E012904D0D2
:1013400007F080F838607860FEBD07F07BF8B16F79
:10135000019108F05BF838600090706D07F072F84A
:10136000019908F053F8F06701462046726C012499
:10137000904204D2B574009807F0D8FF0CE00098B2
:1013800008F01AF803D2B5743968F06F02E0B4744B
:10139000F16F386808F0BEF89449203109790029C6
:1013A0001BD006F031FF8D4A924B06F05BFB06F036
:1013B0009FF9FFF7E7FE7860B96B07F0FDFF00D2F9
:1013C0007D60396C786808F079F804D3396C386836
:1013D00008F074F806D23470FEBD06F015FF864A98
:1013E000864BE2E73570FEBDF0B5804985B0887C5C
:1013F00000287DD0087B00287AD0AA206A46107089
:10140000507000279770D770177157719771487A8D
:10141000D071897A117275498031082803D00B2860
:1014200003D0486802E0C86800E048691546010E2C
:101430005172010C9172010AD1721073577300211D
:10144000977308462A5C401C511880B2C9B20F2815
:10145000F8D3664CE9732034A07810220001FF30E5
:101460002946113005F025FD654E0020401C80B254
:10147000B042FBD300202F54401C80B21028FAD376
:10148000A07810220001FF306946113005F0D8FC29
:1014900000207D21C900401C80B28842FBD300217E
:1014A00008462A5C401C511880B2C9B20F28F8D3F4
:1014B0006846C07B88421BD16078401CC1B2617015
:1014C000A078401CC0B2A070642800D1A770684604
:1014D000077047708770C170077147718771C1715C
:1014E00008226946500105F0E4FC0020401C00E0A1
:1014F00004E080B2B042F9D30120E07095E47FB5FA
:101500003A4907204872012600200C468E7220348A
:101510002070C87269460E714871421C8A71AA25F2
:10152000CD71087248728872CD72087348738873DF
:10153000CD731022502005F0BCFC32490020401C25
:10154000E6718842FBD369460E704D70AB208870FF
:10155000CD70A6710E714D718871CD710822602019
:1015600005F0A7FC00F01CFBFFF762FB7FBDF3B5A5
:101570001E491C4DC87E0C46234F803481B0012883
:1015800004D0022855D02148A061FEBD487F8100CB
:101590001F48405806F038FE124A3B4606F06DFAE6
:1015A00006460D460299019807F0B4FF01460090E7
:1015B000019806F053FE06F027FE32462B4606F051
:1015C000EFFC084A3B4606F04DFA06F091F8294632
:1015D00035460E46A0611DE00D2700002D431CEB93
:1015E000E2362A3F613255302AA9333F00000020FD
:1015F00031010020E2360A3FFCA9F1D24D62403FA2
:10160000204E000087D612002AA9533F719CAD4797
:1016100048960008009806F0F7FD2A46334606F083
:101620004DFA124A124B06F0BBFC06F061F8E0647A
:10163000FEBD087F0F4980000958019806F00EFE94
:1016400006460299019807F065FF314606F006FE4E
:1016500006F0DAFD054A064B06F0A2FC2A463B4698
:1016600006F000FA06F044F88EE70000ADFA5C6D73
:10167000C5FEEF3F2496000810B5CA48FD22007849
:10168000C949C007002802D1087810400870C7482F
:101690000078830703D40B7BBF2423400B734307DD
:1016A00003D40B7BDF2423400B73030703D40B7B92
:1016B000F72423400B73C30603D40B7BFB24234086
:1016C0000B73800602D4087B1040087310BDB84825
:1016D0000025B84EB84F05703078012804D1357018
:1016E00000F041FEFFF7AEFD3878002804D03D70D1
:1016F00004F0A8FB05F083F9B0480178002904D074
:10170000057004F0DFFA03F0F9F9AD48017800291B
:1017100002D0057004F0F1FAAA4801780029DBD064
:101720000570641CE00702D001F0D2F8D4E701F0A4
:10173000B9F8D1E7A44F00249E480178012904D1CB
:10174000047000F010FEFFF77DFD9B480178002932
:1017500004D0047004F076FB04F072FE9748017820
:10176000002908D0047099480078002803D103F0BC
:101770009BFF03F0C3F99248017800290FD0047051
:1017800001F03FF880B200F0D8FE914908608F4820
:101790000078002803D103F0F3FF04F079F88948BA
:1017A0000178002908D004706D1CE80702D001F010
:1017B0008FF801E001F076F8864801780029BBD067
:1017C00004703E688248761C3E600168824800686A
:1017D00007F0A0FE06F018FD05F0A8FE052803DDC1
:1017E0007E480078012806D07D4804707D48017845
:1017F000012904D006E07A4901200870F6E7282E76
:1018000000D9047078480078012811D17748007811
:1018100001280DD176480078092802D2052802D384
:1018200004E00D2802D200F05BFA01E000F089FA32
:10183000E1213868C900884200D87DE76749012066
:101840000870634801686448016075E708B5C820FE
:1018500000F0EEF805F04CFC03F022F900F0DEFF9A
:1018600000F0F5FF01F006F804F0BCFA05F087FA85
:10187000FEF74EFD00F094F905F02CF904226946BC
:10188000742005F0DDFA0020401CC0B2C828FBD34C
:101890006846C078574DAA2806D16A465178107814
:1018A00092780918914200D00120287000206946E2
:1018B00004460C54401CC0B20428FAD304229020E1
:1018C00005F0BEFA0020401CC0B2C828FBD3684611
:1018D000C0784949AA2808D16B465A7818789B786D
:1018E00012189A4201D1087001E020460C70C0B273
:1018F0000C2148434149401829788900405A404901
:10190000088000F015FF3F490020401C8842FCD3AE
:1019100000F0D0FFE1203C4DC000072628803602B1
:1019200003F04FFA2888B04201D100F0D9FF04F04B
:1019300089FA2988002902D08128F1D105E004F034
:1019400081FA012828D08128F9D100F0B3FF03F0F3
:1019500005F9FEF778FCFFF78FFE03F0CFF8FFF7ED
:10196000B0F9C5B203F0F1F8012D19D00D48007897
:10197000800703D503F014F903F0C0F80F491420D1
:101980000A78002A02D00C70401EC0B20028F7D19D
:1019900003F0DBF8FFF7CEFE1C490A200870D4E7FD
:1019A000FFF795FE01000020E40100202800002040
:1019B00001010020D7000020090100200A010020B9
:1019C0000B0100200E01002004010020080000206F
:1019D0009C0000200F010020A00000201E0000201D
:1019E0001F0000200D000020260000200C00002019
:1019F0002700002024000020D10000206C96000861
:101A0000F400002039300000D2000020D000002077
:101A100008B50121022001F0DDF9102069460870A7
:101A20000020487001208870684602F071FE08BDF1
:101A30003EB50446FFF7ECFF01942F216A46118062
:101A4000002010814C4C50806946204601F072FB0A
:101A500001221146204601F0DDFE0121204601F061
:101A6000DAFB3EBD70B5444C0121204601F0E6FE94
:101A7000012803D10121204601F0ECFE3F4CA06873
:101A8000401CA060052868D300260125A6602571AA
:101A9000E068401CE060E0683949884200D9E660AF
:101AA0002069411C2161052801D3266125706069E8
:101AB000401C606160690A284FD3666165703148D7
:101AC0000168491C016004F0AFF904F0BEF9A06997
:101AD000401CA061A0690A283FD3A661A570E069F7
:101AE000401CE061E069032801D1E661E570206AED
:101AF000401C2062206A05282FD32662A571606AE7
:101B0000401C6062606A022827D36662E5711E4845
:101B100000780C2809D11D480078012805D11C49FE
:101B20000878002801D0401E08701A490888401E15
:101B3000088019490888401C80B20880E121C9004A
:101B400088420AD1154C2078002806D102F0FDFF0A
:101B500002F0D4FF257000F0C3FE70BD0748C068D6
:101B600070470649002204E04B79002B01D04A71EE
:101B7000401E0028F8D170470004004008010020F2
:101B800060EA0000C400002009000020EE000020F0
:101B9000ED000020D20000202A00002008000020D4
:101BA00030B5012189B0480401F002F90121880310
:101BB00001F007F90921CD060122284600F035FF82
:101BC00001220A21284600F030FF0320400206903F
:101BD00002206A461077002494770121D1770320F0
:101BE000507706A9284600F0B4FEF748007801288F
:101BF00007D0022808D003281AD04B21C901009130
:101C000005E04B20000101E04B20400100900194D1
:101C10000294039405940C20EC4C049069462046F1
:101C200001F0E9FE0121204601F044FF09B030BD7A
:101C30004B208001EAE7E549CA691206FCD5E34971
:101C400020310881704730B50D460446002305E079
:101C50002078641CFFF7EFFF5B1CDBB2AB42F7D3CD
:101C600030BD00B5034602E05B1CFFF7E4FF1878C7
:101C70000028F9D100BDD548C1698906FCD5D348F3
:101C800020308088C0B2704730B58DB06B467E2062
:101C900018707F2058700120987002210022D9709E
:101CA0001A715A719A71DA7119725A721C469A72C3
:101CB000EA20E072EB2020730D2102208C1E03E04D
:101CC0001D5CAA1892B2401CA042F9D35A54100AC3
:101CD000491C58541846491CFFF7B5FF0DB030BDDC
:101CE0007FB5BB480078002801D02B2000E02D20D4
:101CF000694608702024B7484C700578B6486E468F
:101D0000006806F081FA012D02460B4614D0B3A1FB
:101D1000B01C05F0FDFA6846447269468C72672073
:101D2000C8720C734C730D2088730A20C87310217D
:101D30006846FFF788FF7FBDAAA1B01C05F0E8FA4E
:101D4000EBE77FB541206946087020244C70A0481D
:101D50008C700078002801D02B2000E02D20C87066
:101D60009C480E4605789C48006806F04DFA012D07
:101D700002460B4612D099A1301D05F0C9FA6846FB
:101D8000C47269460C73672048730D2088730A205B
:101D9000C87310216846FFF756FF7FBD91A1301D23
:101DA00005F0B6FAEDE700B51B20FFF744FF36203B
:101DB000FFF741FF00BD00B51B20FFF73CFF3720B8
:101DC000FFF739FF00BD10B58848894C007886B010
:101DD00000280BD087A0FFF744FF207808380300C5
:101DE00007F062FA0527292B2D2F390000F0B6F9EC
:101DF00083A0FFF736FF00F0B9F93A206946087072
:101E00002020487000F0AAF920780838030007F075
:101E10004BFA050406080A0C0E007CA012E07DA017
:101E200010E07EA00EE07FA00CE080A00AE080A081
:101E300008E081A006E083A004E086A002E088A07C
:101E400000E08BA0FFF70DFF0A20FFF7F4FE00F083
:101E50008DF906B010BD89A0F4E7F0B5634885B0F0
:101E6000007800281DD000F081F986A0FFF7F9FE68
:101E700057486C460078002817D02020207055481D
:101E80005B4D037882495448824A834E2F78012B58
:101E90000DD0083F3B0007F007FA05373E6959614E
:101EA000690000F05BF97DA0E0E72D20E6E7083F40
:101EB0003B0007F0F9F905040B21111921007A49BB
:101EC000601C0A6879A105F023FA03E008680CE0B9
:101ED00005F01EFA092023E0106806F095F9024685
:101EE0000B46601C72A1F3E7306806F08DF90246DC
:101EF0000B46601C70A1EBE7006806F085F902460E
:101F00000B46601C37A1E3E76749601C0A686CA1B7
:101F100005F0FEF903E0086821E005F0F9F9082072
:101F2000002121546846FFF79CFE2878082825D018
:101F3000092825D00B2825D062480078022823D014
:101F4000032825D0042821D05FA022E0106806F0E5
:101F50005BF902460B46601C5CA1DEE7306806F0C8
:101F600053F902460B46601C5AA1D6E7006806F0FA
:101F70004BF902460B46601C18A1CEE757A008E0BB
:101F800058A006E059A004E059A002E059A000E0E2
:101F900059A0FFF766FE0A20FFF74DFE05B0F0BD21
:101FA00000B51B20FFF747FE4020FFF744FE1B2033
:101FB000FFF741FE6320FFF73EFE0020FFF73BFEE8
:101FC000FFF7F1FE00BD00002700002000380140AF
:101FD00012000020240000208400002025372E332A
:101FE0006600000025382E34660000000200002044
:101FF00009000020435552525F4D4F44453A20009E
:10200000B5B1C7B0C4A3CABD00000000BCC6CAFDBC
:1020100000000000C3DCB6C800000000BCECD6D84D
:1020200000000000B0D9B7D6B1C80000B6AFCEEFFF
:10203000B3C6D6D800000000434F554E545F4D4FF5
:102040004445000044454E534954595F4D4F444563
:1020500000000000434845434B5F4D4F444500009E
:1020600050455243454E544147455F4D4F4445000E
:10207000414E494D414C5F4D4F44450057454947FE
:1020800048540000435552525F444154413A2000A5
:102090009800002094000020E8000020B5B1C7B0EF
:1020A000CAFDBEDD3A2000008C0000202538640007
:1020B00025382E326600000025382E3166000000DB
:1020C000253764000A0000202067200025372E32C3
:1020D0006600000025372E31660000002070637313
:1020E0000000000020672F6D330000002025200035
:1020F000206D6700206F7A002063740010B586B0F1
:10210000FFF74EFF00F03AF8FFF75DFEFFF7A5FE80
:102110003748007800281DD036A0FFF7A2FD00F058
:1021200025F801206A465F211154401CC0B21428D2
:10213000FAD300241046D473FFF793FD0A20FFF76B
:102140007AFD0A20FFF777FD0A20FFF774FD2C487F
:1021500004707EE600F002F82AA0DEE700B51C203D
:10216000FFF769FD2620FFF766FD2BE700B51C2071
:10217000FFF761FD2E20FFF75EFD23E710B51B2062
:10218000FFF759FD5620FFF756FD0220FFF753FDDC
:10219000FFF7ECFF1D48642100680002000C05F009
:1021A000F6F930300B46C0B2FFF745FD18460A215C
:1021B00005F0EDF93030FFF73EFD3020FFF73BFD35
:1021C000134800783330C0B2FFF735FD0848007877
:1021D000002808D00FA0FFF744FD0A20FFF72BFDD1
:1021E000FFF7C4FF10BDFFF7B9FF0FA0F3E7000032
:1021F000020000205369676E61747572653A0000D1
:1022000002010020C7A9C3FB00000000A4000020B9
:1022100024000020454C454354524F4E4943204230
:10222000414C414E43450000B7D6CEF6CCECC6BD7E
:1022300000000000F64900204863F6490870704726
:1022400030B5F54B00201C4640341D468035024613
:1022500081005A506250401C6A501028F8D3EE4951
:102260000020C0318300401CCA501028FAD3EB492B
:1022700000208300401CCA501028FAD3E44882632F
:10228000C2630264426430BDF0B5E148E34BC06B09
:10229000403B91B0012804D0DD4900200246896B03
:1022A0002EE000206E468100401C5A58C0B2725089
:1022B0001028F8D3002100200F22571A09E08400CB
:1022C000A51932596B689A4201D933516A60401C92
:1022D000C0B28742F3DC491CC9B20F29EBD30021FD
:1022E00004208200B258401C5118C0B20C28F8D308
:1022F000C80811B0F0BD94001C592018521CD2B26D
:102300008A42F8D305F043F9F3E7F0B5C24A90B03A
:10231000002080326E468100401C5358C0B273507A
:102320001028F8D3002100200F22571A09E084005A
:10233000A51932596B689A4201D933516A60401C21
:10234000C0B28742F3DC491CC9B20F29EBD300218C
:1023500004208200B258401C5118C0B20C28F8D397
:10236000C80810B0F0BDF8B504F08FFCA84DE969BD
:10237000091A00D54942AA4AA64E0024914209DD15
:1023800034706C632C626C626C642C646C70AC7026
:10239000EC702C71E86100F08FF9296A491C296200
:1023A0000F2903D9696A491C696200E06C622865DB
:1023B00000F0A3F9696A9B4F0F290AD86A6DA96CCE
:1023C000891A00D549423A780A235A43914200DBE0
:1023D000286D686500F049F9A96C091A00D54942D1
:1023E0003B78012299420DDA696B8F4B491C696376
:1023F0001B78042B03D00A2905D9327003E0142975
:10240000FBD800E06C63A8643078012802D06C70BF
:10241000AC700CE085486A700078012807D18448C8
:102420000078002803D183480078012802D0EC709E
:102430002C71F8BDEA70F8BD10B5754A9178491C49
:10244000C9B29170032910D100217B4B917019689A
:10245000411A00D54942734A1278D400A21A8A421E
:1024600003D9764A01211170186010BD70B5044679
:102470006848674D007801280DD16A4806786420C5
:102480007043A04207D269480078012803D1684808
:102490000078002802D00020A8620AE0A86A401C48
:1024A000A862012805D0062105F071F8002902D0A4
:1024B00014E0EC6212E0EA6AA01A00D54042B100D2
:1024C000814208D95C4B9442196801D9081800E090
:1024D000081A186002E0EC62FFF7ACFEE86A70BD13
:1024E00070B550494A4C0A7864215143814202D266
:1024F0002179002901D0206370BD236BC11A00D55A
:10250000494255005219914207DC5900C20059183E
:10251000101A08180A2105F03AF8206301202071EA
:10252000206B70BD00203D49024640314300401CF5
:10253000C0B2CA521028F9D37047F8B5344B374AA5
:10254000197840324C001053491CC8B2187010283A
:1025500002D03B480068F8BD0020187001464300D7
:10256000D35A401C5918C0B21028F8D30C09204681
:1025700005F013FD334A344B05F08AFA05460A206C
:102580000E46604305F009FD2A46334605F096FAEB
:1025900005F0AEF82D492E4A0546884202DA2D484C
:1025A000854201DC1046F8BD2B4E0124A0003158B5
:1025B000284606F083FF02D3641CE4B2F6E7A000CD
:1025C000375880198038C06F394606F0A3FF064699
:1025D0003946284606F09EFF314605F03FFE1F496A
:1025E00006F014FF05461C486030005D05F02AFF28
:1025F000294606F08FFF1A4906F08CFFF8BD044803
:10260000C06C70470248006D70470148406D7047CC
:10261000300100200C0000208002002080030020F8
:1026200050C3000019000020090000201500002000
:102630001600002003000020440000201A000020A3
:102640009C000020ACC5A7000000B040CB21244274
:10265000CDCCC7428195033F9C9600080000A04066
:102660000000E0402F48806C704710B52D4A2E4B7B
:10267000116C8C00491C18511164102905D0506C44
:10268000012806D00020024611E0012050640020FD
:1026900010640021084682009A58401C51181028E6
:1026A000F9D3080910BD94001C592018521C8A4205
:1026B000F9D304F06CFF10BD70B51A4A916809187F
:1026C0009160814202D2D3685B1CD3601369174DBD
:1026D0009C002E598E1B96608E4202D9D168491EED
:1026E000D1605B1C28511361102B01D100201061B7
:1026F000107B0006310A084370BD70B5094B0B4DC5
:10270000596940350C1899698A00AE58491CA41BB8
:102710005C61A8509961102901D1002098612009BD
:1027200070BD0000300100208003002080020020E6
:1027300070B5012194B0C80400F03AFB01214802B1
:1027400000F03FFB0121084600F032FB102006900C
:1027500003206946087706A92B4800F0FAF82B4DAC
:10276000284602F0CFF82A4808902A480024042678
:1027700009A951C180200D9040000E9080000F905B
:10278000202010900C940002119008A91294284661
:1027900002F0EAF80121284602F00FF91C4D02214F
:1027A000403D284600F047FC0121284600F039FC56
:1027B000684600F082FB012069460094087102948B
:1027C00028460596049400F065FB0522310328464F
:1027D00000F0E0FB284600F000FC0121284600F054
:1027E00020FC0121284600F070FB0B4C28462146B6
:1027F00000F031FC0028F9D0284600F00AFC14B0A3
:1028000070BD044800887047000800480800024076
:102810004024014088010020010000017CB5012115
:10282000480400F0C5FA01242403012069460094FD
:10283000087100208871032009254871ED0628469B
:1028400000F087F82146284600F0E3F87CBD1CB56F
:102850000121880400F0ACFA012040020090012020
:10286000694608710020887103204871234800F0F0
:1028700070F81CBD7CB50121C80400F099FA012450
:1028800064030120694600940871002088710320C8
:102890001B4D4871284600F05CF82146284600F0A0
:1028A000BAF87CBD10B5012109200903C00600F06B
:1028B000B2F810BD10B501214902104800F0A9F886
:1028C00010BD10B5012149030D4800F0A2F810BD5C
:1028D00010B5012109200903C00600F09AF810BDC7
:1028E00010B501214902054800F095F810BD10B55A
:1028F00001214903024800F08EF810BD0004004891
:1029000000080048092110B5C906884202D10121FA
:102910004C0404E04D49884209D1012104022046BB
:1029200000F061FA0021204600F05DFA10BD484930
:10293000884202D101210402F1E74649884202D1CE
:1029400001210C05EBE744498842EFD101218C05B8
:10295000E5E7F0B50022032501230C6893401C40F5
:102960009C422AD10C79012C01D0022C12D187680B
:1029700054002E46A640B74387604E79A64084682F
:102980002643866084889C43848084888B79934026
:102990001C438480066853002C469C40A643066076
:1029A0000E7907689E403E430660C668A643C6602F
:1029B000CC799C40C3681C43C460521C102ACBD302
:1029C000F0BD26490160002101710122427181712F
:1029D000C1717047012208B512040A430092C26116
:1029E000C1610099C161C169C069009008BD02461A
:1029F000128A00200A4200D001207047008A7047E6
:102A00000246928A00200A4200D001207047808A44
:102A100070478161704701857047002A01D081614C
:102A2000704701857047818270474B07DB0E9A40E3
:102A3000C90810B589000818016A0F249C40A143F9
:102A40000162016A1143016210BD000000040048E8
:102A500000080048000C004800140048FFFF000078
:102A6000F64801680122114301604168F44A1140AF
:102A700041600168F34A114001600168012292043B
:102A80009143016041683F22120491434160C16A51
:102A900009090901C162016BFF22543291430163AC
:102AA000416B490849004163002181607047E34957
:102AB00000228A708870704703460020DF4A590957
:102AC0000CD001290CD002290CD0516BDA06D20EA1
:102AD000012393400B4200D0012070471168F5E7B5
:102AE000116AF3E7516AF1E718B5002005242403C1
:102AF00000901120FFF7E0FF0099491C0091A142CE
:102B000001D00028F5D01120FFF7D6FF002800D013
:102B1000012018BDC94A1168F8239943C000084331
:102B200010607047C5490028086802D00122104390
:102B300001E04008400008607047C04A516BF8232C
:102B40009943C000084350637047BC490028486B54
:102B500002D00122104301E0400840004863704762
:102B6000B64904220028486B01D0904300E010438E
:102B700048637047B1490A6A520852000A620A6AF9
:102B800004239A430A620A6A02430A627047AB4905
:102B90000A6A18239A430A620A6A02430A62704761
:102BA000A6490028486A02D00122104301E04008EB
:102BB00040004862704710B5A04A53687B24E40384
:102BC000A3435360536808430343536010BD01227D
:102BD0009A4912060028086801D0104300E090438B
:102BE00008607047954AD16A090909010143D16219
:102BF000704701229149D2040028086801D010438F
:102C000000E09043086070478C4B5A681202120A29
:102C100000060843104358607047884A5168890885
:102C20008900014351607047844840680C21084086
:102C30007047824A5168F0239943014351607047BD
:102C40007E4A516807231B02994301435160704734
:102C50007A494A6801239B039A434A604A6883B2CF
:102C60001A434A600A6B8B159A430A630A6B000C7D
:102C700002430A63704771490A6B40239A430A630F
:102C80000A6B02430A6370476C490A6B10239A432C
:102C90000A630A6B02430A63704768490A6B920829
:102CA00092000A630A6B02430A637047F8B5634EE9
:102CB000044670680C21644D084003D0042801D0FC
:102CC000082801D0256012E071687068032289022B
:102CD000D2030F0F1040BF1C00281CD0F06A010760
:102CE000090F2846491C04F052FC784320607068A4
:102CF000564B0006000F1A5C20680146D140616007
:102D000072685205520F9A5CD140A160326BD205B5
:102D100005D44F4A09E04F4847432760E7E7726808
:102D2000520401D44A0800E08A08E260326B4A4B40
:102D3000520603D4484A1232226100E02361326B0A
:102D4000D20601D4656100E06061326B92070FD05A
:102D5000316B8907890F01290CD0306B8007800FF8
:102D6000022809D0306BC043800700D1A561F8BDAF
:102D7000A161F8BDA061F8BDA361F8BD2F490A6A41
:102D800002430A6270472D490028334A086A01D07D
:102D9000104300E090430862704701222749120463
:102DA0000028086A01D0104300E090430862704791
:102DB000224A0029516901D0014300E08143516159
:102DC00070471E4A0029916901D0014300E0814308
:102DD00091617047194A0029D16901D0014300E08F
:102DE0008143D1617047154A0029916A01D001439E
:102DF00000E0814391627047104A0029D16801D0F8
:102E0000014300E08143D16070470C4A00291169F9
:102E100001D0014300E0814311617047074A002956
:102E2000517A01D0014300E0814351727047034859
:102E3000416A0122120611434162704700100240AC
:102E40000CB8FF08FFFFF6FE00127A008A0100208E
:102E5000809FD50000093D0000800000054A014622
:102E6000926800200A4200D0012070470149887210
:102E70007047000000100240854910B5884208D113
:102E8000441501212046FFF7B7FF00212046FFF738
:102E9000B3FF10BD30B5C2687E4B8C681A400B681A
:102EA0000D792343CC686D032C4323430C69496996
:102EB00023430B431343C36030BD00210160017104
:102EC0008160C1600161416170470029816801D062
:102ED000012200E00222114381607047002A02694A
:102EE00001D00A4300E08A43026170470122D20305
:102EF0000029C16801D0114300E09143C1607047CF
:102F0000012292030029C16801D0114300E09143DE
:102F1000C16070470122D2050029C16801D0114368
:102F200000E09143C160704709041143016270479A
:102F3000C2681F239B069A430A43C260704701225E
:102F400092050029C16801D0114300E09143C1609E
:102F5000704701225049D2050028886801D01043EB
:102F600000E090438860704701224B499205002899
:102F7000886801D0104300E09043886070470122C8
:102F8000454912060028886801D0104300E09043AC
:102F900088607047836A0B438362426170470122F5
:102FA00052030029C16801D0114300E09143C16080
:102FB0007047012212040029C16801D0114300E0CA
:102FC0009143C1607047012212030029C16801D0FA
:102FD000114300E09143C1607047826800210123E2
:102FE000DB071A4382600F231B038268491CD20F40
:102FF000D207994201D0002AF7D18168002901DB6C
:10300000006C704700207047816810221143816076
:10301000704781680422114381607047006C80B260
:1030200070470029C16802D00122114301E049081C
:103030004900C1607047C26802239A43C260C268F7
:103040000A43C2607047002A426801D00A4300E088
:103050008A434260704702460020CB0104D5926843
:1030600001231B069A4300E012680A4200D00120A7
:1030700070470160704702465368002012680B4099
:103080000A4202D0002B00D0012070470160704737
:103090000024014003D2FFFF00270140F64910B58C
:1030A000884202D10121C41430E0012189078842FD
:1030B00006D101210846FFF7A8FE0021012008E003
:1030C000EE49884208D101210220FFF79EFE00212F
:1030D0000220FFF79AFE10BDE949884206D101217E
:1030E0001020FFF792FE00211020F2E7E549884208
:1030F00007D1841501212046FFF787FE00212046D5
:10310000E7E7E149884209D101210C042046FFF795
:1031100073FE00212046FFF76FFE10BDDB49884299
:1031200002D101214C04F1E7D9498842F5D10121AE
:103130008C04EBE710B50288CF4B984206D00124EF
:10314000A407A04202D0CD4CA04203D17024A243D8
:103150004C882243CA4CA04203D0CE4C22400C895A
:10316000224302804A68C2620A880285984208D0D7
:10317000C54A904205D0C54A904202D0C44A904206
:1031800001D1897A01860121818210BD0021C943C4
:103190004160002101800181418081727047018579
:1031A00082827047028870239A430A4302807047E4
:1031B00041627047C1627047406A7047008D704736
:1031C00002220029018801D0114300E091430180CF
:1031D000704704220029018801D0114300E0914387
:1031E0000180704780220029018801D0114300E04E
:1031F000914301807047028808239A430280028825
:103200000A43028070470288A24B1A40028002885B
:103210000A43028070470029018802D0012211432D
:1032200001E0490849000180704710B50A884B88C1
:10323000CC881A438B8823431A430B891A434B8942
:1032400089891A430A434030828010BD00210180E1
:1032500041808180C18001814181818170474030FE
:103260000029818803D00122D203114301E04904DF
:10327000490C8180704770B5028C5208520002845C
:10328000048C8288038B7025AB439B080D889B00C0
:103290001D4302239C438E894B882643764C33433F
:1032A000A04208D0784CA04205D0784CA04202D071
:1032B000774CA0420DD10824A343CC891C4304239E
:1032C0009C438B882343734C22400C8A14434A8AC4
:1032D00022438280058389684163038470BD70B591
:1032E000028C10239A430284048C8288038B6A4DDB
:1032F0002B400D782D062D0C1D4320239C438B89DC
:103300001B051E0C4B8826431B051B0C5A4C3343D4
:10331000A04202D05C4EB04219D1604E32400E8ABB
:10332000B604360C3243A04211D18024A343CC8989
:103330002405240C1C4340239C438B881B051B0C39
:103340002343574C22404C8AA404240C22438280FD
:10335000058389688163038470BD30B5028C514B4D
:103360001A400284038C8288848B7025AC43A408A5
:103370000D88A40025434C4C23400C7B2406240CD0
:103380001C438B781B061B0C23433B4CA04215D1DE
:10339000434C23408C7B2406240C1C433F4B1C4095
:1033A0000B791B061B0C2343404C22400C8A24053E
:1033B000240C14434A8A1205120C2243828085830E
:1033C0008968C163038430BD30B5028C384B1A4024
:1033D0000284058C8288838B2F4C23400C78240632
:1033E000240C1C43334B1D400B7B1B071B0C2B4336
:1033F0008D782D072D0C1D431F4B984205D12E4B68
:1034000013400A8A9205120C1A43828084838968C9
:103410000164058430BD002101804180818081608C
:103420008181C18101824182704730B503461833E2
:103430000124058C8C40A5430584002910D008295F
:103440000ED0091F0804400CC018016807231B0395
:103450009943016001681206120C1143016030BDEE
:103460004808C01801687023994301600168F4E7B7
:103470004163704781637047002C014000040040A5
:103480000010004000200040004001400044014086
:1034900000480140FFFC0000FF8C0000FFFB000023
:1034A000FFF70000FFFE0000FFFD0000FFCF00005F
:1034B000FFEF0000FFDF0000FFBF0000C1637047A7
:1034C00001647047028B70239A430A43028370475A
:1034D000028BF64B09021A40114301837047828B1D
:1034E00070239A430A4382837047828BEF4B090211
:1034F0001A401143818370470029818802D001223C
:10350000114301E04908490081807047028B08237C
:103510009A430A4302837047028BE54B09021A4023
:10352000114301837047828B08239A430A438283A5
:103530007047828BDE4B09021A401143818370472A
:10354000028B04239A430A4302837047028BD94BB0
:1035500009021A40114301837047828B04239A4366
:103560000A4382837047828BD24B09021A4011436F
:1035700081837047028B80239A430A4302837047FA
:10358000028B5204520C0902114301837047828B53
:1035900080239A430A4382837047828B5204520CE1
:1035A0000902114381837047028C02239A430A4324
:1035B00002847047028C08239A430A4302847047AE
:1035C000028C20239A430901114301847047028C25
:1035D00080239A430901114301847047028CB64B42
:1035E00009021A40114301847047028CB04B090252
:1035F0001A40114301847047028CB04B09031A40F2
:10360000114301847047028908239A430281028989
:103610000A430281704710B50123048C8B409C4300
:103620000484038C8A401343038410BD10B5042323
:10363000048C8B409C430484038C8A401343038492
:1036400010BD04220029818801D0114300E091437C
:1036500081807047828B9A4B1A408283828B090249
:103660000A4382837047828B0C239A438283828B26
:103670000A4382837047028B914B1A400283028B6C
:1036800009020A4302837047F0B5048C1026B44344
:103690000484058B048C8B4F1B0309013D402B4395
:1036A00012021A43A0239C430C4334430283048434
:1036B000F0BD028B0C239A430283028B0A430283E0
:1036C000704770B5048C640864000484058B048C16
:1036D0001B011343F3260A22B54394432B430C43A7
:1036E00001210C430383048470BDF8B505460888A6
:1036F0004E888A880B890C4600281DD0042824D0C7
:103700000828288C2AD0704908402884A88B2F8C40
:1037100031036C4E120230400243180310436B4ACF
:10372000A88317400F43012109030F432F84E18829
:103730002846FFF78FFFF8BD31462846FFF7C1FF47
:10374000E1882846FFF7B5FFF8BD31462846FFF768
:103750009BFFE1882846FFF78EFFF8BD5C490840D3
:103760002884A98B288C3702F3261B01B14313430D
:103770000B435849AB830840FF21384301310843CC
:103780002884E1882846FFF76EFFF8BD00210180FC
:10379000418001228280C18001817047F8B50C46CA
:1037A0004988002601250746002900D10226A28863
:1037B000012A00D10225208823890028384610D00C
:1037C000FFF762FFE1883846FFF755FF23892A4655
:1037D00031463846FFF775FFE1883846FFF769FF45
:1037E000F8BDFFF76EFFE1883846FFF762FF2389D7
:1037F0002A4631463846FFF747FFE1883846FFF74B
:103800003AFFF8BD406B7047806B7047C06B7047E4
:10381000006C7047002A828901D00A4300E08A4385
:1038200082817047818270470246128A00200A42D4
:1038300000D001207047C943018270470246138AB5
:10384000002092890B400A40002B02D0002A00D0B1
:1038500001207047C9430182704711434030018104
:103860007047002A828901D00A4300E08A4382819E
:10387000704708220029818801D0114300E091435C
:10388000818070470189C908C90001817047028998
:1038900070239A430A430281704710B50446FFF72C
:1038A000F6FF208907210843208110BDFF8F00000B
:1038B000FFF70000FFFB0000FFFD0000FFDF00003E
:1038C000FFF30000FF0C0000FFEF0000FF5F0000AF
:1038D000FFFE0000FFF5000070B516460D460446D9
:1038E00060290CD001223146FFF7EBFE2946204625
:1038F000FFF7CDFF208907210843208170BD0122F9
:103900003146FFF7C1FEF1E710B504891B021343EE
:10391000E4B20B432343038110BD10B50446FFF707
:10392000F3FF2089C108C9000720014370208143AB
:103930000143218110BD10B50446FFF7E5FF208942
:10394000012189030843208110BD828870239A4396
:10395000828082880A43828070470289D208D2001E
:10396000028102890A4302817047028980239A43B7
:10397000028102890A430281704770B50589048B70
:10398000068CED08ED000D430C4905810C40FF212C
:1039900002310C43AA218E431901114331430483A0
:1039A000018470BD80220029818801D0114300E08C
:1039B000914381807047403001827047FCFC0000D9
:1039C000F74910B5884209D101218C032046FFF741
:1039D00013FA00212046FFF70FFA10BDF149884283
:1039E000FBD101214C042046FFF70FFA00212046AD
:1039F000FFF70BFA10BD30B50446006887B00D46DE
:103A00004008400020606068032109038843A968DA
:103A1000014361602068E449EA680840696811432D
:103A20002A69024311432160A068032109028843E7
:103A300069690143A1606846FFF738F9D8488442B4
:103A400001D1069800E0029821680904296800D590
:103A5000400003F09CFD2A6852088A4200D8401CAE
:103A60002168090404D50107D04A490F10400843D2
:103A7000A08107B030BD4B21C90101600021416028
:103A800081600C22C16002614161704710B54368DA
:103A90000F221202934314C922430C6849680C4355
:103AA00022431A43426010BD0021016041608160E1
:103AB000C16070470029016802D00122114301E072
:103AC0004908490001607047002A026801D00A4392
:103AD00000E08A43026070470122D2030029016896
:103AE00001D0114300E09143016070470122D202EE
:103AF0000029816801D0114300E091438160704743
:103B00000122D2040029416801D0114300E0914311
:103B100041607047012292040029416801D011439D
:103B200000E0914341607047002A426801D00A4397
:103B300000E08A43426070470122D20300294168B5
:103B400001D0114300E09143416070470122D2054A
:103B50000029416801D0114300E091434160704762
:103B60004269120E1206426142690A43426170477D
:103B7000028A120A12020282028A0A4302827047F1
:103B800002220029016801D0114300E09143016045
:103B90007047826803231B059A43826082680A4348
:103BA00082607047012212050029416801D011434B
:103BB00000E0914341607047426803235B059A43EC
:103BC000426042680A4342607047C905C90D0185D9
:103BD0007047808CC005C00D704742681202120AFF
:103BE0004260426809060A4342607047012252035C
:103BF0000029016801D0114300E091430160704742
:103C000002680123DB029A43026002680A430260F1
:103C10007047426810239A43426042680A434260F8
:103C20007047426820239A43426042680A434260D8
:103C30007047012292030029416801D0114300E03E
:103C400091434160704708220029816801D01143E7
:103C500000E0914381607047028AD2B20282028AF8
:103C600009020A430282704720220029816801D09C
:103C7000114300E091438160704710220029816860
:103C800001D0114300E091438160704782680723AF
:103C90005B049A438260826849040A4382607047E9
:103CA00042691202120A4261426909060A434261EC
:103CB0007047826804239A43826082680A43826064
:103CC000704702220029816801D0114300E091432E
:103CD00081607047012292030029816801D011435D
:103CE00000E091438160704782680123DB039A43BF
:103CF000826082680A438260704702681F235B0506
:103D00009A430260026849050A43026070470268EC
:103D10001F231B049A430260026809040A430260DD
:103D20007047002A826801D00A4300E08A4382601B
:103D30007047826801235B039A43826082680A436A
:103D40008260704710B50B041C0E01238B40022CBF
:103D500002D0032C02D002E0001D00E00830016810
:103D6000002A01D0194300E09943016010BD002AE8
:103D7000028B01D00A4300E08A43028370478268C5
:103D800001231B039A43826082680A438260704762
:103D90000246D26900200A4200D00120704700008C
:103DA0000038014000440040F3E9FFFFF0FF00004D
:103DB0000162F3E730B50A04130E01252A460024F8
:103DC0008A40012B0ED0022B0ED08368090C1340C1
:103DD000C0698D402840002B02D0002800D001246B
:103DE000204630BD0368F1E74368EFE7090C012284
:103DF0008A400262D2E7000030482F49016000216A
:103E000041608160C1602E494161704710B583797E
:103E10002A490268002B26D00B6893430B604A683E
:103E200003689A434A60027952181368046823436E
:103E300013608A6803689A438A60CA6803689A4371
:103E4000CA604279102A05D051180A6800680243F6
:103E50000A6010BD8A6803681A438A60CA680068ED
:103E60000243CA6010BD00794018016891430160A7
:103E700010BD0021016001710C22427181717047F7
:103E80000E490A6902430A6170470C4A01465269A9
:103E900000200A4200D0012070470849486170475D
:103EA000064A0146526900200A4200D001207047AC
:103EB00002494861704700000000940F000401406F
:103EC000FFFF6B0018B50020F94B00909868800642
:103ED00001D5012018BDCA20586253205862D86805
:103EE000A0218843D86020218C02D868009A08401D
:103EF000521C0092A24201D00028F6D0D868800659
:103F000001D5012000E00020FF21596218BD18B53D
:103F10000020E74B0090D868400612D40020C04330
:103F2000D86040210C02D868009A0840521C0092C8
:103F3000A24201D00028F6D0D868400601D4002063
:103F400018BD012018BD30B50025D94CCA206062CB
:103F500053206062FFF7DBFF002814D000212160AE
:103F6000D4486060A068A160D3482061E161E1624B
:103F7000E163CF4840304160E1600160FFF7A2FF9C
:103F8000002800D00125FF206062284630BDC848C7
:103F9000C16880229143C160704770B50546002614
:103FA000C34CCA20606253206062FFF7B0FF002854
:103FB00011D0A06840218843A060A0682968084308
:103FC000A060A86820612069A988090408432061CD
:103FD000FFF7DDFF0126FF206062304670BD002143
:103FE00001607F214160FF2181607047B049002856
:103FF00001D0FF2002E0CA20486253204862704787
:1040000070B506460025AA4CCA2060625320606243
:10401000FFF77DFF00280AD01021A068002E01D0F4
:10402000084300E08843A060FFF7B1FF0125FF20AF
:104030006062284670BD9E49CA224A6253224A6283
:104040000028886802D02022104301E0DF221040BF
:104050008860FF2048627047F8B50C4600260100D2
:10406000934F2078B968324604D049062DD500F028
:1040700044FB2BE0490600D4E27000F032FB05045B
:10408000607800F02EFB00020543A07800F029FBC9
:104090000543E07800040543CA2078625320786223
:1040A000FFF735FF00280CD0844805403D60FFF73E
:1040B0006EFFB868800603D4FFF704FF002800D025
:1040C0000126FF2078623046F8BDE2702078A5789E
:1040D000000405436078E178000209040843DAE748
:1040E0000021C170017041708170704770B5034646
:1040F0006F480C46026871481146014088024D0421
:10410000800E20706D0E49066570490EA170510237
:10411000490E40221140E170002B0AD100F0EDFA67
:104120002070607800F0E9FA6070A07800F0E5FA9D
:10413000A07070BD5E49886A4968704770B50C46CA
:104140000026010060780ED000F0D7FAA07800F0C9
:10415000D4FAE078A578000405436078217800025D
:104160004903084314E0C10603D5EF2108400A3093
:104170006070E07800F0B5FA0504607800F0B1FAFC
:1041800000020543A07800F0ACFA05432078400314
:104190000543474CCA20606253206062FFF7B7FEB8
:1041A00000280CD0464805406560FFF7F0FEA06887
:1041B000800603D4FFF786FE002800D00126FF20EA
:1041C0006062304670BD0121017081704170002134
:1041D000C1707047024610B535480C464068C02192
:1041E000C94301400002000ECB04E070DB0E637097
:1041F0008B069B0E0904490FA3702170002A0AD177
:1042000000F07BFAE070607800F077FA6070A078D8
:1042100000F073FAA07010BD70B50021244E002884
:10422000B068144620D0400635D5207800F065FAF5
:10423000207B00F062FA2078A578000405436078BE
:10424000E1780002090408430543207B000605438A
:10425000A068054360680543CA20706253207062FD
:10426000F561FF20706270BD400600D4E1702078D7
:1042700000F037FA0504607800F033FA00020543D5
:10428000A07800F02EFA0543E07800040543207B77
:1042900000F027FADAE7E170CAE70021C170017087
:1042A000417081700122816002734160704700009B
:1042B0000028004001210000FF007F007F7F7F0079
:1042C0003FFFFF0070B514460246FB48C169402518
:1042D0008802800E4B0420705B0E63704B065B0EF1
:1042E000A3700B0C2B40E3708B009B0E23732B06EB
:1042F0000B40A360F14B19406160002A0ED100F021
:10430000FCF92070607800F0F8F96070A07800F097
:10431000F4F9A070207B00F0F0F9207370BD18B59F
:1043200000220092E44BCA225A6253225A620029A8
:10433000996802D00143996012E081439960000AB4
:104340000124A403D968009A0140521C0092A242A1
:1043500001D00029F6D0D968014201D1002000E047
:104360000120FF21596218BDD348CA234362532359
:10437000436212060A43D04940314A60FF2141623C
:1043800094E7CD48403040684004400C8EE710B5BB
:10439000C94ACA2353625323536293680124A40475
:1043A000A34393609368084303439360FF205062E4
:1043B00010BDC148806801218904084076E710B526
:1043C000BD4ACA23536253235362936807242405CA
:1043D000A34393609368084303439360FF205062B4
:1043E00010BDB549CA224A6253224A620122D2054F
:1043F0000028886801D0104300E090438860FF20C7
:10440000486253E7AC49CA224A6253224A628A6828
:104410000123DB049A438A608A6802438A60FF2092
:10442000486243E770B50023A34CCA256562532553
:104430006562E568ED0307D5A514E668F60303D5C4
:10444000AB4201D05B1CF8E7E368DB0304D408430C
:104450001043E063012000E00020FF21616270BD95
:1044600010B5954B9A68964C2240002901D0024322
:10447000D8140243CA205862532058629A60FF2021
:10448000586210BD70B50D468B4914460B6B8D4AB2
:10449000496B1A40C026F64331409602B60E2E7084
:1044A0005604760E52066E70520EAA705A02520EC2
:1044B00040231A40EA700022E270CA04D20E6270F1
:1044C0008A06920E0904490FA2702170002817D1A4
:1044D000287800F012F92870687800F00EF96870FA
:1044E000A87800F00AF9A870607800F006F960700A
:1044F000A07800F002F9A070207800F0FEF820709B
:1045000070BD6D48806BD1E66B4A40004032002997
:10451000116802D001431160C8E68143FBE7664A97
:1045200040320029116801D0014300E0814311604D
:10453000BCE6614940310A680323DB029A430A6002
:104540000A6802430A60B1E65B4940310A68072302
:104550001B029A430A600A6802430A60A6E65649AB
:1045600040310A6803235B039A430A600A680243E6
:104570000A609BE65049802240310028086801D03B
:10458000104300E09043086090E64B494031CA1365
:104590000028086801D0904300E01043086085E6D9
:1045A000454A08B55032800080180090016008BD6F
:1045B000414908B55031800040180090006808BD9E
:1045C0003D4940310A6801239B049A430A600A6806
:1045D00002430A606AE630B50022374CCA236362A0
:1045E00053236362E3681B0707D5A314E5682D070F
:1045F00003D59A4201D0521CF8E7E26812070AD4A8
:10460000A268D20607D40143E162FFF75BFC0028F1
:1046100002D0012000E00020FF21616230BD30B5F2
:10462000254BCA225A6253225A6204250246224C62
:10463000AA43403428400029996804D01143996066
:104640002168014303E0914399602168814321601F
:10465000FF20586230BD18490246C96800201A4B35
:104660001940114200D0012020E680210843C003F8
:10467000C00BC3431048C2680A401343C36015E629
:1046800070B50D4A00214032126804230A4C1A40CA
:10469000A368860C0546F540ED0B15400340E26823
:1046A0002B4300090240002B03D01004000C00D063
:1046B0000121084670BD00000028004080808080F5
:1046C000F7F7FFFF7F7F7F007879010000098021E5
:1046D000084380B20D4AC343D06808400343D36007
:1046E000E4E5002103E0491C0A38C9B2C0B20A2837
:1046F000F9D20907090E0843D8E501090A22000783
:104700005143000F4018C0B2D0E50000002800401F
:1047100030B5827801240178002A15D08B08174A19
:104720009B009A1813688907C90EFF258D40AB437B
:104730004578AD072D0E8D401D4315600078C006ED
:10474000C00E84400E4804E0C806C00E84400C48E9
:104750008030046030BD0B4A0029116901D001434B
:1047600000E0814311617047042207490428086969
:1047700002D09043086170471043FBE700E400E07B
:1047800000E100E000ED00E000E000E010B50121F4
:104790000C072046FEF739FB00212046FEF735FBCB
:1047A00010BD30498A150028086801D0104300E088
:1047B0009043086070472B4A1168E02399430143F6
:1047C00011607047274910220028086801D0104363
:1047D00000E0904308607047224A0029516801D0E8
:1047E000014300E08143516070471F490A69042377
:1047F0009A430A61012801D020BF704730BF70473B
:10480000184B1A689208920002431A60164802690F
:1048100004231A430261012904D020BF016999438E
:104820000161704730BFF9E70E48026804210A436E
:104830000260026802231A4302600B4802690A43BD
:10484000026130BF7047074A0146526800200A42A1
:1048500000D00120704703490A68800002430A60C3
:10486000704700000070004000ED00E0244801683F
:104870008907890F016000218160C1600161416188
:10488000816982151143816170471D4A1168890849
:104890008900014311607047194A0029116801D04D
:1048A000014300E0814311607047154A00291168F7
:1048B00001D0014300E08143116070478A0710B5C1
:1048C000120F0F2393408C080D49A40061188C68C7
:1048D0009C438C608B68904003438B6010BD0849FB
:1048E0008A6902438A617047054900208969C905C0
:1048F00000D50120704702498A6902438A617047E6
:10490000000001400168454A11400160002101603A
:1049100041608160C1604249414A0839904202D1F8
:1049200048680F2205E03E4A1432904204D148689C
:10493000F022104348607047394A2832904203D130
:1049400048680F221202F4E7354A3C32904203D104
:1049500048680F221203ECE7314A50329042EAD104
:1049600048680F221204E4E730B503682D4A0C6A48
:1049700013408A684D6922430C692C4322438C6999
:104980002243CC6922434C6A22438C6A22431A4355
:104990000260CA6842600A6882604968C16030BDCE
:1049A0000021016041608160C160016141618161FC
:1049B000C16101624162816270470029016802D0D1
:1049C0000122114301E0154A114001607047416026
:1049D0007047406880B27047002A026801D00A43DD
:1049E00000E08A430260704701460D4A0020083A01
:1049F00012680A4200D0012070470949083948600E
:104A000070470146064A0020083A12680A4200D060
:104A1000012070470249083948607047FEFF0000D6
:104A2000080002400F80FFFF70B50C460546FB4EA4
:104A300017E040213046FDF7EEFF280604D580211F
:104A40003046FDF7E6FF03E080213046FDF7E3FF47
:104A50006806050E40213046FDF7DBFF0122521E9D
:104A6000FDD12046641EE4B20028E2D170BD70B5CD
:104A7000EA4C0E46054620212046FDF7CCFF0321D7
:104A80002846FFF7D1FF08213046FFF7CDFF02216E
:104A90000020FFF7C9FF20212046FDF7BAFF70BDB7
:104AA0007CB501218804FEF783F9E0200090012005
:104AB0006946087100248C710320D84D487128463E
:104AC000FDF747FFE0212846FDF7A3FF01218020E5
:104AD000FFF7CDFF18218020FFF7C9FF2921802093
:104AE000FFF7C5FF03218020FFF7C1FFCC4900205D
:104AF0000C54401CC0B20628FAD37CBD70B5C74E1A
:104B000020213046FDF787FF0321A020FFF78CFF0F
:104B100006210020FFF788FFC14D0024E0070FD0D9
:104B20006008285C0007000E0421FFF77DFF641C6D
:104B3000E4B21C2CF2D320213046FDF76AFF70BD91
:104B40006008285C00090001EEE70020B44A014635
:104B50001154401CC0B20E28FAD370470020B04A4E
:104B6000FF211154401CC0B20E28FAD37047AD4A41
:104B700010B501201346AA4931331418203CE47FB4
:104B80001C5D0C54401CC0B20828F6D3042001223E
:104B90000B5C13430B54401CC0B20728F8D310BD64
:104BA00070B5A1489F490068C91D0002020C012090
:104BB0000C469B4D2A340B18203BDB7FE35C2B54C7
:104BC000401CC0B20828F6D36421104602F0DFFC76
:104BD000205CE87008460A2102F0D9FC205C2871AC
:104BE000924800782018C078A87170BD30B58D4CFF
:104BF00001228B4B641C0578401C2D5D9D54521C7A
:104C0000D2B2082AF7D30120002205E01C5CFA2C5E
:104C100004D11A54401CC0B28842F7D3012407299A
:104C200002D0585C204358548148007805280FD0A2
:104C300080490978C9070AD0072808D17E48DA7167
:104C40000078022803D1987940084000987130BD5F
:104C50007A4800780128FAD1794800780228F6D1FC
:104C6000784800780828F2D00B28F0D0D879204373
:104C7000D87130BD3EB5022907D06C46042914D046
:104C800005292CD0032944D046E06F4904F0BEFB2F
:104C900003F0BAFA02460B466CA1684602F038FBF4
:104CA0006A46D0790621907147E003F0ADFA694A6F
:104CB000694B03F075F902F01BFD03F0A5FA0246FB
:104CC0000B4666A1684602F023FB01210846221824
:104CD00052782254401CC0B20728F8D32DE003F0CC
:104CE00093FA604A604B03F05BF902F001FD03F0B8
:104CF0008BFA02460B4659A1684602F009FB0121D6
:104D00000846221852782254401CC0B20728F8D313
:104D100013E0564904F07AFB03F076FA02460B469C
:104D200053A1684602F0F4FA03210846221852788B
:104D30002254401CC0B20728F8D36846FFF756FF3C
:104D40003EBD3EB530256C4601291FD0022919D140
:104D50003D4904F05BFB03F057FA02460B463BA1CA
:104D6000684602F0D5FA6946C8798871072106209D
:104D70002218203AD27F2254401E0006000EF7D19E
:104D8000684605706846FFF731FF3EBD03F03CFA08
:104D900002460B4636A1684602F0BAFA03202118F3
:104DA00049782154401CC0B20728F8D304210620BA
:104DB0002218203AD27F2254401E0006000EF7D15E
:104DC000DEE7F8B5164C002666702B48A670008802
:104DD0004B21C900074602F0DAFB124D3C21313568
:104DE000285CE070384602F0D2FB0F460A2102F040
:104DF000CEFB685C01210843207138460A2102F08D
:104E0000C6FB285C607138460A2102F0C0FB685C72
:104E1000A071E671FFF772FEF8BD000000040048C3
:104E2000E40100204B970008A4000020240000208B
:104E3000090000200B0000200A000020F0000020E4
:104E4000F2000020F100002000007A442530382EC6
:104E500031660000217561C26D0FA23F2530382EEA
:104E600036660000635ED00D1076A03F0000A040C3
:104E70002530382E34660000D20000203EB5FDF704
:104E8000F1FBF84C0021E172A1726172F64988428F
:104E900005D90A2102F07BFBF44A515C617202469B
:104EA000F3A1684602F034FA07216846FFF79EFE38
:104EB0003EBD30B5F049ED4A0B780D321446D900AD
:104EC0000120273CE74DC91A89180A18203A127E9A
:104ED000A25C2A54401CC0B20828F6D3032B06D08B
:104EE000042B03D1E5480078205CE87130BDE4482C
:104EF000F9E7DE4910B5283901200C46D94B0E34AC
:104F00000A18203AD27FA25C1A54401CC0B208286A
:104F1000F6D3DC480A220078FA21012809D00228B9
:104F200009D003280BD0042802D19E209871D97192
:104F300010BD9A71FBE79A71D620D87110BDBC20C4
:104F4000F4E770B5C94CCC482934CF4900782346E2
:104F50000978433BC34A01280ED002281BD1012007
:104F60001D46153D2E18203EF67F9E5D1654401CB2
:104F7000C0B20828F6D30BE0BC4D0120363D2E18F8
:104F8000203EF67F9E5D1654401CC0B20828F6D322
:104F9000605C185CD07170BDFEB5BC48012500781E
:104FA000002812D0BA48BC4E0278BA48BB490768FC
:104FB0003078D21F401CC0B209780024130004F0DE
:104FC00073F9060724EB86C9F906FFF757FF2EE1B0
:104FD000B3480078C00714D0B04C022901D0012991
:104FE0000FD1B0480021C943006803F02FFAA94E41
:104FF000394604F0E1F904D221783068FFF7A1FEC8
:1050000015E1A6480178A3488CE1A748007801285B
:1050100029D0A648A64A0068A64E8318A64AB342DD
:1050200050D201461570384603F018F903F0ECF839
:105030000022A24B02F016FD02F064FFA0490860B6
:10504000A049884237D9894B01201A3B1946854C23
:1050500069390A18203AD27F9A5C2254401CC0B2A7
:105060000828F6D3E3E0814A01203D3A14467D4901
:1050700023341318203BDB7FE35C0B54401CC0B28D
:105080000828F6D39048D6220478FA20230004F0AA
:105090000BF9060406080A0B0DCECA71C7E0887129
:1050A000FBE70A2200E0BC228A7102E00A224A7170
:1050B0008871C871BBE002466DA1684602F028F90C
:1050C000072165E01470CBE0FFF7D4FDAFE07F4F20
:1050D00006283D70307000D934707D487D4A0068E4
:1050E0007D4B904201DC984200DC3C707B490968B2
:1050F000914201DC994200DC3C7004F0DFF900D2FF
:105100003C70734801686348006804F055F906D3A1
:10511000724801685F48006804F0D0F905D2704811
:10512000704905700A20087001E06D4804703878F5
:10513000012800D065E76A4800780128FAD1307864
:105140000328F7D9474901200C54401CC0B2082855
:10515000FAD36CE06448654B0068654A9842B1DB5D
:1051600001461570384603F079F8624904F04EF9AB
:105170006149086003F048F802460B465FA16846A3
:1051800002F0C6F8694688794871C87988710521A6
:105190006846FFF72BFD4AE0374A1378002B5FD0B3
:1051A000394A052B127806D2002A06D13470FFF74F
:1051B00080FE3CE028E0002A25D0334B062A06D0AA
:1051C000012A17D0032A15D0052A13D048E04D48EC
:1051D000006803F019F802460B464BA1684602F03E
:1051E00097F869464879087188794871C879887153
:1051F0000421CDE73070142802D0FFF7A2FE16E09C
:105200003470521C1A70FEBD1E480078002827D04A
:105210003F480078002807D00128F4D13D480278A3
:105220003D48002A12D018E0FFF763FE747018485A
:105230000078012801D00728E5D118480078022815
:10524000E1D10848C1792943C171FEBD334A1278C2
:10525000012A02D17278002A62D07278012A61D0C4
:10526000384631E7E40100207F96980096970008C1
:1052700025303764000000001B0000201D000020C6
:105280001C000020EC000020EF000020180000208F
:1052900009000020840000209A0100200A0000205C
:1052A00007000020BC000020D8000020880000205B
:1052B00091ED7CC591ED4408DA0000200000E03F4C
:1052C0008C0000209F860100D9000020DD00002016
:1052D000E0000020000048430AD7233CE4000020FF
:1052E000DC000020D000002090000020CDCCCC3D80
:1052F000DB0000200000C842940000202530382E3A
:1053000032660000980000202530382E33660000F9
:10531000EE000020ED000020E80000200C0000203E
:10532000076075700068CFE670B5FF4901200D4633
:10533000FE4C4D350A18203AD27FAA5C2254401CFC
:10534000C0B20828F6D3FA4800780B281BD00C28E6
:105350001BD0F8490A880A21504302F018F986B296
:105360006421304602F013F9285C607108460A2176
:1053700002F00DF9285CA0710A21304602F007F90D
:10538000685CE07170BDFE2000E0DE206071A071FD
:10539000F7E7F8B5E84FE44D387800224D35E34C97
:1053A000E649012813D0E64E2B465B3B368802289F
:1053B0002ED003285DD0042808D14879401CC0B203
:1053C0004871142802D14A710520387024E50A7109
:1053D000C878401CC0B2C8700528F7D1CA70887858
:1053E000401C8870C0070CD0CF49012015390A181D
:1053F000203AD27FAA5C2254401CC0B20828F6D3BF
:105400000AE501202254401CC0B20828FAD303E563
:10541000CA700879401CC0B208710528D6D10A713B
:105420008878401C8870C0071CD0012019182039CA
:10543000C97F695C2154401CC0B20828F6D364219E
:10544000304602F0A4F8285C607108460A2102F098
:105450009EF8285CA0710A21304602F098F8685C3A
:10546000E071D9E401202254401CC0B20828FAD3CC
:10547000D2E40A714A71012019182039C97F695C88
:105480002154401CC0B20828F6D3D8E710B5AB4968
:10549000C879401CC0B2C871052815D90022CA714C
:1054A0008879401C8871A149C0070ED09E4A01200E
:1054B000D21F134654331418203CE47F1C5D0C5457
:1054C000401CC0B20828F6D310BD01200A54401C6D
:1054D000C0B20828FAD310BD7FB59A480178974822
:1054E000027A914243D00172002005466C46255451
:1054F000401CC0B21028FAD30801FF301022214608
:10550000013001F09DFC0020401CC0B2C828FBD334
:1055100000210846225C401C5118C0B2C9B20F28B5
:10552000F8D3684602788848AA2A3BD16A4652785E
:10553000AA2A37D16A46D27B8A4233D1012101702F
:105540006C468248E27902708148217A0170637A60
:10555000207B1B06C018A37AE47A1B0424021B19C3
:10556000C0180B2A04D0082A11D0FFF783FB7FBD97
:1055700002F04AFE02460B467649684601F0C8FE34
:10558000694688794871C8798871052106E07149B2
:1055900002468C39684601F0BBFE07216846FFF7DA
:1055A00025FB7FBD60490570012046315F4BCC1D56
:1055B0000A18203AD27FA25C1A54401CC0B20828B4
:1055C000F6D37FBDF8B558490120C91D0D46574C8B
:1055D00046350A18203AD27FAA5C2254401CC0B239
:1055E0000828F6D35C48FA260778BC224E200A2108
:1055F0003B0003F059FE091306182E333A464A5071
:105600001300E670554B21711D78ED1F2B0003F040
:105610004BFE06040618491A081CE171D6E6E27131
:10562000D4E6F6203EE0E67022714D4A127813006F
:1056300003F03AFE060B04050738090BEDE7BD2021
:1056400030E09E202EE0D6202CE0E420A0717A20CD
:1056500028E0E6709E202071424802E0E67020714A
:1056600041480078C007DAD1D7E7E670D62020712C
:105670003E480A21007801F08AFF285CA071685C2E
:1056800010E0E670F621217103E0E6708A202071B7
:10569000F620A07106E0E670FE2020713448A67165
:1056A0000078285CE07191E610B53248007803007C
:1056B00003F0FAFD061304070A0D1013FFF782FF2B
:1056C00010BDFFF731FE10BDFFF763FE10BDFFF701
:1056D000DDFE10BDFFF700FF10BD27480078012850
:1056E00006D026480078012805D0FFF755FC10BDEC
:1056F000FFF73DFA10BD0C4901201C390C460B4B3D
:1057000069340A18203AD27FA25C1A54401CC0B2F5
:105710000828F6D3124800780228EBD1D879012165
:105720000843D87110BD00002F970008E401002045
:10573000140000202C000020170000209A010020F7
:105740002E000020F3000020F0000020F1000020D7
:10575000F2000020FC520008D5000020D6000020F6
:105760000A000020200000200B000020270000205D
:1057700026000020090000200D000020000000206D
:10578000FEB5F7480224007801286CD0F54800786F
:10579000022868D0F44900270978F44EF44D012915
:1057A00026D0052826D0F348A1050068F24B421AFE
:1057B000F2499A422ED20F70F1490978C9070BD0ED
:1057C000F04903F023FEF04902F048FDEF4903F0F1
:1057D000ADFDEF49884210DA02F016FD02460B4695
:1057E000ECA1684601F094FD6946C87888700CE029
:1057F000EA4800E0EA48027802E002F0DFFD0246F3
:10580000E8A1684601F084FD00246846007820285D
:1058100018D008E0012008703A20694608703B2043
:1058200048708870002468460078405DF0726946D0
:1058300048788023405DB0728978022C495D71728E
:1058400002D003E0F772F2E71843B072CC48C64AC0
:1058500000781278C007104305D1C24800780528A7
:1058600001D019437172FEBD00B5C04A0300117A20
:1058700003F01AFD060D040406080A0D102004E0CA
:10588000042002E0082000E088200143117200BDDE
:10589000F0B5B348007801281DD0B44D0120287020
:1058A000C2480078C00701D003202870C0480078A3
:1058B000012803D12878802108432870A94A1024A0
:1058C0001178022904D0AD480078012804D007E0FF
:1058D000287A20432872F0BD2878042318432870C2
:1058E00040272026042902D0032903D005E0287888
:1058F000384301E0287830432870AE480378042B01
:1059000002D1287820432870AB480129027805D1BC
:10591000AA48062A007804D0072A02D0062B06D00F
:1059200009E00128FAD1287820432870F6E7287882
:105930000823184328700020914B28721B78DB073E
:1059400003D0894B1B78002B02D0052905D008E035
:10595000052902D00120287203E0994B1B78012B06
:105960000CD098480B00007803F09EFC0D2C1A2CEC
:105970002C2C2C2C1C1F351C251C2C009249097822
:10598000C91F0B0003F090FC0604071E0409041E47
:105990008E48007806E0384313E00221084310E007
:1059A000022A0FD1FFF760FF0CE08949097801292D
:1059B000F8D1287AEFE7874909780129F2D1287AC6
:1059C000EBE728720021674829730078052809D081
:1059D00001280DD010E0804909780629E2D1287A03
:1059E0003043EEE7764A1278012A05D1764A0DE077
:1059F000714A1278012A08D00246D21F130003F020
:105A000053FC0607090B0D12140F744A1278F4E7C1
:105A1000802204E02F7303E02E7301E008222A7332
:105A2000052804D007E00422F9E70222F7E72A7BE1
:105A300001231A432A734C4F3A78012A0BD12A7B4F
:105A4000674B22432A735A7A521CD2B25A72062AE0
:105A500001D1597239706973624903281CD0042836
:105A60001AD00A78002A00D16E730A2814D15E4831
:105A70000078012806D0022807D05C480078012869
:105A800006D009E0687B204305E0687B802201E0C6
:105A9000687B90221043687355480078012800D035
:105AA00019E70878012805D00028F9D1687B204340
:105AB0006873F0BD687B80210843F9E7FEB52C4987
:105AC000012029390D46294C3F350A18203AD27F4A
:105AD000AA5C2254401C80B20828F6D3FA20364F24
